{
    "contractName": "Game",
    "abi": [
        {
            "inputs": [],
            "stateMutability": "nonpayable",
            "type": "constructor"
        },
        {
            "inputs": [
                {
                    "internalType": "address",
                    "name": "inviter",
                    "type": "address"
                }
            ],
            "name": "accept_duel",
            "outputs": [
                {
                    "internalType": "bool",
                    "name": "result",
                    "type": "bool"
                }
            ],
            "stateMutability": "nonpayable",
            "type": "function"
        },
        {
            "inputs": [
                {
                    "internalType": "uint256",
                    "name": "monster_id",
                    "type": "uint256"
                }
            ],
            "name": "attack_monster",
            "outputs": [
                {
                    "internalType": "bool",
                    "name": "result",
                    "type": "bool"
                }
            ],
            "stateMutability": "nonpayable",
            "type": "function"
        },
        {
            "inputs": [
                {
                    "internalType": "uint256",
                    "name": "equipment_id",
                    "type": "uint256"
                }
            ],
            "name": "equip",
            "outputs": [],
            "stateMutability": "nonpayable",
            "type": "function"
        },
        {
            "inputs": [
                {
                    "internalType": "address",
                    "name": "invitee",
                    "type": "address"
                }
            ],
            "name": "invite_duel",
            "outputs": [
                {
                    "internalType": "bool",
                    "name": "result",
                    "type": "bool"
                }
            ],
            "stateMutability": "nonpayable",
            "type": "function"
        },
        {
            "inputs": [
                {
                    "internalType": "uint256",
                    "name": "",
                    "type": "uint256"
                }
            ],
            "name": "monsters",
            "outputs": [
                {
                    "internalType": "uint256",
                    "name": "attack",
                    "type": "uint256"
                },
                {
                    "internalType": "uint256",
                    "name": "monster_current_health",
                    "type": "uint256"
                },
                {
                    "internalType": "string",
                    "name": "monster_name",
                    "type": "string"
                }
            ],
            "stateMutability": "view",
            "type": "function"
        },
        {
            "inputs": [
                {
                    "internalType": "uint256",
                    "name": "attack",
                    "type": "uint256"
                },
                {
                    "internalType": "uint256",
                    "name": "monster_current_health",
                    "type": "uint256"
                },
                {
                    "internalType": "string",
                    "name": "monster_name",
                    "type": "string"
                }
            ],
            "name": "push_master",
            "outputs": [],
            "stateMutability": "nonpayable",
            "type": "function"
        },
        {
            "inputs": [
                {
                    "internalType": "address",
                    "name": "inviter",
                    "type": "address"
                }
            ],
            "name": "reject_duel",
            "outputs": [
                {
                    "internalType": "bool",
                    "name": "result",
                    "type": "bool"
                }
            ],
            "stateMutability": "nonpayable",
            "type": "function"
        },
        {
            "inputs": [
                {
                    "internalType": "uint256",
                    "name": "equipment_id",
                    "type": "uint256"
                }
            ],
            "name": "unequip",
            "outputs": [],
            "stateMutability": "nonpayable",
            "type": "function"
        }
    ],
    "bytecode": "6000608081815261303960a0819052610120604052600960e0818152681b995dd7dcdddbdc9960ba1b61010090815260c09190915260039485556004929092559192916200005091600591620000ce565b50506040805160608101825260008082526130396020808401918252845190810180865292815293830184905282516006908155905160075592519193506200009d9160089190620000ce565b505050348015620000ad57600080fd5b50336000908152602081905260409020600801805460ff19169055620001b1565b828054620000dc9062000174565b90600052602060002090601f0160209004810192826200010057600085556200014b565b82601f106200011b57805160ff19168380011785556200014b565b828001600101855582156200014b579182015b828111156200014b5782518255916020019190600101906200012e565b50620001599291506200015d565b5090565b5b808211156200015957600081556001016200015e565b600181811c908216806200018957607f821691505b60208210811415620001ab57634e487b7160e01b600052602260045260246000fd5b50919050565b610d3580620001c16000396000f3fe608060405234801561001057600080fd5b50600436106100885760003560e01c8063b85f80271161005b578063b85f8027146100f0578063c0576b7314610103578063d179e3d014610125578063e7ac8c611461013857600080fd5b8063036e88211461008d578063355b0370146100a25780637a2444e1146100ca578063b4c0e1b1146100dd575b600080fd5b6100a061009b366004610ae0565b61014b565b005b6100b56100b0366004610b60565b6101eb565b60405190151581526020015b60405180910390f35b6100b56100d8366004610b79565b61033f565b6100b56100eb366004610b79565b6103a5565b6100a06100fe366004610b60565b610439565b610116610111366004610b60565b6105c5565b6040516100c193929190610ba9565b6100a0610133366004610b60565b610687565b6100b5610146366004610b79565b610715565b6002604051806060016040528086815260200185815260200184848080601f016020809104026020016040519081016040528093929190818152602001838380828437600092018290525093909452505083546001818101865594825260209182902084516003909202019081558184015194810194909455604083015180519394936101e293506002850192919091019061098f565b50505050505050565b600060025482106101fb57600080fd5b60006002838154811061021057610210610c0d565b600091825260208083206003909202909101543383529082905260409091206002015461023d9190610c39565b336000908152602081905260408120546002805493945091929091908690811061026957610269610c0d565b9060005260206000209060030201600101546102859190610c39565b905081811161032d5760019250600284815481106102a5576102a5610c0d565b60009182526020909120600390910201546102c1600183610c5b565b6102cb9190610c72565b33600090815260208190526040812060020180549091906102ed908490610c5b565b92505081905550610323606460026040518060400160405280600a81526020016919dbdbd917dcdddbdc9960b21b81525061085c565b5060019392505050565b6103356108c4565b5060009392505050565b6001600160a01b03818116600090815260016020526040812054909116331461036757600080fd5b50336000908152602081905260408082206008908101805460ff199081169091556001600160a01b0394909416835291200180549091169055600190565b3360009081526020819052604081206008015460ff161580156103e457506001600160a01b03821660009081526020819052604090206008015460ff16155b6103ed57600080fd5b50336000908152602081815260408083206008018054600160ff1990911681179091559182905290912080546001600160a01b0319166001600160a01b03939093169290921790915590565b60075433600090815260208190526040812060060154909182911461045d57600080fd5b5060005b336000908152602081905260409020600401548110156104d1573360009081526020819052604090206004018054849190839081106104a2576104a2610c0d565b90600052602060002090600302016001015414156104bf57600191505b806104c981610c91565b915050610461565b6001821515146104e057600080fd5b33600090815260208190526040902060040180548290811061050457610504610c0d565b600091825260208083206003909202909101543383529082905260409091205461052e9190610cac565b33600090815260208190526040902090815560040180548290811061055557610555610c0d565b9060005260206000209060030201600080336001600160a01b03166001600160a01b03168152602001908152602001600020600501600082015481600001556001820154816001015560028201816002019080546105b290610cc4565b6105bd929190610a13565b505050505050565b600281815481106105d557600080fd5b906000526020600020906003020160009150905080600001549080600101549080600201805461060490610cc4565b80601f016020809104026020016040519081016040528092919081815260200182805461063090610cc4565b801561067d5780601f106106525761010080835404028352916020019161067d565b820191906000526020600020905b81548152906001019060200180831161066057829003601f168201915b5050505050905083565b6007543360009081526020819052604090206006015414156106a857600080fd5b336000908152602081905260409020600581015490546106c89190610c5b565b33600090815260208190526040902090815560068054600583019081556007805483850155600880549394929391909201919061070490610cc4565b61070f929190610a13565b50505050565b6001600160a01b03818116600090815260016020526040812054909116331461073d57600080fd5b3360008181526020819052604080822060088101805460ff191660011790556001600160a01b03861683529082205492825260020154909161077e91610c39565b33600090815260208190526040808220546001600160a01b03871683529082206002015492935090916107b19190610c39565b905081811161081957336000908152602081905260409020546107d5600183610c5b565b6107df9190610c72565b6001600160a01b0385166000908152602081905260408120600201805490919061080a908490610c5b565b909155506001935061081e9050565b600092505b5050336000908152602081905260408082206008908101805460ff199081169091556001600160a01b03959095168352912001805490921690915590565b33600090815260208181526040808320815160608101835287815280840187815292810186815260049092018054600181810183559187529585902082516003909702019586559251928501929092555180519193926105bd9260028501929091019061098f565b3360009081526020819052604081206001810154600282015560040180549091906108f1576108f1610c0d565b60009182526020822060039091020181815560018101829055906109186002830182610a8e565b50503360009081526020819052604090206004015461098d57336000908152602081815260408220600490810180546001818101835591855292909320600380549381029091019283559054928201929092556005805460028301919061097e90610cc4565b610989929190610a13565b5050505b565b82805461099b90610cc4565b90600052602060002090601f0160209004810192826109bd5760008555610a03565b82601f106109d657805160ff1916838001178555610a03565b82800160010185558215610a03579182015b82811115610a035782518255916020019190600101906109e8565b50610a0f929150610acb565b5090565b828054610a1f90610cc4565b90600052602060002090601f016020900481019282610a415760008555610a03565b82601f10610a525780548555610a03565b82800160010185558215610a0357600052602060002091601f016020900482015b82811115610a03578254825591600101919060010190610a73565b508054610a9a90610cc4565b6000825580601f10610aaa575050565b601f016020900490600052602060002090810190610ac89190610acb565b50565b5b80821115610a0f5760008155600101610acc565b60008060008060608587031215610af657600080fd5b8435935060208501359250604085013567ffffffffffffffff80821115610b1c57600080fd5b818701915087601f830112610b3057600080fd5b813581811115610b3f57600080fd5b886020828501011115610b5157600080fd5b95989497505060200194505050565b600060208284031215610b7257600080fd5b5035919050565b600060208284031215610b8b57600080fd5b81356001600160a01b0381168114610ba257600080fd5b9392505050565b83815260006020848184015260606040840152835180606085015260005b81811015610be357858101830151858201608001528201610bc7565b81811115610bf5576000608083870101525b50601f01601f19169290920160800195945050505050565b634e487b7160e01b600052603260045260246000fd5b634e487b7160e01b600052601160045260246000fd5b600082610c5657634e487b7160e01b600052601260045260246000fd5b500490565b600082821015610c6d57610c6d610c23565b500390565b6000816000190483118215151615610c8c57610c8c610c23565b500290565b6000600019821415610ca557610ca5610c23565b5060010190565b60008219821115610cbf57610cbf610c23565b500190565b600181811c90821680610cd857607f821691505b60208210811415610cf957634e487b7160e01b600052602260045260246000fd5b5091905056fea2646970667358221220388c5f83386adf117532b7eed6503b9f3310107b20717fef23de00fe123be97864736f6c634300080c0033",
    "sourcePath": "/Users/mayuqing/Documents/Courses/EECE571G/Cryptollars/Game.sol",
    "compiler": {
        "name": "solc",
        "version": "0.8.12+commit.f00d7308"
    },
    "functionHashes": {
        "accept_duel(address)": "e7ac8c61",
        "attack_monster(uint256)": "355b0370",
        "equip(uint256)": "b85f8027",
        "invite_duel(address)": "b4c0e1b1",
        "monsters(uint256)": "c0576b73",
        "push_master(uint256,uint256,string)": "036e8821",
        "reject_duel(address)": "7a2444e1",
        "unequip(uint256)": "d179e3d0"
    },
    "gasEstimates": {
        "creation": {
            "codeDepositCost": "676200",
            "executionCost": "infinite",
            "totalCost": "infinite"
        },
        "external": {
            "accept_duel(address)": "infinite",
            "attack_monster(uint256)": "infinite",
            "equip(uint256)": "infinite",
            "invite_duel(address)": "53469",
            "monsters(uint256)": "infinite",
            "push_master(uint256,uint256,string)": "infinite",
            "reject_duel(address)": "51202",
            "unequip(uint256)": "infinite"
        },
        "internal": {
            "add_equipment(uint256,uint256,string memory)": "infinite",
            "reborn()": "infinite"
        }
    }
}