{
    "contractName": "Game",
    "abi": [
        {
            "inputs": [],
            "stateMutability": "nonpayable",
            "type": "constructor"
        },
        {
            "inputs": [
                {
                    "internalType": "address",
                    "name": "inviter",
                    "type": "address"
                }
            ],
            "name": "accept_duel",
            "outputs": [
                {
                    "internalType": "bool",
                    "name": "result",
                    "type": "bool"
                }
            ],
            "stateMutability": "nonpayable",
            "type": "function"
        },
        {
            "inputs": [
                {
                    "internalType": "uint256",
                    "name": "monster_id",
                    "type": "uint256"
                }
            ],
            "name": "attack_monster",
            "outputs": [
                {
                    "internalType": "bool",
                    "name": "result",
                    "type": "bool"
                }
            ],
            "stateMutability": "nonpayable",
            "type": "function"
        },
        {
            "inputs": [
                {
                    "internalType": "uint256",
                    "name": "equipment_id",
                    "type": "uint256"
                }
            ],
            "name": "equip",
            "outputs": [],
            "stateMutability": "nonpayable",
            "type": "function"
        },
        {
            "inputs": [
                {
                    "internalType": "address",
                    "name": "invitee",
                    "type": "address"
                }
            ],
            "name": "invite_duel",
            "outputs": [
                {
                    "internalType": "bool",
                    "name": "result",
                    "type": "bool"
                }
            ],
            "stateMutability": "nonpayable",
            "type": "function"
        },
        {
            "inputs": [
                {
                    "internalType": "address",
                    "name": "inviter",
                    "type": "address"
                }
            ],
            "name": "reject_duel",
            "outputs": [
                {
                    "internalType": "bool",
                    "name": "result",
                    "type": "bool"
                }
            ],
            "stateMutability": "nonpayable",
            "type": "function"
        },
        {
            "inputs": [
                {
                    "internalType": "uint256",
                    "name": "equipment_id",
                    "type": "uint256"
                }
            ],
            "name": "unequip",
            "outputs": [],
            "stateMutability": "nonpayable",
            "type": "function"
        }
    ],
    "bytecode": "6000608081815261303960a0819052610120604052600960e0818152681b995dd7dcdddbdc9960ba1b61010090815260c091909152600394855560049290925591929161004e916005916100c8565b505060408051606081018252600080825261303960208084019182528451908101808652928152938301849052825160069081559051600755925191935061009991600891906100c8565b5050503480156100a857600080fd5b50336000908152602081905260409020600801805460ff1916905561019c565b8280546100d490610161565b90600052602060002090601f0160209004810192826100f6576000855561013c565b82601f1061010f57805160ff191683800117855561013c565b8280016001018555821561013c579182015b8281111561013c578251825591602001919060010190610121565b5061014892915061014c565b5090565b5b80821115610148576000815560010161014d565b600181811c9082168061017557607f821691505b6020821081141561019657634e487b7160e01b600052602260045260246000fd5b50919050565b610986806101ab6000396000f3fe608060405234801561001057600080fd5b50600436106100625760003560e01c8063355b0370146100675780637a2444e11461008e578063b4c0e1b1146100a1578063b85f8027146100b4578063d179e3d0146100c9578063e7ac8c61146100dc575b600080fd5b61007a610075366004610815565b6100ef565b604051901515815260200160405180910390f35b61007a61009c36600461082e565b610212565b61007a6100af36600461082e565b610278565b6100c76100c2366004610815565b61030c565b005b6100c76100d7366004610815565b610498565b61007a6100ea36600461082e565b610526565b600060025482106100ff57600080fd5b6000600283815481106101145761011461085e565b6000918252602080832060039092029091015433835290829052604090912060020154610141919061088a565b336000908152602081905260408120546002805493945091929091908690811061016d5761016d61085e565b906000526020600020906003020160010154610189919061088a565b90508181116102005760019250600284815481106101a9576101a961085e565b60009182526020909120600390910201546101c56001836108ac565b6101cf91906108c3565b33600090815260208190526040812060020180549091906101f19084906108ac565b90915550600195945050505050565b61020861066d565b5060009392505050565b6001600160a01b03818116600090815260016020526040812054909116331461023a57600080fd5b50336000908152602081905260408082206008908101805460ff199081169091556001600160a01b0394909416835291200180549091169055600190565b3360009081526020819052604081206008015460ff161580156102b757506001600160a01b03821660009081526020819052604090206008015460ff16155b6102c057600080fd5b50336000908152602081815260408083206008018054600160ff1990911681179091559182905290912080546001600160a01b0319166001600160a01b03939093169290921790915590565b60075433600090815260208190526040812060060154909182911461033057600080fd5b5060005b336000908152602081905260409020600401548110156103a4573360009081526020819052604090206004018054849190839081106103755761037561085e565b906000526020600020906003020160010154141561039257600191505b8061039c816108e2565b915050610334565b6001821515146103b357600080fd5b3360009081526020819052604090206004018054829081106103d7576103d761085e565b600091825260208083206003909202909101543383529082905260409091205461040191906108fd565b3360009081526020819052604090209081556004018054829081106104285761042861085e565b9060005260206000209060030201600080336001600160a01b03166001600160a01b031681526020019081526020016000206005016000820154816000015560018201548160010155600282018160020190805461048590610915565b610490929190610738565b505050505050565b6007543360009081526020819052604090206006015414156104b957600080fd5b336000908152602081905260409020600581015490546104d991906108ac565b33600090815260208190526040902090815560068054600583019081556007805483850155600880549394929391909201919061051590610915565b610520929190610738565b50505050565b6001600160a01b03818116600090815260016020526040812054909116331461054e57600080fd5b3360008181526020819052604080822060088101805460ff191660011790556001600160a01b03861683529082205492825260020154909161058f9161088a565b33600090815260208190526040808220546001600160a01b03871683529082206002015492935090916105c2919061088a565b905081811161062a57336000908152602081905260409020546105e66001836108ac565b6105f091906108c3565b6001600160a01b0385166000908152602081905260408120600201805490919061061b9084906108ac565b909155506001935061062f9050565b600092505b5050336000908152602081905260408082206008908101805460ff199081169091556001600160a01b03959095168352912001805490921690915590565b33600090815260208190526040812060018101546002820155600401805490919061069a5761069a61085e565b60009182526020822060039091020181815560018101829055906106c160028301826107c3565b50503360009081526020819052604090206004015461073657336000908152602081815260408220600490810180546001818101835591855292909320600380549381029091019283559054928201929092556005805460028301919061072790610915565b610732929190610738565b5050505b565b82805461074490610915565b90600052602060002090601f01602090048101928261076657600085556107b3565b82601f1061077757805485556107b3565b828001600101855582156107b357600052602060002091601f016020900482015b828111156107b3578254825591600101919060010190610798565b506107bf929150610800565b5090565b5080546107cf90610915565b6000825580601f106107df575050565b601f0160209004906000526020600020908101906107fd9190610800565b50565b5b808211156107bf5760008155600101610801565b60006020828403121561082757600080fd5b5035919050565b60006020828403121561084057600080fd5b81356001600160a01b038116811461085757600080fd5b9392505050565b634e487b7160e01b600052603260045260246000fd5b634e487b7160e01b600052601160045260246000fd5b6000826108a757634e487b7160e01b600052601260045260246000fd5b500490565b6000828210156108be576108be610874565b500390565b60008160001904831182151516156108dd576108dd610874565b500290565b60006000198214156108f6576108f6610874565b5060010190565b6000821982111561091057610910610874565b500190565b600181811c9082168061092957607f821691505b6020821081141561094a57634e487b7160e01b600052602260045260246000fd5b5091905056fea264697066735822122027b2689a70a393daed85485f544ba91a5fe5f501ac7838571c70c42a5250e69964736f6c634300080c0033",
    "sourcePath": "/Users/mayuqing/Documents/Courses/EECE571G/Cryptollars/Game.sol",
    "compiler": {
        "name": "solc",
        "version": "0.8.12+commit.f00d7308"
    },
    "functionHashes": {
        "accept_duel(address)": "e7ac8c61",
        "attack_monster(uint256)": "355b0370",
        "equip(uint256)": "b85f8027",
        "invite_duel(address)": "b4c0e1b1",
        "reject_duel(address)": "7a2444e1",
        "unequip(uint256)": "d179e3d0"
    },
    "gasEstimates": {
        "creation": {
            "codeDepositCost": "487600",
            "executionCost": "infinite",
            "totalCost": "infinite"
        },
        "external": {
            "accept_duel(address)": "infinite",
            "attack_monster(uint256)": "infinite",
            "equip(uint256)": "infinite",
            "invite_duel(address)": "53423",
            "reject_duel(address)": "51156",
            "unequip(uint256)": "infinite"
        },
        "internal": {
            "reborn()": "infinite"
        }
    }
}