{
    "contractName": "Game",
    "abi": [
        {
            "inputs": [],
            "stateMutability": "nonpayable",
            "type": "constructor"
        },
        {
            "inputs": [
                {
                    "internalType": "address",
                    "name": "inviter",
                    "type": "address"
                }
            ],
            "name": "accept_duel",
            "outputs": [
                {
                    "internalType": "bool",
                    "name": "result",
                    "type": "bool"
                }
            ],
            "stateMutability": "nonpayable",
            "type": "function"
        },
        {
            "inputs": [
                {
                    "internalType": "uint256",
                    "name": "monster_id",
                    "type": "uint256"
                }
            ],
            "name": "attack_monster",
            "outputs": [
                {
                    "internalType": "bool",
                    "name": "result",
                    "type": "bool"
                }
            ],
            "stateMutability": "nonpayable",
            "type": "function"
        },
        {
            "inputs": [
                {
                    "internalType": "uint256",
                    "name": "equipment_id",
                    "type": "uint256"
                }
            ],
            "name": "equip",
            "outputs": [],
            "stateMutability": "nonpayable",
            "type": "function"
        },
        {
            "inputs": [
                {
                    "internalType": "address",
                    "name": "invitee",
                    "type": "address"
                }
            ],
            "name": "invite_duel",
            "outputs": [
                {
                    "internalType": "bool",
                    "name": "result",
                    "type": "bool"
                }
            ],
            "stateMutability": "nonpayable",
            "type": "function"
        },
        {
            "inputs": [],
            "name": "reborn",
            "outputs": [],
            "stateMutability": "nonpayable",
            "type": "function"
        },
        {
            "inputs": [
                {
                    "internalType": "address",
                    "name": "inviter",
                    "type": "address"
                }
            ],
            "name": "reject_duel",
            "outputs": [
                {
                    "internalType": "bool",
                    "name": "result",
                    "type": "bool"
                }
            ],
            "stateMutability": "nonpayable",
            "type": "function"
        },
        {
            "inputs": [
                {
                    "internalType": "uint256",
                    "name": "equipment_id",
                    "type": "uint256"
                }
            ],
            "name": "unequip",
            "outputs": [],
            "stateMutability": "nonpayable",
            "type": "function"
        }
    ],
    "bytecode": "6000608081815261303960a0819052610120604052600960e0818152681b995dd7dcdddbdc9960ba1b61010090815260c091909152600394855560049290925591929161004e916005916100c8565b505060408051606081018252600080825261303960208084019182528451908101808652928152938301849052825160069081559051600755925191935061009991600891906100c8565b5050503480156100a857600080fd5b50336000908152602081905260409020600801805460ff1916905561019c565b8280546100d490610161565b90600052602060002090601f0160209004810192826100f6576000855561013c565b82601f1061010f57805160ff191683800117855561013c565b8280016001018555821561013c579182015b8281111561013c578251825591602001919060010190610121565b5061014892915061014c565b5090565b5b80821115610148576000815560010161014d565b600181811c9082168061017557607f821691505b6020821081141561019657634e487b7160e01b600052602260045260246000fd5b50919050565b61099e806101ab6000396000f3fe608060405234801561001057600080fd5b506004361061007d5760003560e01c8063b4c0e1b11161005b578063b4c0e1b1146100c6578063b85f8027146100d9578063d179e3d0146100ec578063e7ac8c61146100ff57600080fd5b8063355b037014610082578063528d910a146100a95780637a2444e1146100b3575b600080fd5b61009561009036600461082d565b610112565b604051901515815260200160405180910390f35b6100b161022a565b005b6100956100c1366004610846565b6102f5565b6100956100d4366004610846565b61035b565b6100b16100e736600461082d565b6103ef565b6100b16100fa36600461082d565b61057b565b61009561010d366004610846565b610609565b6000806002838154811061012857610128610876565b600091825260208083206003909202909101543383529082905260409091206002015461015591906108a2565b336000908152602081905260408120546002805493945091929091908690811061018157610181610876565b90600052602060002090600302016001015461019d91906108a2565b90508181116102145760019250600284815481106101bd576101bd610876565b60009182526020909120600390910201546101d96001836108c4565b6101e391906108db565b33600090815260208190526040812060020180549091906102059084906108c4565b90915550600195945050505050565b6000925061022061022a565b5060009392505050565b33600090815260208190526040812060018101546002820155600401805490919061025757610257610876565b600091825260208220600390910201818155600181018290559061027e6002830182610750565b5050336000908152602081905260409020600401546102f35733600090815260208181526040822060049081018054600181810183559185529290932060038054938102909101928355905492820192909255600580546002830191906102e4906108fa565b6102ef92919061078d565b5050505b565b6001600160a01b03818116600090815260016020526040812054909116331461031d57600080fd5b50336000908152602081905260408082206008908101805460ff199081169091556001600160a01b0394909416835291200180549091169055600190565b3360009081526020819052604081206008015460ff1615801561039a57506001600160a01b03821660009081526020819052604090206008015460ff16155b6103a357600080fd5b50336000908152602081815260408083206008018054600160ff1990911681179091559182905290912080546001600160a01b0319166001600160a01b03939093169290921790915590565b60075433600090815260208190526040812060060154909182911461041357600080fd5b5060005b336000908152602081905260409020600401548110156104875733600090815260208190526040902060040180548491908390811061045857610458610876565b906000526020600020906003020160010154141561047557600191505b8061047f81610935565b915050610417565b60018215151461049657600080fd5b3360009081526020819052604090206004018054829081106104ba576104ba610876565b60009182526020808320600390920290910154338352908290526040909120546104e49190610950565b33600090815260208190526040902090815560040180548290811061050b5761050b610876565b9060005260206000209060030201600080336001600160a01b03166001600160a01b0316815260200190815260200160002060050160008201548160000155600182015481600101556002820181600201908054610568906108fa565b61057392919061078d565b505050505050565b60075433600090815260208190526040902060060154141561059c57600080fd5b336000908152602081905260409020600581015490546105bc91906108c4565b3360009081526020819052604090209081556006805460058301908155600780548385015560088054939492939190920191906105f8906108fa565b61060392919061078d565b50505050565b6001600160a01b03818116600090815260016020526040812054909116331461063157600080fd5b3360008181526020819052604080822060088101805460ff191660011790556001600160a01b038616835290822054928252600201549091610672916108a2565b33600090815260208190526040808220546001600160a01b03871683529082206002015492935090916106a591906108a2565b905081811161070d57336000908152602081905260409020546106c96001836108c4565b6106d391906108db565b6001600160a01b038516600090815260208190526040812060020180549091906106fe9084906108c4565b90915550600193506107129050565b600092505b5050336000908152602081905260408082206008908101805460ff199081169091556001600160a01b03959095168352912001805490921690915590565b50805461075c906108fa565b6000825580601f1061076c575050565b601f01602090049060005260206000209081019061078a9190610818565b50565b828054610799906108fa565b90600052602060002090601f0160209004810192826107bb5760008555610808565b82601f106107cc5780548555610808565b8280016001018555821561080857600052602060002091601f016020900482015b828111156108085782548255916001019190600101906107ed565b50610814929150610818565b5090565b5b808211156108145760008155600101610819565b60006020828403121561083f57600080fd5b5035919050565b60006020828403121561085857600080fd5b81356001600160a01b038116811461086f57600080fd5b9392505050565b634e487b7160e01b600052603260045260246000fd5b634e487b7160e01b600052601160045260246000fd5b6000826108bf57634e487b7160e01b600052601260045260246000fd5b500490565b6000828210156108d6576108d661088c565b500390565b60008160001904831182151516156108f5576108f561088c565b500290565b600181811c9082168061090e57607f821691505b6020821081141561092f57634e487b7160e01b600052602260045260246000fd5b50919050565b60006000198214156109495761094961088c565b5060010190565b600082198211156109635761096361088c565b50019056fea2646970667358221220a5f03a2e09cad1592f7252789dbf8d8e24711ee843975b9868748d114f58ae1b64736f6c634300080c0033",
    "sourcePath": "/Users/mayuqing/Documents/Courses/EECE571G/Cryptollars/Game.sol",
    "compiler": {
        "name": "solc",
        "version": "0.8.12+commit.f00d7308"
    },
    "functionHashes": {
        "accept_duel(address)": "e7ac8c61",
        "attack_monster(uint256)": "355b0370",
        "equip(uint256)": "b85f8027",
        "invite_duel(address)": "b4c0e1b1",
        "reborn()": "528d910a",
        "reject_duel(address)": "7a2444e1",
        "unequip(uint256)": "d179e3d0"
    },
    "gasEstimates": {
        "creation": {
            "codeDepositCost": "492400",
            "executionCost": "infinite",
            "totalCost": "infinite"
        },
        "external": {
            "accept_duel(address)": "infinite",
            "attack_monster(uint256)": "infinite",
            "equip(uint256)": "infinite",
            "invite_duel(address)": "53401",
            "reborn()": "infinite",
            "reject_duel(address)": "51201",
            "unequip(uint256)": "infinite"
        }
    }
}