{
  "_format": "hh-sol-artifact-1",
  "contractName": "GameItems",
  "sourceName": "contracts/GameItems.sol",
  "abi": [
    {
      "inputs": [],
      "stateMutability": "nonpayable",
      "type": "constructor"
    },
    {
      "anonymous": false,
      "inputs": [
        {
          "indexed": true,
          "internalType": "address",
          "name": "account",
          "type": "address"
        },
        {
          "indexed": true,
          "internalType": "address",
          "name": "operator",
          "type": "address"
        },
        {
          "indexed": false,
          "internalType": "bool",
          "name": "approved",
          "type": "bool"
        }
      ],
      "name": "ApprovalForAll",
      "type": "event"
    },
    {
      "anonymous": false,
      "inputs": [
        {
          "indexed": true,
          "internalType": "address",
          "name": "operator",
          "type": "address"
        },
        {
          "indexed": true,
          "internalType": "address",
          "name": "from",
          "type": "address"
        },
        {
          "indexed": true,
          "internalType": "address",
          "name": "to",
          "type": "address"
        },
        {
          "indexed": false,
          "internalType": "uint256[]",
          "name": "ids",
          "type": "uint256[]"
        },
        {
          "indexed": false,
          "internalType": "uint256[]",
          "name": "values",
          "type": "uint256[]"
        }
      ],
      "name": "TransferBatch",
      "type": "event"
    },
    {
      "anonymous": false,
      "inputs": [
        {
          "indexed": true,
          "internalType": "address",
          "name": "operator",
          "type": "address"
        },
        {
          "indexed": true,
          "internalType": "address",
          "name": "from",
          "type": "address"
        },
        {
          "indexed": true,
          "internalType": "address",
          "name": "to",
          "type": "address"
        },
        {
          "indexed": false,
          "internalType": "uint256",
          "name": "id",
          "type": "uint256"
        },
        {
          "indexed": false,
          "internalType": "uint256",
          "name": "value",
          "type": "uint256"
        }
      ],
      "name": "TransferSingle",
      "type": "event"
    },
    {
      "anonymous": false,
      "inputs": [
        {
          "indexed": false,
          "internalType": "string",
          "name": "value",
          "type": "string"
        },
        {
          "indexed": true,
          "internalType": "uint256",
          "name": "id",
          "type": "uint256"
        }
      ],
      "name": "URI",
      "type": "event"
    },
    {
      "inputs": [],
      "name": "GOLD",
      "outputs": [
        {
          "internalType": "uint256",
          "name": "",
          "type": "uint256"
        }
      ],
      "stateMutability": "view",
      "type": "function"
    },
    {
      "inputs": [],
      "name": "NEW_SWORD",
      "outputs": [
        {
          "internalType": "uint256",
          "name": "",
          "type": "uint256"
        }
      ],
      "stateMutability": "view",
      "type": "function"
    },
    {
      "inputs": [],
      "name": "SILVER",
      "outputs": [
        {
          "internalType": "uint256",
          "name": "",
          "type": "uint256"
        }
      ],
      "stateMutability": "view",
      "type": "function"
    },
    {
      "inputs": [
        {
          "internalType": "address",
          "name": "account",
          "type": "address"
        },
        {
          "internalType": "uint256",
          "name": "id",
          "type": "uint256"
        }
      ],
      "name": "balanceOf",
      "outputs": [
        {
          "internalType": "uint256",
          "name": "",
          "type": "uint256"
        }
      ],
      "stateMutability": "view",
      "type": "function"
    },
    {
      "inputs": [
        {
          "internalType": "address[]",
          "name": "accounts",
          "type": "address[]"
        },
        {
          "internalType": "uint256[]",
          "name": "ids",
          "type": "uint256[]"
        }
      ],
      "name": "balanceOfBatch",
      "outputs": [
        {
          "internalType": "uint256[]",
          "name": "",
          "type": "uint256[]"
        }
      ],
      "stateMutability": "view",
      "type": "function"
    },
    {
      "inputs": [],
      "name": "equipment_counter",
      "outputs": [
        {
          "internalType": "uint256",
          "name": "",
          "type": "uint256"
        }
      ],
      "stateMutability": "view",
      "type": "function"
    },
    {
      "inputs": [],
      "name": "equipment_maximum_attack",
      "outputs": [
        {
          "internalType": "uint256",
          "name": "",
          "type": "uint256"
        }
      ],
      "stateMutability": "view",
      "type": "function"
    },
    {
      "inputs": [],
      "name": "equipment_minimum_attack",
      "outputs": [
        {
          "internalType": "uint256",
          "name": "",
          "type": "uint256"
        }
      ],
      "stateMutability": "view",
      "type": "function"
    },
    {
      "inputs": [
        {
          "internalType": "uint256",
          "name": "upperBoundary",
          "type": "uint256"
        }
      ],
      "name": "get_random",
      "outputs": [
        {
          "internalType": "uint256",
          "name": "",
          "type": "uint256"
        }
      ],
      "stateMutability": "nonpayable",
      "type": "function"
    },
    {
      "inputs": [
        {
          "internalType": "address",
          "name": "account",
          "type": "address"
        },
        {
          "internalType": "address",
          "name": "operator",
          "type": "address"
        }
      ],
      "name": "isApprovedForAll",
      "outputs": [
        {
          "internalType": "bool",
          "name": "",
          "type": "bool"
        }
      ],
      "stateMutability": "view",
      "type": "function"
    },
    {
      "inputs": [],
      "name": "new_sword_attack",
      "outputs": [
        {
          "internalType": "uint256",
          "name": "",
          "type": "uint256"
        }
      ],
      "stateMutability": "view",
      "type": "function"
    },
    {
      "inputs": [],
      "name": "random",
      "outputs": [
        {
          "internalType": "contract Random",
          "name": "",
          "type": "address"
        }
      ],
      "stateMutability": "view",
      "type": "function"
    },
    {
      "inputs": [
        {
          "internalType": "address",
          "name": "from",
          "type": "address"
        },
        {
          "internalType": "address",
          "name": "to",
          "type": "address"
        },
        {
          "internalType": "uint256[]",
          "name": "ids",
          "type": "uint256[]"
        },
        {
          "internalType": "uint256[]",
          "name": "amounts",
          "type": "uint256[]"
        },
        {
          "internalType": "bytes",
          "name": "data",
          "type": "bytes"
        }
      ],
      "name": "safeBatchTransferFrom",
      "outputs": [],
      "stateMutability": "nonpayable",
      "type": "function"
    },
    {
      "inputs": [
        {
          "internalType": "address",
          "name": "from",
          "type": "address"
        },
        {
          "internalType": "address",
          "name": "to",
          "type": "address"
        },
        {
          "internalType": "uint256",
          "name": "id",
          "type": "uint256"
        },
        {
          "internalType": "uint256",
          "name": "amount",
          "type": "uint256"
        },
        {
          "internalType": "bytes",
          "name": "data",
          "type": "bytes"
        }
      ],
      "name": "safeTransferFrom",
      "outputs": [],
      "stateMutability": "nonpayable",
      "type": "function"
    },
    {
      "inputs": [
        {
          "internalType": "address",
          "name": "operator",
          "type": "address"
        },
        {
          "internalType": "bool",
          "name": "approved",
          "type": "bool"
        }
      ],
      "name": "setApprovalForAll",
      "outputs": [],
      "stateMutability": "nonpayable",
      "type": "function"
    },
    {
      "inputs": [
        {
          "internalType": "bytes4",
          "name": "interfaceId",
          "type": "bytes4"
        }
      ],
      "name": "supportsInterface",
      "outputs": [
        {
          "internalType": "bool",
          "name": "",
          "type": "bool"
        }
      ],
      "stateMutability": "view",
      "type": "function"
    },
    {
      "inputs": [
        {
          "internalType": "uint256",
          "name": "",
          "type": "uint256"
        }
      ],
      "name": "uri",
      "outputs": [
        {
          "internalType": "string",
          "name": "",
          "type": "string"
        }
      ],
      "stateMutability": "view",
      "type": "function"
    }
  ],
  "bytecode": "0x60806040526003600455600c600555600860065560086007556040518060400160405280600981526020017f65717569706d656e7400000000000000000000000000000000000000000000008152506009908051906020019062000065929190620000c3565b503480156200007357600080fd5b50600654604051806020016040528060008152506200009881620000a760201b60201c565b508060038190555050620001d8565b8060029080519060200190620000bf929190620000c3565b5050565b828054620000d19062000173565b90600052602060002090601f016020900481019282620000f5576000855562000141565b82601f106200011057805160ff191683800117855562000141565b8280016001018555821562000141579182015b828111156200014057825182559160200191906001019062000123565b5b50905062000150919062000154565b5090565b5b808211156200016f57600081600090555060010162000155565b5090565b600060028204905060018216806200018c57607f821691505b60208210811415620001a357620001a2620001a9565b5b50919050565b7f4e487b7100000000000000000000000000000000000000000000000000000000600052602260045260246000fd5b61298080620001e86000396000f3fe608060405234801561001057600080fd5b506004361061010a5760003560e01c80635ec01e4d116100a2578063c5897d5b11610071578063c5897d5b146102bb578063cf7d325f146102d9578063e3e55f0814610309578063e985e9c514610327578063f242432a146103575761010a565b80635ec01e4d14610245578063a22cb46514610263578063adab72bb1461027f578063bfe58d4f1461029d5761010a565b80633e4bee38116100de5780633e4bee38146101bb5780634e1273f4146101d9578063500e9fdc146102095780635163191f146102275761010a565b8062fdd58e1461010f57806301ffc9a71461013f5780630e89341c1461016f5780632eb2c2d61461019f575b600080fd5b61012960048036038101906101249190611a33565b610373565b60405161013691906120cc565b60405180910390f35b61015960048036038101906101549190611adb565b61043c565b6040516101669190611f34565b60405180910390f35b61018960048036038101906101849190611b2d565b61051e565b6040516101969190611f6a565b60405180910390f35b6101b960048036038101906101b491906118a9565b6105b2565b005b6101c3610653565b6040516101d091906120cc565b60405180910390f35b6101f360048036038101906101ee9190611a6f565b610658565b6040516102009190611edb565b60405180910390f35b610211610809565b60405161021e91906120cc565b60405180910390f35b61022f61080f565b60405161023c91906120cc565b60405180910390f35b61024d610814565b60405161025a9190611f4f565b60405180910390f35b61027d600480360381019061027891906119f7565b61083a565b005b610287610850565b60405161029491906120cc565b60405180910390f35b6102a5610856565b6040516102b291906120cc565b60405180910390f35b6102c361085c565b6040516102d091906120cc565b60405180910390f35b6102f360048036038101906102ee9190611b2d565b610862565b60405161030091906120cc565b60405180910390f35b6103116108b6565b60405161031e91906120cc565b60405180910390f35b610341600480360381019061033c919061186d565b6108bb565b60405161034e9190611f34565b60405180910390f35b610371600480360381019061036c9190611968565b61094f565b005b60008073ffffffffffffffffffffffffffffffffffffffff168373ffffffffffffffffffffffffffffffffffffffff1614156103e4576040517f08c379a00000000000000000000000000000000000000000000000000000000081526004016103db90611fcc565b60405180910390fd5b60008083815260200190815260200160002060008473ffffffffffffffffffffffffffffffffffffffff1673ffffffffffffffffffffffffffffffffffffffff16815260200190815260200160002054905092915050565b60007fd9b67a26000000000000000000000000000000000000000000000000000000007bffffffffffffffffffffffffffffffffffffffffffffffffffffffff1916827bffffffffffffffffffffffffffffffffffffffffffffffffffffffff1916148061050757507f0e89341c000000000000000000000000000000000000000000000000000000007bffffffffffffffffffffffffffffffffffffffffffffffffffffffff1916827bffffffffffffffffffffffffffffffffffffffffffffffffffffffff1916145b806105175750610516826109f0565b5b9050919050565b60606002805461052d9061235f565b80601f01602080910402602001604051908101604052809291908181526020018280546105599061235f565b80156105a65780601f1061057b576101008083540402835291602001916105a6565b820191906000526020600020905b81548152906001019060200180831161058957829003601f168201915b50505050509050919050565b6105ba610a5a565b73ffffffffffffffffffffffffffffffffffffffff168573ffffffffffffffffffffffffffffffffffffffff16148061060057506105ff856105fa610a5a565b6108bb565b5b61063f576040517f08c379a00000000000000000000000000000000000000000000000000000000081526004016106369061202c565b60405180910390fd5b61064c8585858585610a62565b5050505050565b600081565b6060815183511461069e576040517f08c379a00000000000000000000000000000000000000000000000000000000081526004016106959061208c565b60405180910390fd5b6000835167ffffffffffffffff8111156106e1577f4e487b7100000000000000000000000000000000000000000000000000000000600052604160045260246000fd5b60405190808252806020026020018201604052801561070f5781602001602082028036833780820191505090505b50905060005b84518110156107fe576107a885828151811061075a577f4e487b7100000000000000000000000000000000000000000000000000000000600052603260045260246000fd5b602002602001015185838151811061079b577f4e487b7100000000000000000000000000000000000000000000000000000000600052603260045260246000fd5b6020026020010151610373565b8282815181106107e1577f4e487b7100000000000000000000000000000000000000000000000000000000600052603260045260246000fd5b602002602001018181525050806107f7906123c2565b9050610715565b508091505092915050565b60065481565b600281565b600860009054906101000a900473ffffffffffffffffffffffffffffffffffffffff1681565b61084c610845610a5a565b8383610dc2565b5050565b60045481565b60055481565b60075481565b60008160036000815480929190610878906123c2565b9190505560405160200161088c9190611dfe565b6040516020818303038152906040528051906020012060001c6108af9190612415565b9050919050565b600181565b6000600160008473ffffffffffffffffffffffffffffffffffffffff1673ffffffffffffffffffffffffffffffffffffffff16815260200190815260200160002060008373ffffffffffffffffffffffffffffffffffffffff1673ffffffffffffffffffffffffffffffffffffffff16815260200190815260200160002060009054906101000a900460ff16905092915050565b610957610a5a565b73ffffffffffffffffffffffffffffffffffffffff168573ffffffffffffffffffffffffffffffffffffffff16148061099d575061099c85610997610a5a565b6108bb565b5b6109dc576040517f08c379a00000000000000000000000000000000000000000000000000000000081526004016109d390611fec565b60405180910390fd5b6109e98585858585610f2f565b5050505050565b60007f01ffc9a7000000000000000000000000000000000000000000000000000000007bffffffffffffffffffffffffffffffffffffffffffffffffffffffff1916827bffffffffffffffffffffffffffffffffffffffffffffffffffffffff1916149050919050565b600033905090565b8151835114610aa6576040517f08c379a0000000000000000000000000000000000000000000000000000000008152600401610a9d906120ac565b60405180910390fd5b600073ffffffffffffffffffffffffffffffffffffffff168473ffffffffffffffffffffffffffffffffffffffff161415610b16576040517f08c379a0000000000000000000000000000000000000000000000000000000008152600401610b0d9061200c565b60405180910390fd5b6000610b20610a5a565b9050610b308187878787876111b1565b60005b8451811015610d2d576000858281518110610b77577f4e487b7100000000000000000000000000000000000000000000000000000000600052603260045260246000fd5b602002602001015190506000858381518110610bbc577f4e487b7100000000000000000000000000000000000000000000000000000000600052603260045260246000fd5b60200260200101519050600080600084815260200190815260200160002060008b73ffffffffffffffffffffffffffffffffffffffff1673ffffffffffffffffffffffffffffffffffffffff16815260200190815260200160002054905081811015610c5d576040517f08c379a0000000000000000000000000000000000000000000000000000000008152600401610c549061204c565b60405180910390fd5b81810360008085815260200190815260200160002060008c73ffffffffffffffffffffffffffffffffffffffff1673ffffffffffffffffffffffffffffffffffffffff168152602001908152602001600020819055508160008085815260200190815260200160002060008b73ffffffffffffffffffffffffffffffffffffffff1673ffffffffffffffffffffffffffffffffffffffff1681526020019081526020016000206000828254610d12919061222f565b9250508190555050505080610d26906123c2565b9050610b33565b508473ffffffffffffffffffffffffffffffffffffffff168673ffffffffffffffffffffffffffffffffffffffff168273ffffffffffffffffffffffffffffffffffffffff167f4a39dc06d4c0dbc64b70af90fd698a233a518aa5d07e595d983b8c0526c8f7fb8787604051610da4929190611efd565b60405180910390a4610dba8187878787876111b9565b505050505050565b8173ffffffffffffffffffffffffffffffffffffffff168373ffffffffffffffffffffffffffffffffffffffff161415610e31576040517f08c379a0000000000000000000000000000000000000000000000000000000008152600401610e289061206c565b60405180910390fd5b80600160008573ffffffffffffffffffffffffffffffffffffffff1673ffffffffffffffffffffffffffffffffffffffff16815260200190815260200160002060008473ffffffffffffffffffffffffffffffffffffffff1673ffffffffffffffffffffffffffffffffffffffff16815260200190815260200160002060006101000a81548160ff0219169083151502179055508173ffffffffffffffffffffffffffffffffffffffff168373ffffffffffffffffffffffffffffffffffffffff167f17307eab39ab6107e8899845ad3d59bd9653f200f220920489ca2b5937696c3183604051610f229190611f34565b60405180910390a3505050565b600073ffffffffffffffffffffffffffffffffffffffff168473ffffffffffffffffffffffffffffffffffffffff161415610f9f576040517f08c379a0000000000000000000000000000000000000000000000000000000008152600401610f969061200c565b60405180910390fd5b6000610fa9610a5a565b9050610fc9818787610fba886113a0565b610fc3886113a0565b876111b1565b600080600086815260200190815260200160002060008873ffffffffffffffffffffffffffffffffffffffff1673ffffffffffffffffffffffffffffffffffffffff16815260200190815260200160002054905083811015611060576040517f08c379a00000000000000000000000000000000000000000000000000000000081526004016110579061204c565b60405180910390fd5b83810360008087815260200190815260200160002060008973ffffffffffffffffffffffffffffffffffffffff1673ffffffffffffffffffffffffffffffffffffffff168152602001908152602001600020819055508360008087815260200190815260200160002060008873ffffffffffffffffffffffffffffffffffffffff1673ffffffffffffffffffffffffffffffffffffffff1681526020019081526020016000206000828254611115919061222f565b925050819055508573ffffffffffffffffffffffffffffffffffffffff168773ffffffffffffffffffffffffffffffffffffffff168373ffffffffffffffffffffffffffffffffffffffff167fc3d58168c5ae7397731d063d5bbf3d657854427343f4c083240f7aacaa2d0f6288886040516111929291906120e7565b60405180910390a46111a8828888888888611466565b50505050505050565b505050505050565b6111d88473ffffffffffffffffffffffffffffffffffffffff1661164d565b15611398578373ffffffffffffffffffffffffffffffffffffffff1663bc197c8187878686866040518663ffffffff1660e01b815260040161121e959493929190611e19565b602060405180830381600087803b15801561123857600080fd5b505af192505050801561126957506040513d601f19601f820116820180604052508101906112669190611b04565b60015b61130f57611275612502565b806308c379a014156112d2575061128a612858565b8061129557506112d4565b806040517f08c379a00000000000000000000000000000000000000000000000000000000081526004016112c99190611f6a565b60405180910390fd5b505b6040517f08c379a000000000000000000000000000000000000000000000000000000000815260040161130690611f8c565b60405180910390fd5b63bc197c8160e01b7bffffffffffffffffffffffffffffffffffffffffffffffffffffffff1916817bffffffffffffffffffffffffffffffffffffffffffffffffffffffff191614611396576040517f08c379a000000000000000000000000000000000000000000000000000000000815260040161138d90611fac565b60405180910390fd5b505b505050505050565b60606000600167ffffffffffffffff8111156113e5577f4e487b7100000000000000000000000000000000000000000000000000000000600052604160045260246000fd5b6040519080825280602002602001820160405280156114135781602001602082028036833780820191505090505b5090508281600081518110611451577f4e487b7100000000000000000000000000000000000000000000000000000000600052603260045260246000fd5b60200260200101818152505080915050919050565b6114858473ffffffffffffffffffffffffffffffffffffffff1661164d565b15611645578373ffffffffffffffffffffffffffffffffffffffff1663f23a6e6187878686866040518663ffffffff1660e01b81526004016114cb959493929190611e81565b602060405180830381600087803b1580156114e557600080fd5b505af192505050801561151657506040513d601f19601f820116820180604052508101906115139190611b04565b60015b6115bc57611522612502565b806308c379a0141561157f5750611537612858565b806115425750611581565b806040517f08c379a00000000000000000000000000000000000000000000000000000000081526004016115769190611f6a565b60405180910390fd5b505b6040517f08c379a00000000000000000000000000000000000000000000000000000000081526004016115b390611f8c565b60405180910390fd5b63f23a6e6160e01b7bffffffffffffffffffffffffffffffffffffffffffffffffffffffff1916817bffffffffffffffffffffffffffffffffffffffffffffffffffffffff191614611643576040517f08c379a000000000000000000000000000000000000000000000000000000000815260040161163a90611fac565b60405180910390fd5b505b505050505050565b6000808273ffffffffffffffffffffffffffffffffffffffff163b119050919050565b600061168361167e84612135565b612110565b905080838252602082019050828560208602820111156116a257600080fd5b60005b858110156116d257816116b88882611786565b8452602084019350602083019250506001810190506116a5565b5050509392505050565b60006116ef6116ea84612161565b612110565b9050808382526020820190508285602086028201111561170e57600080fd5b60005b8581101561173e57816117248882611858565b845260208401935060208301925050600181019050611711565b5050509392505050565b600061175b6117568461218d565b612110565b90508281526020810184848401111561177357600080fd5b61177e84828561231d565b509392505050565b600081359050611795816128ee565b92915050565b600082601f8301126117ac57600080fd5b81356117bc848260208601611670565b91505092915050565b600082601f8301126117d657600080fd5b81356117e68482602086016116dc565b91505092915050565b6000813590506117fe81612905565b92915050565b6000813590506118138161291c565b92915050565b6000815190506118288161291c565b92915050565b600082601f83011261183f57600080fd5b813561184f848260208601611748565b91505092915050565b60008135905061186781612933565b92915050565b6000806040838503121561188057600080fd5b600061188e85828601611786565b925050602061189f85828601611786565b9150509250929050565b600080600080600060a086880312156118c157600080fd5b60006118cf88828901611786565b95505060206118e088828901611786565b945050604086013567ffffffffffffffff8111156118fd57600080fd5b611909888289016117c5565b935050606086013567ffffffffffffffff81111561192657600080fd5b611932888289016117c5565b925050608086013567ffffffffffffffff81111561194f57600080fd5b61195b8882890161182e565b9150509295509295909350565b600080600080600060a0868803121561198057600080fd5b600061198e88828901611786565b955050602061199f88828901611786565b94505060406119b088828901611858565b93505060606119c188828901611858565b925050608086013567ffffffffffffffff8111156119de57600080fd5b6119ea8882890161182e565b9150509295509295909350565b60008060408385031215611a0a57600080fd5b6000611a1885828601611786565b9250506020611a29858286016117ef565b9150509250929050565b60008060408385031215611a4657600080fd5b6000611a5485828601611786565b9250506020611a6585828601611858565b9150509250929050565b60008060408385031215611a8257600080fd5b600083013567ffffffffffffffff811115611a9c57600080fd5b611aa88582860161179b565b925050602083013567ffffffffffffffff811115611ac557600080fd5b611ad1858286016117c5565b9150509250929050565b600060208284031215611aed57600080fd5b6000611afb84828501611804565b91505092915050565b600060208284031215611b1657600080fd5b6000611b2484828501611819565b91505092915050565b600060208284031215611b3f57600080fd5b6000611b4d84828501611858565b91505092915050565b6000611b628383611dc9565b60208301905092915050565b611b7781612285565b82525050565b6000611b88826121ce565b611b9281856121fc565b9350611b9d836121be565b8060005b83811015611bce578151611bb58882611b56565b9750611bc0836121ef565b925050600181019050611ba1565b5085935050505092915050565b611be481612297565b82525050565b6000611bf5826121d9565b611bff818561220d565b9350611c0f81856020860161232c565b611c1881612524565b840191505092915050565b611c2c816122f9565b82525050565b6000611c3d826121e4565b611c47818561221e565b9350611c5781856020860161232c565b611c6081612524565b840191505092915050565b6000611c7860348361221e565b9150611c8382612542565b604082019050919050565b6000611c9b60288361221e565b9150611ca682612591565b604082019050919050565b6000611cbe602b8361221e565b9150611cc9826125e0565b604082019050919050565b6000611ce160298361221e565b9150611cec8261262f565b604082019050919050565b6000611d0460258361221e565b9150611d0f8261267e565b604082019050919050565b6000611d2760328361221e565b9150611d32826126cd565b604082019050919050565b6000611d4a602a8361221e565b9150611d558261271c565b604082019050919050565b6000611d6d60298361221e565b9150611d788261276b565b604082019050919050565b6000611d9060298361221e565b9150611d9b826127ba565b604082019050919050565b6000611db360288361221e565b9150611dbe82612809565b604082019050919050565b611dd2816122ef565b82525050565b611de1816122ef565b82525050565b611df8611df3826122ef565b61240b565b82525050565b6000611e0a8284611de7565b60208201915081905092915050565b600060a082019050611e2e6000830188611b6e565b611e3b6020830187611b6e565b8181036040830152611e4d8186611b7d565b90508181036060830152611e618185611b7d565b90508181036080830152611e758184611bea565b90509695505050505050565b600060a082019050611e966000830188611b6e565b611ea36020830187611b6e565b611eb06040830186611dd8565b611ebd6060830185611dd8565b8181036080830152611ecf8184611bea565b90509695505050505050565b60006020820190508181036000830152611ef58184611b7d565b905092915050565b60006040820190508181036000830152611f178185611b7d565b90508181036020830152611f2b8184611b7d565b90509392505050565b6000602082019050611f496000830184611bdb565b92915050565b6000602082019050611f646000830184611c23565b92915050565b60006020820190508181036000830152611f848184611c32565b905092915050565b60006020820190508181036000830152611fa581611c6b565b9050919050565b60006020820190508181036000830152611fc581611c8e565b9050919050565b60006020820190508181036000830152611fe581611cb1565b9050919050565b6000602082019050818103600083015261200581611cd4565b9050919050565b6000602082019050818103600083015261202581611cf7565b9050919050565b6000602082019050818103600083015261204581611d1a565b9050919050565b6000602082019050818103600083015261206581611d3d565b9050919050565b6000602082019050818103600083015261208581611d60565b9050919050565b600060208201905081810360008301526120a581611d83565b9050919050565b600060208201905081810360008301526120c581611da6565b9050919050565b60006020820190506120e16000830184611dd8565b92915050565b60006040820190506120fc6000830185611dd8565b6121096020830184611dd8565b9392505050565b600061211a61212b565b90506121268282612391565b919050565b6000604051905090565b600067ffffffffffffffff8211156121505761214f6124d3565b5b602082029050602081019050919050565b600067ffffffffffffffff82111561217c5761217b6124d3565b5b602082029050602081019050919050565b600067ffffffffffffffff8211156121a8576121a76124d3565b5b6121b182612524565b9050602081019050919050565b6000819050602082019050919050565b600081519050919050565b600081519050919050565b600081519050919050565b6000602082019050919050565b600082825260208201905092915050565b600082825260208201905092915050565b600082825260208201905092915050565b600061223a826122ef565b9150612245836122ef565b9250827fffffffffffffffffffffffffffffffffffffffffffffffffffffffffffffffff0382111561227a57612279612446565b5b828201905092915050565b6000612290826122cf565b9050919050565b60008115159050919050565b60007fffffffff0000000000000000000000000000000000000000000000000000000082169050919050565b600073ffffffffffffffffffffffffffffffffffffffff82169050919050565b6000819050919050565b60006123048261230b565b9050919050565b6000612316826122cf565b9050919050565b82818337600083830152505050565b60005b8381101561234a57808201518184015260208101905061232f565b83811115612359576000848401525b50505050565b6000600282049050600182168061237757607f821691505b6020821081141561238b5761238a6124a4565b5b50919050565b61239a82612524565b810181811067ffffffffffffffff821117156123b9576123b86124d3565b5b80604052505050565b60006123cd826122ef565b91507fffffffffffffffffffffffffffffffffffffffffffffffffffffffffffffffff821415612400576123ff612446565b5b600182019050919050565b6000819050919050565b6000612420826122ef565b915061242b836122ef565b92508261243b5761243a612475565b5b828206905092915050565b7f4e487b7100000000000000000000000000000000000000000000000000000000600052601160045260246000fd5b7f4e487b7100000000000000000000000000000000000000000000000000000000600052601260045260246000fd5b7f4e487b7100000000000000000000000000000000000000000000000000000000600052602260045260246000fd5b7f4e487b7100000000000000000000000000000000000000000000000000000000600052604160045260246000fd5b600060033d11156125215760046000803e61251e600051612535565b90505b90565b6000601f19601f8301169050919050565b60008160e01c9050919050565b7f455243313135353a207472616e7366657220746f206e6f6e204552433131353560008201527f526563656976657220696d706c656d656e746572000000000000000000000000602082015250565b7f455243313135353a204552433131353552656365697665722072656a6563746560008201527f6420746f6b656e73000000000000000000000000000000000000000000000000602082015250565b7f455243313135353a2062616c616e636520717565727920666f7220746865207a60008201527f65726f2061646472657373000000000000000000000000000000000000000000602082015250565b7f455243313135353a2063616c6c6572206973206e6f74206f776e6572206e6f7260008201527f20617070726f7665640000000000000000000000000000000000000000000000602082015250565b7f455243313135353a207472616e7366657220746f20746865207a65726f20616460008201527f6472657373000000000000000000000000000000000000000000000000000000602082015250565b7f455243313135353a207472616e736665722063616c6c6572206973206e6f742060008201527f6f776e6572206e6f7220617070726f7665640000000000000000000000000000602082015250565b7f455243313135353a20696e73756666696369656e742062616c616e636520666f60008201527f72207472616e7366657200000000000000000000000000000000000000000000602082015250565b7f455243313135353a2073657474696e6720617070726f76616c2073746174757360008201527f20666f722073656c660000000000000000000000000000000000000000000000602082015250565b7f455243313135353a206163636f756e747320616e6420696473206c656e67746860008201527f206d69736d617463680000000000000000000000000000000000000000000000602082015250565b7f455243313135353a2069647320616e6420616d6f756e7473206c656e6774682060008201527f6d69736d61746368000000000000000000000000000000000000000000000000602082015250565b600060443d1015612868576128eb565b61287061212b565b60043d036004823e80513d602482011167ffffffffffffffff821117156128985750506128eb565b808201805167ffffffffffffffff8111156128b657505050506128eb565b80602083010160043d0385018111156128d35750505050506128eb565b6128e282602001850186612391565b82955050505050505b90565b6128f781612285565b811461290257600080fd5b50565b61290e81612297565b811461291957600080fd5b50565b612925816122a3565b811461293057600080fd5b50565b61293c816122ef565b811461294757600080fd5b5056fea264697066735822122041f0dddd464c578fe5c034dc3d8334bba6163dcc62c7992c1b1428574fa913e664736f6c63430008010033",
  "linkReferences": {},
  "deployedLinkReferences": {}
}