{
  "_format": "hh-sol-artifact-1",
  "contractName": "Game",
  "sourceName": "contracts/Game.sol",
  "abi": [
    {
      "anonymous": false,
      "inputs": [
        {
          "indexed": true,
          "internalType": "address",
          "name": "account",
          "type": "address"
        },
        {
          "indexed": true,
          "internalType": "address",
          "name": "operator",
          "type": "address"
        },
        {
          "indexed": false,
          "internalType": "bool",
          "name": "approved",
          "type": "bool"
        }
      ],
      "name": "ApprovalForAll",
      "type": "event"
    },
    {
      "anonymous": false,
      "inputs": [
        {
          "indexed": true,
          "internalType": "address",
          "name": "operator",
          "type": "address"
        },
        {
          "indexed": true,
          "internalType": "address",
          "name": "from",
          "type": "address"
        },
        {
          "indexed": true,
          "internalType": "address",
          "name": "to",
          "type": "address"
        },
        {
          "indexed": false,
          "internalType": "uint256[]",
          "name": "ids",
          "type": "uint256[]"
        },
        {
          "indexed": false,
          "internalType": "uint256[]",
          "name": "values",
          "type": "uint256[]"
        }
      ],
      "name": "TransferBatch",
      "type": "event"
    },
    {
      "anonymous": false,
      "inputs": [
        {
          "indexed": true,
          "internalType": "address",
          "name": "operator",
          "type": "address"
        },
        {
          "indexed": true,
          "internalType": "address",
          "name": "from",
          "type": "address"
        },
        {
          "indexed": true,
          "internalType": "address",
          "name": "to",
          "type": "address"
        },
        {
          "indexed": false,
          "internalType": "uint256",
          "name": "id",
          "type": "uint256"
        },
        {
          "indexed": false,
          "internalType": "uint256",
          "name": "value",
          "type": "uint256"
        }
      ],
      "name": "TransferSingle",
      "type": "event"
    },
    {
      "anonymous": false,
      "inputs": [
        {
          "indexed": false,
          "internalType": "string",
          "name": "value",
          "type": "string"
        },
        {
          "indexed": true,
          "internalType": "uint256",
          "name": "id",
          "type": "uint256"
        }
      ],
      "name": "URI",
      "type": "event"
    },
    {
      "inputs": [],
      "name": "GOLD",
      "outputs": [
        {
          "internalType": "uint256",
          "name": "",
          "type": "uint256"
        }
      ],
      "stateMutability": "view",
      "type": "function"
    },
    {
      "inputs": [],
      "name": "NEW_SWORD",
      "outputs": [
        {
          "internalType": "uint256",
          "name": "",
          "type": "uint256"
        }
      ],
      "stateMutability": "view",
      "type": "function"
    },
    {
      "inputs": [],
      "name": "SILVER",
      "outputs": [
        {
          "internalType": "uint256",
          "name": "",
          "type": "uint256"
        }
      ],
      "stateMutability": "view",
      "type": "function"
    },
    {
      "inputs": [
        {
          "internalType": "address",
          "name": "inviter",
          "type": "address"
        }
      ],
      "name": "accept_duel",
      "outputs": [
        {
          "internalType": "bool",
          "name": "result",
          "type": "bool"
        }
      ],
      "stateMutability": "nonpayable",
      "type": "function"
    },
    {
      "inputs": [
        {
          "internalType": "uint256",
          "name": "",
          "type": "uint256"
        }
      ],
      "name": "allMonsters",
      "outputs": [
        {
          "internalType": "uint256",
          "name": "attack",
          "type": "uint256"
        },
        {
          "internalType": "uint256",
          "name": "monster_current_health",
          "type": "uint256"
        },
        {
          "internalType": "string",
          "name": "monster_name",
          "type": "string"
        }
      ],
      "stateMutability": "view",
      "type": "function"
    },
    {
      "inputs": [
        {
          "internalType": "uint256",
          "name": "monster_id",
          "type": "uint256"
        }
      ],
      "name": "attack_monster",
      "outputs": [
        {
          "internalType": "bool",
          "name": "result",
          "type": "bool"
        }
      ],
      "stateMutability": "nonpayable",
      "type": "function"
    },
    {
      "inputs": [
        {
          "internalType": "address",
          "name": "account",
          "type": "address"
        },
        {
          "internalType": "uint256",
          "name": "id",
          "type": "uint256"
        }
      ],
      "name": "balanceOf",
      "outputs": [
        {
          "internalType": "uint256",
          "name": "",
          "type": "uint256"
        }
      ],
      "stateMutability": "view",
      "type": "function"
    },
    {
      "inputs": [
        {
          "internalType": "address[]",
          "name": "accounts",
          "type": "address[]"
        },
        {
          "internalType": "uint256[]",
          "name": "ids",
          "type": "uint256[]"
        }
      ],
      "name": "balanceOfBatch",
      "outputs": [
        {
          "internalType": "uint256[]",
          "name": "",
          "type": "uint256[]"
        }
      ],
      "stateMutability": "view",
      "type": "function"
    },
    {
      "inputs": [],
      "name": "create_monster",
      "outputs": [],
      "stateMutability": "nonpayable",
      "type": "function"
    },
    {
      "inputs": [
        {
          "internalType": "address",
          "name": "",
          "type": "address"
        }
      ],
      "name": "duel_match",
      "outputs": [
        {
          "internalType": "address",
          "name": "",
          "type": "address"
        }
      ],
      "stateMutability": "view",
      "type": "function"
    },
    {
      "inputs": [
        {
          "internalType": "uint256",
          "name": "equipment_id",
          "type": "uint256"
        }
      ],
      "name": "equip",
      "outputs": [],
      "stateMutability": "nonpayable",
      "type": "function"
    },
    {
      "inputs": [],
      "name": "equipment_counter",
      "outputs": [
        {
          "internalType": "uint256",
          "name": "",
          "type": "uint256"
        }
      ],
      "stateMutability": "view",
      "type": "function"
    },
    {
      "inputs": [],
      "name": "equipment_maximum_attack",
      "outputs": [
        {
          "internalType": "uint256",
          "name": "",
          "type": "uint256"
        }
      ],
      "stateMutability": "view",
      "type": "function"
    },
    {
      "inputs": [],
      "name": "equipment_minimum_attack",
      "outputs": [
        {
          "internalType": "uint256",
          "name": "",
          "type": "uint256"
        }
      ],
      "stateMutability": "view",
      "type": "function"
    },
    {
      "inputs": [],
      "name": "get_all_monster",
      "outputs": [
        {
          "components": [
            {
              "internalType": "uint256",
              "name": "attack",
              "type": "uint256"
            },
            {
              "internalType": "uint256",
              "name": "monster_current_health",
              "type": "uint256"
            },
            {
              "internalType": "string",
              "name": "monster_name",
              "type": "string"
            }
          ],
          "internalType": "struct IMonster.Monster[]",
          "name": "",
          "type": "tuple[]"
        }
      ],
      "stateMutability": "view",
      "type": "function"
    },
    {
      "inputs": [
        {
          "internalType": "address",
          "name": "addr",
          "type": "address"
        }
      ],
      "name": "get_attack",
      "outputs": [
        {
          "internalType": "uint256",
          "name": "",
          "type": "uint256"
        }
      ],
      "stateMutability": "view",
      "type": "function"
    },
    {
      "inputs": [
        {
          "internalType": "address",
          "name": "addr",
          "type": "address"
        }
      ],
      "name": "get_current_health",
      "outputs": [
        {
          "internalType": "uint256",
          "name": "",
          "type": "uint256"
        }
      ],
      "stateMutability": "view",
      "type": "function"
    },
    {
      "inputs": [
        {
          "internalType": "address",
          "name": "addr",
          "type": "address"
        }
      ],
      "name": "get_equip_id",
      "outputs": [
        {
          "internalType": "uint256",
          "name": "",
          "type": "uint256"
        }
      ],
      "stateMutability": "view",
      "type": "function"
    },
    {
      "inputs": [
        {
          "internalType": "address",
          "name": "addr",
          "type": "address"
        }
      ],
      "name": "get_is_pending",
      "outputs": [
        {
          "internalType": "bool",
          "name": "",
          "type": "bool"
        }
      ],
      "stateMutability": "view",
      "type": "function"
    },
    {
      "inputs": [
        {
          "internalType": "address",
          "name": "addr",
          "type": "address"
        }
      ],
      "name": "get_max_health",
      "outputs": [
        {
          "internalType": "uint256",
          "name": "",
          "type": "uint256"
        }
      ],
      "stateMutability": "view",
      "type": "function"
    },
    {
      "inputs": [
        {
          "internalType": "uint256",
          "name": "_index",
          "type": "uint256"
        }
      ],
      "name": "get_monster",
      "outputs": [
        {
          "components": [
            {
              "internalType": "uint256",
              "name": "attack",
              "type": "uint256"
            },
            {
              "internalType": "uint256",
              "name": "monster_current_health",
              "type": "uint256"
            },
            {
              "internalType": "string",
              "name": "monster_name",
              "type": "string"
            }
          ],
          "internalType": "struct IMonster.Monster",
          "name": "name",
          "type": "tuple"
        }
      ],
      "stateMutability": "view",
      "type": "function"
    },
    {
      "inputs": [
        {
          "internalType": "uint256",
          "name": "upperBoundary",
          "type": "uint256"
        }
      ],
      "name": "get_random",
      "outputs": [
        {
          "internalType": "uint256",
          "name": "",
          "type": "uint256"
        }
      ],
      "stateMutability": "nonpayable",
      "type": "function"
    },
    {
      "inputs": [
        {
          "internalType": "address",
          "name": "addr",
          "type": "address"
        }
      ],
      "name": "get_storage",
      "outputs": [
        {
          "components": [
            {
              "internalType": "uint256",
              "name": "sword_strength",
              "type": "uint256"
            },
            {
              "internalType": "uint256",
              "name": "id",
              "type": "uint256"
            },
            {
              "internalType": "string",
              "name": "equipment_name",
              "type": "string"
            }
          ],
          "internalType": "struct IPlayer.Equipment[]",
          "name": "",
          "type": "tuple[]"
        }
      ],
      "stateMutability": "view",
      "type": "function"
    },
    {
      "inputs": [
        {
          "internalType": "address",
          "name": "addr",
          "type": "address"
        }
      ],
      "name": "get_storage_len",
      "outputs": [
        {
          "internalType": "uint256",
          "name": "",
          "type": "uint256"
        }
      ],
      "stateMutability": "view",
      "type": "function"
    },
    {
      "inputs": [
        {
          "internalType": "string",
          "name": "_name",
          "type": "string"
        }
      ],
      "name": "initialize",
      "outputs": [],
      "stateMutability": "nonpayable",
      "type": "function"
    },
    {
      "inputs": [
        {
          "internalType": "address",
          "name": "invitee",
          "type": "address"
        }
      ],
      "name": "invite_duel",
      "outputs": [],
      "stateMutability": "nonpayable",
      "type": "function"
    },
    {
      "inputs": [
        {
          "internalType": "address",
          "name": "account",
          "type": "address"
        },
        {
          "internalType": "address",
          "name": "operator",
          "type": "address"
        }
      ],
      "name": "isApprovedForAll",
      "outputs": [
        {
          "internalType": "bool",
          "name": "",
          "type": "bool"
        }
      ],
      "stateMutability": "view",
      "type": "function"
    },
    {
      "inputs": [],
      "name": "is_pause",
      "outputs": [
        {
          "internalType": "bool",
          "name": "",
          "type": "bool"
        }
      ],
      "stateMutability": "view",
      "type": "function"
    },
    {
      "inputs": [
        {
          "internalType": "uint256",
          "name": "attack",
          "type": "uint256"
        },
        {
          "internalType": "uint256",
          "name": "monster_health",
          "type": "uint256"
        },
        {
          "internalType": "string",
          "name": "name",
          "type": "string"
        }
      ],
      "name": "mock_monster",
      "outputs": [],
      "stateMutability": "nonpayable",
      "type": "function"
    },
    {
      "inputs": [],
      "name": "monsterCounter",
      "outputs": [
        {
          "internalType": "uint256",
          "name": "",
          "type": "uint256"
        }
      ],
      "stateMutability": "view",
      "type": "function"
    },
    {
      "inputs": [],
      "name": "monster_maximum_attack",
      "outputs": [
        {
          "internalType": "uint256",
          "name": "",
          "type": "uint256"
        }
      ],
      "stateMutability": "view",
      "type": "function"
    },
    {
      "inputs": [],
      "name": "monster_maximum_health",
      "outputs": [
        {
          "internalType": "uint256",
          "name": "",
          "type": "uint256"
        }
      ],
      "stateMutability": "view",
      "type": "function"
    },
    {
      "inputs": [],
      "name": "monster_minimum_attack",
      "outputs": [
        {
          "internalType": "uint256",
          "name": "",
          "type": "uint256"
        }
      ],
      "stateMutability": "view",
      "type": "function"
    },
    {
      "inputs": [],
      "name": "new_sword_attack",
      "outputs": [
        {
          "internalType": "uint256",
          "name": "",
          "type": "uint256"
        }
      ],
      "stateMutability": "view",
      "type": "function"
    },
    {
      "inputs": [],
      "name": "pause",
      "outputs": [],
      "stateMutability": "nonpayable",
      "type": "function"
    },
    {
      "inputs": [
        {
          "internalType": "address",
          "name": "",
          "type": "address"
        }
      ],
      "name": "players",
      "outputs": [
        {
          "internalType": "uint256",
          "name": "attack",
          "type": "uint256"
        },
        {
          "internalType": "uint256",
          "name": "max_health",
          "type": "uint256"
        },
        {
          "internalType": "uint256",
          "name": "current_health",
          "type": "uint256"
        },
        {
          "internalType": "string",
          "name": "player_name",
          "type": "string"
        },
        {
          "components": [
            {
              "internalType": "uint256",
              "name": "sword_strength",
              "type": "uint256"
            },
            {
              "internalType": "uint256",
              "name": "id",
              "type": "uint256"
            },
            {
              "internalType": "string",
              "name": "equipment_name",
              "type": "string"
            }
          ],
          "internalType": "struct IPlayer.Equipment",
          "name": "equipment",
          "type": "tuple"
        },
        {
          "internalType": "bool",
          "name": "is_pending",
          "type": "bool"
        },
        {
          "internalType": "bool",
          "name": "is_initialized",
          "type": "bool"
        }
      ],
      "stateMutability": "view",
      "type": "function"
    },
    {
      "inputs": [],
      "name": "random",
      "outputs": [
        {
          "internalType": "contract Random",
          "name": "",
          "type": "address"
        }
      ],
      "stateMutability": "view",
      "type": "function"
    },
    {
      "inputs": [
        {
          "internalType": "address",
          "name": "inviter",
          "type": "address"
        }
      ],
      "name": "reject_duel",
      "outputs": [],
      "stateMutability": "nonpayable",
      "type": "function"
    },
    {
      "inputs": [
        {
          "internalType": "address",
          "name": "from",
          "type": "address"
        },
        {
          "internalType": "address",
          "name": "to",
          "type": "address"
        },
        {
          "internalType": "uint256[]",
          "name": "ids",
          "type": "uint256[]"
        },
        {
          "internalType": "uint256[]",
          "name": "amounts",
          "type": "uint256[]"
        },
        {
          "internalType": "bytes",
          "name": "data",
          "type": "bytes"
        }
      ],
      "name": "safeBatchTransferFrom",
      "outputs": [],
      "stateMutability": "nonpayable",
      "type": "function"
    },
    {
      "inputs": [
        {
          "internalType": "address",
          "name": "from",
          "type": "address"
        },
        {
          "internalType": "address",
          "name": "to",
          "type": "address"
        },
        {
          "internalType": "uint256",
          "name": "id",
          "type": "uint256"
        },
        {
          "internalType": "uint256",
          "name": "amount",
          "type": "uint256"
        },
        {
          "internalType": "bytes",
          "name": "data",
          "type": "bytes"
        }
      ],
      "name": "safeTransferFrom",
      "outputs": [],
      "stateMutability": "nonpayable",
      "type": "function"
    },
    {
      "inputs": [
        {
          "internalType": "address",
          "name": "operator",
          "type": "address"
        },
        {
          "internalType": "bool",
          "name": "approved",
          "type": "bool"
        }
      ],
      "name": "setApprovalForAll",
      "outputs": [],
      "stateMutability": "nonpayable",
      "type": "function"
    },
    {
      "inputs": [
        {
          "internalType": "address",
          "name": "addr",
          "type": "address"
        },
        {
          "internalType": "uint256",
          "name": "ch",
          "type": "uint256"
        }
      ],
      "name": "set_health",
      "outputs": [],
      "stateMutability": "nonpayable",
      "type": "function"
    },
    {
      "inputs": [
        {
          "internalType": "bytes4",
          "name": "interfaceId",
          "type": "bytes4"
        }
      ],
      "name": "supportsInterface",
      "outputs": [
        {
          "internalType": "bool",
          "name": "",
          "type": "bool"
        }
      ],
      "stateMutability": "view",
      "type": "function"
    },
    {
      "inputs": [],
      "name": "unequip",
      "outputs": [],
      "stateMutability": "nonpayable",
      "type": "function"
    },
    {
      "inputs": [],
      "name": "unpause",
      "outputs": [],
      "stateMutability": "nonpayable",
      "type": "function"
    },
    {
      "inputs": [
        {
          "internalType": "uint256",
          "name": "",
          "type": "uint256"
        }
      ],
      "name": "uri",
      "outputs": [
        {
          "internalType": "string",
          "name": "",
          "type": "string"
        }
      ],
      "stateMutability": "view",
      "type": "function"
    }
  ],
  "bytecode": "0x60806040526003600455600c600555600860065560086007556040518060400160405280600981526020017f65717569706d656e740000000000000000000000000000000000000000000000815250600990805190602001906200006592919062000483565b5060c8600c55600c600d556008600e556000600f60006101000a81548160ff0219169083151502179055506040518060600160405280600081526020016000815260200160405180602001604052806000815250815250601260008201518160000155602082015181600101556040820151816002019080519060200190620000f092919062000483565b5050503480156200010057600080fd5b506006546040518060200160405280600081525062000125816200014c60201b60201c565b5080600381905550506000600b81905550620001466200016860201b60201c565b62000891565b80600290805190602001906200016492919062000483565b5050565b60006200017d600d546200026760201b60201c565b9050600062000194600c546200026760201b60201c565b9050600a6040518060600160405280848152602001838152602001620001c7600b54620002c160201b620032c01760201c565b604051602001620001d99190620005ac565b6040516020818303038152906040528152509080600181540180825580915050600190039060005260206000209060030201600090919091909150600082015181600001556020820151816001015560408201518160020190805190602001906200024692919062000483565b505050600b60008154809291906200025e906200074b565b91905055505050565b600081600360008154809291906200027f906200074b565b91905055604051602001620002959190620005d2565b6040516020818303038152906040528051906020012060001c620002ba9190620007a3565b9050919050565b606060008214156200030b576040518060400160405280600181526020017f300000000000000000000000000000000000000000000000000000000000000081525090506200047e565b600082905060005b600082146200034357808062000329906200074b565b915050600a826200033b919062000662565b915062000313565b60008167ffffffffffffffff81111562000386577f4e487b7100000000000000000000000000000000000000000000000000000000600052604160045260246000fd5b6040519080825280601f01601f191660200182016040528015620003b95781602001600182028036833780820191505090505b5090505b600085146200047757600182620003d591906200069a565b9150600a85620003e69190620007a3565b6030620003f4919062000605565b60f81b81838151811062000431577f4e487b7100000000000000000000000000000000000000000000000000000000600052603260045260246000fd5b60200101907effffffffffffffffffffffffffffffffffffffffffffffffffffffffffffff1916908160001a905350600a856200046f919062000662565b9450620003bd565b8093505050505b919050565b828054620004919062000715565b90600052602060002090601f016020900481019282620004b5576000855562000501565b82601f10620004d057805160ff191683800117855562000501565b8280016001018555821562000501579182015b8281111562000500578251825591602001919060010190620004e3565b5b50905062000510919062000514565b5090565b5b808211156200052f57600081600090555060010162000515565b5090565b60006200054082620005ef565b6200054c8185620005fa565b93506200055e818560208601620006df565b80840191505092915050565b600062000579600783620005fa565b9150620005868262000868565b600782019050919050565b620005a6620005a082620006d5565b62000799565b82525050565b6000620005b9826200056a565b9150620005c7828462000533565b915081905092915050565b6000620005e0828462000591565b60208201915081905092915050565b600081519050919050565b600081905092915050565b60006200061282620006d5565b91506200061f83620006d5565b9250827fffffffffffffffffffffffffffffffffffffffffffffffffffffffffffffffff03821115620006575762000656620007db565b5b828201905092915050565b60006200066f82620006d5565b91506200067c83620006d5565b9250826200068f576200068e6200080a565b5b828204905092915050565b6000620006a782620006d5565b9150620006b483620006d5565b925082821015620006ca57620006c9620007db565b5b828203905092915050565b6000819050919050565b60005b83811015620006ff578082015181840152602081019050620006e2565b838111156200070f576000848401525b50505050565b600060028204905060018216806200072e57607f821691505b6020821081141562000745576200074462000839565b5b50919050565b60006200075882620006d5565b91507fffffffffffffffffffffffffffffffffffffffffffffffffffffffffffffffff8214156200078e576200078d620007db565b5b600182019050919050565b6000819050919050565b6000620007b082620006d5565b9150620007bd83620006d5565b925082620007d057620007cf6200080a565b5b828206905092915050565b7f4e487b7100000000000000000000000000000000000000000000000000000000600052601160045260246000fd5b7f4e487b7100000000000000000000000000000000000000000000000000000000600052601260045260246000fd5b7f4e487b7100000000000000000000000000000000000000000000000000000000600052602260045260246000fd5b7f6d6f6e7374657200000000000000000000000000000000000000000000000000600082015250565b616c5380620008a16000396000f3fe608060405234801561001057600080fd5b50600436106102895760003560e01c80639caa7fd01161015c578063cf7d325f116100ce578063e7ac8c6111610087578063e7ac8c61146107f6578063e985e9c514610826578063f242432a14610856578063f54ac0f614610872578063f62d1888146108a2578063ff5920a2146108be57610289565b8063cf7d325f146106f4578063de4e8b0d14610724578063e050af9414610756578063e1b9ea7f14610772578063e2eb41ff146107a2578063e3e55f08146107d857610289565b8063b719a9f111610120578063b719a9f114610644578063b85f802714610662578063b8f8fa171461067e578063b9c2edf7146106ae578063bfe58d4f146106b8578063c5897d5b146106d657610289565b80639caa7fd0146105b4578063a22cb465146105be578063adab72bb146105da578063b3c5495f146105f8578063b4c0e1b11461062857610289565b80634e9493a81161020057806368c405ef116101b957806368c405ef14610504578063710882a0146105225780637a2444e1146105525780637e14ab4a1461056e57806382b086841461058c5780638456cb59146105aa57610289565b80634e9493a814610452578063500e9fdc146104705780635163191f1461048e578063536d6f1f146104ac578063589f2674146104ca5780635ec01e4d146104e657610289565b80632d327d73116102525780632d327d731461037e5780632eb2c2d6146103ae578063355b0370146103ca5780633e4bee38146103fa5780633f4ba83a146104185780634e1273f41461042257610289565b8062fdd58e1461028e57806301ffc9a7146102be5780630486c2ed146102ee5780630e89341c1461031e5780631c6e74f21461034e575b600080fd5b6102a860048036038101906102a39190615210565b6108ee565b6040516102b59190615f4b565b60405180910390f35b6102d860048036038101906102d391906152b8565b6109b7565b6040516102e59190615cb1565b60405180910390f35b61030860048036038101906103039190615021565b610a99565b6040516103159190615f4b565b60405180910390f35b6103386004803603810190610333919061534b565b610ae8565b6040516103459190615ce7565b60405180910390f35b6103686004803603810190610363919061534b565b610b7c565b6040516103759190615f29565b60405180910390f35b61039860048036038101906103939190615021565b610c8a565b6040516103a59190615f4b565b60405180910390f35b6103c860048036038101906103c39190615086565b610cd6565b005b6103e460048036038101906103df919061534b565b610d77565b6040516103f19190615cb1565b60405180910390f35b610402611123565b60405161040f9190615f4b565b60405180910390f35b610420611128565b005b61043c6004803603810190610437919061524c565b611145565b6040516104499190615c58565b60405180910390f35b61045a6112f6565b6040516104679190615f4b565b60405180910390f35b6104786112fc565b6040516104859190615f4b565b60405180910390f35b610496611302565b6040516104a39190615f4b565b60405180910390f35b6104b4611307565b6040516104c19190615f4b565b60405180910390f35b6104e460048036038101906104df9190615374565b61130d565b005b6104ee61138b565b6040516104fb9190615ccc565b60405180910390f35b61050c6113b1565b6040516105199190615f4b565b60405180910390f35b61053c60048036038101906105379190615021565b6113b7565b6040516105499190615c14565b60405180910390f35b61056c60048036038101906105679190615021565b6114fe565b005b6105766116b0565b6040516105839190615cb1565b60405180910390f35b6105946116c3565b6040516105a19190615c36565b60405180910390f35b6105b26117c8565b005b6105bc6117e5565b005b6105d860048036038101906105d391906151d4565b6118c1565b005b6105e26118d7565b6040516105ef9190615f4b565b60405180910390f35b610612600480360381019061060d9190615021565b6118dd565b60405161061f9190615f4b565b60405180910390f35b610642600480360381019061063d9190615021565b611929565b005b61064c611c56565b6040516106599190615f4b565b60405180910390f35b61067c6004803603810190610677919061534b565b611c5c565b005b61069860048036038101906106939190615021565b612082565b6040516106a59190615b37565b60405180910390f35b6106b66120b5565b005b6106c06122f8565b6040516106cd9190615f4b565b60405180910390f35b6106de6122fe565b6040516106eb9190615f4b565b60405180910390f35b61070e6004803603810190610709919061534b565b612304565b60405161071b9190615f4b565b60405180910390f35b61073e6004803603810190610739919061534b565b612358565b60405161074d93929190615f8f565b60405180910390f35b610770600480360381019061076b9190615210565b61241a565b005b61078c60048036038101906107879190615021565b612465565b6040516107999190615cb1565b60405180910390f35b6107bc60048036038101906107b79190615021565b6124be565b6040516107cf9796959493929190615fcd565b60405180910390f35b6107e0612652565b6040516107ed9190615f4b565b60405180910390f35b610810600480360381019061080b9190615021565b612657565b60405161081d9190615cb1565b60405180910390f35b610840600480360381019061083b919061504a565b612e53565b60405161084d9190615cb1565b60405180910390f35b610870600480360381019061086b9190615145565b612ee7565b005b61088c60048036038101906108879190615021565b612f88565b6040516108999190615f4b565b60405180910390f35b6108bc60048036038101906108b7919061530a565b612fd7565b005b6108d860048036038101906108d39190615021565b613274565b6040516108e59190615f4b565b60405180910390f35b60008073ffffffffffffffffffffffffffffffffffffffff168373ffffffffffffffffffffffffffffffffffffffff16141561095f576040517f08c379a000000000000000000000000000000000000000000000000000000000815260040161095690615d49565b60405180910390fd5b60008083815260200190815260200160002060008473ffffffffffffffffffffffffffffffffffffffff1673ffffffffffffffffffffffffffffffffffffffff16815260200190815260200160002054905092915050565b60007fd9b67a26000000000000000000000000000000000000000000000000000000007bffffffffffffffffffffffffffffffffffffffffffffffffffffffff1916827bffffffffffffffffffffffffffffffffffffffffffffffffffffffff19161480610a8257507f0e89341c000000000000000000000000000000000000000000000000000000007bffffffffffffffffffffffffffffffffffffffffffffffffffffffff1916827bffffffffffffffffffffffffffffffffffffffffffffffffffffffff1916145b80610a925750610a918261346d565b5b9050919050565b6000601060008373ffffffffffffffffffffffffffffffffffffffff1673ffffffffffffffffffffffffffffffffffffffff168152602001908152602001600020600401805490509050919050565b606060028054610af79061642c565b80601f0160208091040260200160405190810160405280929190818152602001828054610b239061642c565b8015610b705780601f10610b4557610100808354040283529160200191610b70565b820191906000526020600020905b815481529060010190602001808311610b5357829003601f168201915b50505050509050919050565b610b84614c0a565b6000600a8381548110610bc0577f4e487b7100000000000000000000000000000000000000000000000000000000600052603260045260246000fd5b90600052602060002090600302019050806040518060600160405290816000820154815260200160018201548152602001600282018054610c009061642c565b80601f0160208091040260200160405190810160405280929190818152602001828054610c2c9061642c565b8015610c795780601f10610c4e57610100808354040283529160200191610c79565b820191906000526020600020905b815481529060010190602001808311610c5c57829003601f168201915b505050505081525050915050919050565b6000601060008373ffffffffffffffffffffffffffffffffffffffff1673ffffffffffffffffffffffffffffffffffffffff168152602001908152602001600020600201549050919050565b610cde6134d7565b73ffffffffffffffffffffffffffffffffffffffff168573ffffffffffffffffffffffffffffffffffffffff161480610d245750610d2385610d1e6134d7565b612e53565b5b610d63576040517f08c379a0000000000000000000000000000000000000000000000000000000008152600401610d5a90615e09565b60405180910390fd5b610d7085858585856134df565b5050505050565b600060011515601060003373ffffffffffffffffffffffffffffffffffffffff1673ffffffffffffffffffffffffffffffffffffffff16815260200190815260200160002060080160019054906101000a900460ff16151514610e0f576040517f08c379a0000000000000000000000000000000000000000000000000000000008152600401610e0690615dc9565b60405180910390fd5b6000600a8054905011610e57576040517f08c379a0000000000000000000000000000000000000000000000000000000008152600401610e4e90615e69565b60405180910390fd5b60008210158015610e6c5750600a8054905082105b610eab576040517f08c379a0000000000000000000000000000000000000000000000000000000008152600401610ea290615d89565b60405180910390fd5b6000600a8381548110610ee7577f4e487b7100000000000000000000000000000000000000000000000000000000600052603260045260246000fd5b906000526020600020906003020160000154601060003373ffffffffffffffffffffffffffffffffffffffff1673ffffffffffffffffffffffffffffffffffffffff16815260200190815260200160002060020154610f469190616293565b90506000601060003373ffffffffffffffffffffffffffffffffffffffff1673ffffffffffffffffffffffffffffffffffffffff16815260200190815260200160002060000154600a8581548110610fc7577f4e487b7100000000000000000000000000000000000000000000000000000000600052603260045260246000fd5b906000526020600020906003020160010154610fe39190616293565b905081811161110e5760019250600a848154811061102a577f4e487b7100000000000000000000000000000000000000000000000000000000600052603260045260246000fd5b9060005260206000209060030201600001548161104791906162c4565b601060003373ffffffffffffffffffffffffffffffffffffffff1673ffffffffffffffffffffffffffffffffffffffff1681526020019081526020016000206002016000828254611098919061631e565b925050819055506110e7601060003373ffffffffffffffffffffffffffffffffffffffff1673ffffffffffffffffffffffffffffffffffffffff1681526020019081526020016000203361383f565b5060006110f662989680612304565b90506111023382613945565b6001935050505061111e565b61111733613965565b6000925050505b919050565b600081565b6000600f60006101000a81548160ff021916908315150217905550565b6060815183511461118b576040517f08c379a000000000000000000000000000000000000000000000000000000000815260040161118290615ea9565b60405180910390fd5b6000835167ffffffffffffffff8111156111ce577f4e487b7100000000000000000000000000000000000000000000000000000000600052604160045260246000fd5b6040519080825280602002602001820160405280156111fc5781602001602082028036833780820191505090505b50905060005b84518110156112eb57611295858281518110611247577f4e487b7100000000000000000000000000000000000000000000000000000000600052603260045260246000fd5b6020026020010151858381518110611288577f4e487b7100000000000000000000000000000000000000000000000000000000600052603260045260246000fd5b60200260200101516108ee565b8282815181106112ce577f4e487b7100000000000000000000000000000000000000000000000000000000600052603260045260246000fd5b602002602001018181525050806112e49061648f565b9050611202565b508091505092915050565b600d5481565b60065481565b600281565b600e5481565b600a604051806060016040528085815260200184815260200183815250908060018154018082558091505060019003906000526020600020906003020160009091909190915060008201518160000155602082015181600101556040820151816002019080519060200190611383929190614c2b565b505050505050565b600860009054906101000a900473ffffffffffffffffffffffffffffffffffffffff1681565b600b5481565b6060601060008373ffffffffffffffffffffffffffffffffffffffff1673ffffffffffffffffffffffffffffffffffffffff168152602001908152602001600020600401805480602002602001604051908101604052809291908181526020016000905b828210156114f3578382906000526020600020906003020160405180606001604052908160008201548152602001600182015481526020016002820180546114629061642c565b80601f016020809104026020016040519081016040528092919081815260200182805461148e9061642c565b80156114db5780601f106114b0576101008083540402835291602001916114db565b820191906000526020600020905b8154815290600101906020018083116114be57829003601f168201915b5050505050815250508152602001906001019061141b565b505050509050919050565b3373ffffffffffffffffffffffffffffffffffffffff16601160008373ffffffffffffffffffffffffffffffffffffffff1673ffffffffffffffffffffffffffffffffffffffff16815260200190815260200160002060009054906101000a900473ffffffffffffffffffffffffffffffffffffffff1673ffffffffffffffffffffffffffffffffffffffff161461159557600080fd5b6000601060003373ffffffffffffffffffffffffffffffffffffffff1673ffffffffffffffffffffffffffffffffffffffff16815260200190815260200160002060080160006101000a81548160ff0219169083151502179055506000601060008373ffffffffffffffffffffffffffffffffffffffff1673ffffffffffffffffffffffffffffffffffffffff16815260200190815260200160002060080160006101000a81548160ff021916908315150217905550601160008273ffffffffffffffffffffffffffffffffffffffff1673ffffffffffffffffffffffffffffffffffffffff16815260200190815260200160002060006101000a81549073ffffffffffffffffffffffffffffffffffffffff021916905550565b600f60009054906101000a900460ff1681565b6060600a805480602002602001604051908101604052809291908181526020016000905b828210156117bf5783829060005260206000209060030201604051806060016040529081600082015481526020016001820154815260200160028201805461172e9061642c565b80601f016020809104026020016040519081016040528092919081815260200182805461175a9061642c565b80156117a75780601f1061177c576101008083540402835291602001916117a7565b820191906000526020600020905b81548152906001019060200180831161178a57829003601f168201915b505050505081525050815260200190600101906116e7565b50505050905090565b6001600f60006101000a81548160ff021916908315150217905550565b60006117f2600d54612304565b90506000611801600c54612304565b9050600a6040518060600160405280848152602001838152602001611827600b546132c0565b6040516020016118379190615afa565b6040516020818303038152906040528152509080600181540180825580915050600190039060005260206000209060030201600090919091909150600082015181600001556020820151816001015560408201518160020190805190602001906118a2929190614c2b565b505050600b60008154809291906118b89061648f565b91905055505050565b6118d36118cc6134d7565b8383613c4e565b5050565b60045481565b6000601060008373ffffffffffffffffffffffffffffffffffffffff1673ffffffffffffffffffffffffffffffffffffffff168152602001908152602001600020600101549050919050565b60011515601060003373ffffffffffffffffffffffffffffffffffffffff1673ffffffffffffffffffffffffffffffffffffffff16815260200190815260200160002060080160019054906101000a900460ff161515146119bf576040517f08c379a00000000000000000000000000000000000000000000000000000000081526004016119b690615dc9565b60405180910390fd5b60001515601060003373ffffffffffffffffffffffffffffffffffffffff1673ffffffffffffffffffffffffffffffffffffffff16815260200190815260200160002060080160009054906101000a900460ff161515148015611a75575060001515601060008373ffffffffffffffffffffffffffffffffffffffff1673ffffffffffffffffffffffffffffffffffffffff16815260200190815260200160002060080160009054906101000a900460ff161515145b611a7e57600080fd5b60011515601060008373ffffffffffffffffffffffffffffffffffffffff1673ffffffffffffffffffffffffffffffffffffffff16815260200190815260200160002060080160019054906101000a900460ff16151514611b14576040517f08c379a0000000000000000000000000000000000000000000000000000000008152600401611b0b90615f09565b60405180910390fd5b6001601060003373ffffffffffffffffffffffffffffffffffffffff1673ffffffffffffffffffffffffffffffffffffffff16815260200190815260200160002060080160006101000a81548160ff0219169083151502179055506001601060008373ffffffffffffffffffffffffffffffffffffffff1673ffffffffffffffffffffffffffffffffffffffff16815260200190815260200160002060080160006101000a81548160ff02191690831515021790555080601160003373ffffffffffffffffffffffffffffffffffffffff1673ffffffffffffffffffffffffffffffffffffffff16815260200190815260200160002060006101000a81548173ffffffffffffffffffffffffffffffffffffffff021916908373ffffffffffffffffffffffffffffffffffffffff160217905550611c538160016118c1565b50565b600c5481565b60011515601060003373ffffffffffffffffffffffffffffffffffffffff1673ffffffffffffffffffffffffffffffffffffffff16815260200190815260200160002060080160019054906101000a900460ff16151514611cf2576040517f08c379a0000000000000000000000000000000000000000000000000000000008152600401611ce990615dc9565b60405180910390fd5b600080601260010154601060003373ffffffffffffffffffffffffffffffffffffffff1673ffffffffffffffffffffffffffffffffffffffff1681526020019081526020016000206005016001015414611d4b57600080fd5b600090505b601060003373ffffffffffffffffffffffffffffffffffffffff1673ffffffffffffffffffffffffffffffffffffffff16815260200190815260200160002060040180549050811015611e4c5782601060003373ffffffffffffffffffffffffffffffffffffffff1673ffffffffffffffffffffffffffffffffffffffff1681526020019081526020016000206004018281548110611e18577f4e487b7100000000000000000000000000000000000000000000000000000000600052603260045260246000fd5b9060005260206000209060030201600101541415611e395760019150611e4c565b8080611e449061648f565b915050611d50565b6001151582151514611e5d57600080fd5b601060003373ffffffffffffffffffffffffffffffffffffffff1673ffffffffffffffffffffffffffffffffffffffff1681526020019081526020016000206004018181548110611ed7577f4e487b7100000000000000000000000000000000000000000000000000000000600052603260045260246000fd5b906000526020600020906003020160000154601060003373ffffffffffffffffffffffffffffffffffffffff1673ffffffffffffffffffffffffffffffffffffffff16815260200190815260200160002060000154611f36919061623d565b601060003373ffffffffffffffffffffffffffffffffffffffff1673ffffffffffffffffffffffffffffffffffffffff16815260200190815260200160002060000181905550601060003373ffffffffffffffffffffffffffffffffffffffff1673ffffffffffffffffffffffffffffffffffffffff1681526020019081526020016000206004018181548110611ff6577f4e487b7100000000000000000000000000000000000000000000000000000000600052603260045260246000fd5b9060005260206000209060030201601060003373ffffffffffffffffffffffffffffffffffffffff1673ffffffffffffffffffffffffffffffffffffffff1681526020019081526020016000206005016000820154816000015560018201548160010155600282018160020190805461206e9061642c565b612079929190614cb1565b50905050505050565b60116020528060005260406000206000915054906101000a900473ffffffffffffffffffffffffffffffffffffffff1681565b60011515601060003373ffffffffffffffffffffffffffffffffffffffff1673ffffffffffffffffffffffffffffffffffffffff16815260200190815260200160002060080160019054906101000a900460ff1615151461214b576040517f08c379a000000000000000000000000000000000000000000000000000000000815260040161214290615dc9565b60405180910390fd5b601260010154601060003373ffffffffffffffffffffffffffffffffffffffff1673ffffffffffffffffffffffffffffffffffffffff1681526020019081526020016000206005016001015414156121a257600080fd5b601060003373ffffffffffffffffffffffffffffffffffffffff1673ffffffffffffffffffffffffffffffffffffffff16815260200190815260200160002060050160000154601060003373ffffffffffffffffffffffffffffffffffffffff1673ffffffffffffffffffffffffffffffffffffffff16815260200190815260200160002060000154612235919061631e565b601060003373ffffffffffffffffffffffffffffffffffffffff1673ffffffffffffffffffffffffffffffffffffffff168152602001908152602001600020600001819055506012601060003373ffffffffffffffffffffffffffffffffffffffff1673ffffffffffffffffffffffffffffffffffffffff168152602001908152602001600020600501600082015481600001556001820154816001015560028201816002019080546122e79061642c565b6122f2929190614cb1565b50905050565b60055481565b60075481565b6000816003600081548092919061231a9061648f565b9190505560405160200161232e9190615b1c565b6040516020818303038152906040528051906020012060001c61235191906164e2565b9050919050565b600a818154811061236857600080fd5b90600052602060002090600302016000915090508060000154908060010154908060020180546123979061642c565b80601f01602080910402602001604051908101604052809291908181526020018280546123c39061642c565b80156124105780601f106123e557610100808354040283529160200191612410565b820191906000526020600020905b8154815290600101906020018083116123f357829003601f168201915b5050505050905083565b80601060008473ffffffffffffffffffffffffffffffffffffffff1673ffffffffffffffffffffffffffffffffffffffff168152602001908152602001600020600201819055505050565b6000601060008373ffffffffffffffffffffffffffffffffffffffff1673ffffffffffffffffffffffffffffffffffffffff16815260200190815260200160002060080160009054906101000a900460ff169050919050565b60106020528060005260406000206000915090508060000154908060010154908060020154908060030180546124f39061642c565b80601f016020809104026020016040519081016040528092919081815260200182805461251f9061642c565b801561256c5780601f106125415761010080835404028352916020019161256c565b820191906000526020600020905b81548152906001019060200180831161254f57829003601f168201915b5050505050908060050160405180606001604052908160008201548152602001600182015481526020016002820180546125a59061642c565b80601f01602080910402602001604051908101604052809291908181526020018280546125d19061642c565b801561261e5780601f106125f35761010080835404028352916020019161261e565b820191906000526020600020905b81548152906001019060200180831161260157829003601f168201915b505050505081525050908060080160009054906101000a900460ff16908060080160019054906101000a900460ff16905087565b600181565b600060011515601060003373ffffffffffffffffffffffffffffffffffffffff1673ffffffffffffffffffffffffffffffffffffffff16815260200190815260200160002060080160019054906101000a900460ff161515146126ef576040517f08c379a00000000000000000000000000000000000000000000000000000000081526004016126e690615dc9565b60405180910390fd5b3373ffffffffffffffffffffffffffffffffffffffff16601160008473ffffffffffffffffffffffffffffffffffffffff1673ffffffffffffffffffffffffffffffffffffffff16815260200190815260200160002060009054906101000a900473ffffffffffffffffffffffffffffffffffffffff1673ffffffffffffffffffffffffffffffffffffffff161461278657600080fd5b6000601060003373ffffffffffffffffffffffffffffffffffffffff1673ffffffffffffffffffffffffffffffffffffffff16815260200190815260200160002060000154601060008573ffffffffffffffffffffffffffffffffffffffff1673ffffffffffffffffffffffffffffffffffffffff168152602001908152602001600020600201546128189190616293565b90506000601060008573ffffffffffffffffffffffffffffffffffffffff1673ffffffffffffffffffffffffffffffffffffffff16815260200190815260200160002060000154601060003373ffffffffffffffffffffffffffffffffffffffff1673ffffffffffffffffffffffffffffffffffffffff168152602001908152602001600020600201546128ac9190616293565b9050600080600083851161296f57339250869150601060008873ffffffffffffffffffffffffffffffffffffffff1673ffffffffffffffffffffffffffffffffffffffff168152602001908152602001600020600001548461290e91906162c4565b601060003373ffffffffffffffffffffffffffffffffffffffff1673ffffffffffffffffffffffffffffffffffffffff168152602001908152602001600020600201600082825461295f919061631e565b9250508190555060019050612a20565b869250339150601060003373ffffffffffffffffffffffffffffffffffffffff1673ffffffffffffffffffffffffffffffffffffffff16815260200190815260200160002060000154856129c391906162c4565b601060008973ffffffffffffffffffffffffffffffffffffffff1673ffffffffffffffffffffffffffffffffffffffff1681526020019081526020016000206002016000828254612a14919061631e565b92505081905550600090505b60006001601060008573ffffffffffffffffffffffffffffffffffffffff1673ffffffffffffffffffffffffffffffffffffffff168152602001908152602001600020600401805490501415612a795760009050612ad6565b612ad36001601060008673ffffffffffffffffffffffffffffffffffffffff1673ffffffffffffffffffffffffffffffffffffffff16815260200190815260200160002060040180549050612ace919061631e565b612304565b90505b601060008473ffffffffffffffffffffffffffffffffffffffff1673ffffffffffffffffffffffffffffffffffffffff16815260200190815260200160002060010154601060008573ffffffffffffffffffffffffffffffffffffffff1673ffffffffffffffffffffffffffffffffffffffff16815260200190815260200160002060020181905550612bf860108486601060008873ffffffffffffffffffffffffffffffffffffffff1673ffffffffffffffffffffffffffffffffffffffff1681526020019081526020016000206004018581548110612be0577f4e487b7100000000000000000000000000000000000000000000000000000000600052603260045260246000fd5b90600052602060002090600302016001015485613dbb565b6000601060008573ffffffffffffffffffffffffffffffffffffffff1673ffffffffffffffffffffffffffffffffffffffff168152602001908152602001600020600401805490501415612d2d57601060008473ffffffffffffffffffffffffffffffffffffffff1673ffffffffffffffffffffffffffffffffffffffff168152602001908152602001600020600401612cd0601060008673ffffffffffffffffffffffffffffffffffffffff1673ffffffffffffffffffffffffffffffffffffffff16815260200190815260200160002085613fb0565b908060018154018082558091505060019003906000526020600020906003020160009091909190915060008201518160000155602082015181600101556040820151816002019080519060200190612d29929190614c2b565b5050505b6000601060003373ffffffffffffffffffffffffffffffffffffffff1673ffffffffffffffffffffffffffffffffffffffff16815260200190815260200160002060080160006101000a81548160ff0219169083151502179055506000601060008a73ffffffffffffffffffffffffffffffffffffffff1673ffffffffffffffffffffffffffffffffffffffff16815260200190815260200160002060080160006101000a81548160ff021916908315150217905550601160008973ffffffffffffffffffffffffffffffffffffffff1673ffffffffffffffffffffffffffffffffffffffff16815260200190815260200160002060006101000a81549073ffffffffffffffffffffffffffffffffffffffff0219169055819650505050505050919050565b6000600160008473ffffffffffffffffffffffffffffffffffffffff1673ffffffffffffffffffffffffffffffffffffffff16815260200190815260200160002060008373ffffffffffffffffffffffffffffffffffffffff1673ffffffffffffffffffffffffffffffffffffffff16815260200190815260200160002060009054906101000a900460ff16905092915050565b612eef6134d7565b73ffffffffffffffffffffffffffffffffffffffff168573ffffffffffffffffffffffffffffffffffffffff161480612f355750612f3485612f2f6134d7565b612e53565b5b612f74576040517f08c379a0000000000000000000000000000000000000000000000000000000008152600401612f6b90615da9565b60405180910390fd5b612f818585858585614097565b5050505050565b6000601060008373ffffffffffffffffffffffffffffffffffffffff1673ffffffffffffffffffffffffffffffffffffffff168152602001908152602001600020600501600101549050919050565b60001515601060003373ffffffffffffffffffffffffffffffffffffffff1673ffffffffffffffffffffffffffffffffffffffff16815260200190815260200160002060080160019054906101000a900460ff1615151461303757600080fd5b6064601060003373ffffffffffffffffffffffffffffffffffffffff1673ffffffffffffffffffffffffffffffffffffffff168152602001908152602001600020600001819055506101f4601060003373ffffffffffffffffffffffffffffffffffffffff1673ffffffffffffffffffffffffffffffffffffffff168152602001908152602001600020600101819055506101f4601060003373ffffffffffffffffffffffffffffffffffffffff1673ffffffffffffffffffffffffffffffffffffffff1681526020019081526020016000206002018190555080601060003373ffffffffffffffffffffffffffffffffffffffff1673ffffffffffffffffffffffffffffffffffffffff1681526020019081526020016000206003019080519060200190613167929190614c2b565b506001601060003373ffffffffffffffffffffffffffffffffffffffff1673ffffffffffffffffffffffffffffffffffffffff16815260200190815260200160002060080160016101000a81548160ff02191690831515021790555061320b601060003373ffffffffffffffffffffffffffffffffffffffff1673ffffffffffffffffffffffffffffffffffffffff16815260200190815260200160002033613fb0565b506132166002611c5c565b6000601060003373ffffffffffffffffffffffffffffffffffffffff1673ffffffffffffffffffffffffffffffffffffffff16815260200190815260200160002060080160006101000a81548160ff02191690831515021790555050565b6000601060008373ffffffffffffffffffffffffffffffffffffffff1673ffffffffffffffffffffffffffffffffffffffff168152602001908152602001600020600001549050919050565b60606000821415613308576040518060400160405280600181526020017f30000000000000000000000000000000000000000000000000000000000000008152509050613468565b600082905060005b6000821461333a5780806133239061648f565b915050600a826133339190616293565b9150613310565b60008167ffffffffffffffff81111561337c577f4e487b7100000000000000000000000000000000000000000000000000000000600052604160045260246000fd5b6040519080825280601f01601f1916602001820160405280156133ae5781602001600182028036833780820191505090505b5090505b60008514613461576001826133c7919061631e565b9150600a856133d691906164e2565b60306133e2919061623d565b60f81b81838151811061341e577f4e487b7100000000000000000000000000000000000000000000000000000000600052603260045260246000fd5b60200101907effffffffffffffffffffffffffffffffffffffffffffffffffffffffffffff1916908160001a905350600a8561345a9190616293565b94506133b2565b8093505050505b919050565b60007f01ffc9a7000000000000000000000000000000000000000000000000000000007bffffffffffffffffffffffffffffffffffffffffffffffffffffffff1916827bffffffffffffffffffffffffffffffffffffffffffffffffffffffff1916149050919050565b600033905090565b8151835114613523576040517f08c379a000000000000000000000000000000000000000000000000000000000815260040161351a90615ec9565b60405180910390fd5b600073ffffffffffffffffffffffffffffffffffffffff168473ffffffffffffffffffffffffffffffffffffffff161415613593576040517f08c379a000000000000000000000000000000000000000000000000000000000815260040161358a90615de9565b60405180910390fd5b600061359d6134d7565b90506135ad818787878787614319565b60005b84518110156137aa5760008582815181106135f4577f4e487b7100000000000000000000000000000000000000000000000000000000600052603260045260246000fd5b602002602001015190506000858381518110613639577f4e487b7100000000000000000000000000000000000000000000000000000000600052603260045260246000fd5b60200260200101519050600080600084815260200190815260200160002060008b73ffffffffffffffffffffffffffffffffffffffff1673ffffffffffffffffffffffffffffffffffffffff168152602001908152602001600020549050818110156136da576040517f08c379a00000000000000000000000000000000000000000000000000000000081526004016136d190615e49565b60405180910390fd5b81810360008085815260200190815260200160002060008c73ffffffffffffffffffffffffffffffffffffffff1673ffffffffffffffffffffffffffffffffffffffff168152602001908152602001600020819055508160008085815260200190815260200160002060008b73ffffffffffffffffffffffffffffffffffffffff1673ffffffffffffffffffffffffffffffffffffffff168152602001908152602001600020600082825461378f919061623d565b92505081905550505050806137a39061648f565b90506135b0565b508473ffffffffffffffffffffffffffffffffffffffff168673ffffffffffffffffffffffffffffffffffffffff168273ffffffffffffffffffffffffffffffffffffffff167f4a39dc06d4c0dbc64b70af90fd698a233a518aa5d07e595d983b8c0526c8f7fb8787604051613821929190615c7a565b60405180910390a4613837818787878787614321565b505050505050565b613847614d3e565b61386582600454600160405180602001604052806000815250614508565b6000613872600554612304565b9050600060405180606001604052808381526020016004548152602001600961389c6004546132c0565b6040516020016138ad929190615ad6565b6040516020818303038152906040528152509050846004018190806001815401808255809150506001900390600052602060002090600302016000909190919091506000820151816000015560208201518160010155604082015181600201908051906020019061391f929190614c2b565b505050600460008154809291906139359061648f565b9190505550809250505092915050565b6139618260018360405180602001604052806000815250614508565b5050565b601060008273ffffffffffffffffffffffffffffffffffffffff1673ffffffffffffffffffffffffffffffffffffffff16815260200190815260200160002060010154601060008373ffffffffffffffffffffffffffffffffffffffff1673ffffffffffffffffffffffffffffffffffffffff168152602001908152602001600020600201819055506000613a3e601060008473ffffffffffffffffffffffffffffffffffffffff1673ffffffffffffffffffffffffffffffffffffffff16815260200190815260200160002060040180549050612304565b9050613b15601060008473ffffffffffffffffffffffffffffffffffffffff1673ffffffffffffffffffffffffffffffffffffffff16815260200190815260200160002083601060008673ffffffffffffffffffffffffffffffffffffffff1673ffffffffffffffffffffffffffffffffffffffff1681526020019081526020016000206004018481548110613afd577f4e487b7100000000000000000000000000000000000000000000000000000000600052603260045260246000fd5b9060005260206000209060030201600101548461469e565b6000601060008473ffffffffffffffffffffffffffffffffffffffff1673ffffffffffffffffffffffffffffffffffffffff168152602001908152602001600020600401805490501415613c4a57601060008373ffffffffffffffffffffffffffffffffffffffff1673ffffffffffffffffffffffffffffffffffffffff168152602001908152602001600020600401613bed601060008573ffffffffffffffffffffffffffffffffffffffff1673ffffffffffffffffffffffffffffffffffffffff16815260200190815260200160002084613fb0565b908060018154018082558091505060019003906000526020600020906003020160009091909190915060008201518160000155602082015181600101556040820151816002019080519060200190613c46929190614c2b565b5050505b5050565b8173ffffffffffffffffffffffffffffffffffffffff168373ffffffffffffffffffffffffffffffffffffffff161415613cbd576040517f08c379a0000000000000000000000000000000000000000000000000000000008152600401613cb490615e89565b60405180910390fd5b80600160008573ffffffffffffffffffffffffffffffffffffffff1673ffffffffffffffffffffffffffffffffffffffff16815260200190815260200160002060008473ffffffffffffffffffffffffffffffffffffffff1673ffffffffffffffffffffffffffffffffffffffff16815260200190815260200160002060006101000a81548160ff0219169083151502179055508173ffffffffffffffffffffffffffffffffffffffff168373ffffffffffffffffffffffffffffffffffffffff167f17307eab39ab6107e8899845ad3d59bd9653f200f220920489ca2b5937696c3183604051613dae9190615cb1565b60405180910390a3505050565b613dd8848484600160405180602001604052806000815250612ee7565b8460008473ffffffffffffffffffffffffffffffffffffffff1673ffffffffffffffffffffffffffffffffffffffff1681526020019081526020016000206004018560008673ffffffffffffffffffffffffffffffffffffffff1673ffffffffffffffffffffffffffffffffffffffff1681526020019081526020016000206004018281548110613e92577f4e487b7100000000000000000000000000000000000000000000000000000000600052603260045260246000fd5b9060005260206000209060030201908060018154018082558091505060019003906000526020600020906003020160009091909190915060008201548160000155600182015481600101556002820181600201908054613ef19061642c565b613efc929190614cb1565b5050508460008573ffffffffffffffffffffffffffffffffffffffff1673ffffffffffffffffffffffffffffffffffffffff1681526020019081526020016000206004018181548110613f78577f4e487b7100000000000000000000000000000000000000000000000000000000600052603260045260246000fd5b90600052602060002090600302016000808201600090556001820160009055600282016000613fa79190614d5f565b50505050505050565b613fb8614d3e565b613fd5826002600160405180602001604052806000815250614508565b600060405180606001604052806007548152602001600281526020016040518060400160405280600981526020017f6e65775f73776f726400000000000000000000000000000000000000000000008152508152509050836004018190806001815401808255809150506001900390600052602060002090600302016000909190919091506000820151816000015560208201518160010155604082015181600201908051906020019061408a929190614c2b565b5050508091505092915050565b600073ffffffffffffffffffffffffffffffffffffffff168473ffffffffffffffffffffffffffffffffffffffff161415614107576040517f08c379a00000000000000000000000000000000000000000000000000000000081526004016140fe90615de9565b60405180910390fd5b60006141116134d7565b90506141318187876141228861471d565b61412b8861471d565b87614319565b600080600086815260200190815260200160002060008873ffffffffffffffffffffffffffffffffffffffff1673ffffffffffffffffffffffffffffffffffffffff168152602001908152602001600020549050838110156141c8576040517f08c379a00000000000000000000000000000000000000000000000000000000081526004016141bf90615e49565b60405180910390fd5b83810360008087815260200190815260200160002060008973ffffffffffffffffffffffffffffffffffffffff1673ffffffffffffffffffffffffffffffffffffffff168152602001908152602001600020819055508360008087815260200190815260200160002060008873ffffffffffffffffffffffffffffffffffffffff1673ffffffffffffffffffffffffffffffffffffffff168152602001908152602001600020600082825461427d919061623d565b925050819055508573ffffffffffffffffffffffffffffffffffffffff168773ffffffffffffffffffffffffffffffffffffffff168373ffffffffffffffffffffffffffffffffffffffff167fc3d58168c5ae7397731d063d5bbf3d657854427343f4c083240f7aacaa2d0f6288886040516142fa929190615f66565b60405180910390a46143108288888888886147e3565b50505050505050565b505050505050565b6143408473ffffffffffffffffffffffffffffffffffffffff166149ca565b15614500578373ffffffffffffffffffffffffffffffffffffffff1663bc197c8187878686866040518663ffffffff1660e01b8152600401614386959493929190615b52565b602060405180830381600087803b1580156143a057600080fd5b505af19250505080156143d157506040513d601f19601f820116820180604052508101906143ce91906152e1565b60015b614477576143dd6165cf565b806308c379a0141561443a57506143f2616b2b565b806143fd575061443c565b806040517f08c379a00000000000000000000000000000000000000000000000000000000081526004016144319190615ce7565b60405180910390fd5b505b6040517f08c379a000000000000000000000000000000000000000000000000000000000815260040161446e90615d09565b60405180910390fd5b63bc197c8160e01b7bffffffffffffffffffffffffffffffffffffffffffffffffffffffff1916817bffffffffffffffffffffffffffffffffffffffffffffffffffffffff1916146144fe576040517f08c379a00000000000000000000000000000000000000000000000000000000081526004016144f590615d29565b60405180910390fd5b505b505050505050565b600073ffffffffffffffffffffffffffffffffffffffff168473ffffffffffffffffffffffffffffffffffffffff161415614578576040517f08c379a000000000000000000000000000000000000000000000000000000000815260040161456f90615ee9565b60405180910390fd5b60006145826134d7565b90506145a3816000876145948861471d565b61459d8861471d565b87614319565b8260008086815260200190815260200160002060008773ffffffffffffffffffffffffffffffffffffffff1673ffffffffffffffffffffffffffffffffffffffff1681526020019081526020016000206000828254614602919061623d565b925050819055508473ffffffffffffffffffffffffffffffffffffffff16600073ffffffffffffffffffffffffffffffffffffffff168273ffffffffffffffffffffffffffffffffffffffff167fc3d58168c5ae7397731d063d5bbf3d657854427343f4c083240f7aacaa2d0f628787604051614680929190615f66565b60405180910390a4614697816000878787876147e3565b5050505050565b6146aa838360016149ed565b8360040181815481106146e6577f4e487b7100000000000000000000000000000000000000000000000000000000600052603260045260246000fd5b906000526020600020906003020160008082016000905560018201600090556002820160006147159190614d5f565b505050505050565b60606000600167ffffffffffffffff811115614762577f4e487b7100000000000000000000000000000000000000000000000000000000600052604160045260246000fd5b6040519080825280602002602001820160405280156147905781602001602082028036833780820191505090505b50905082816000815181106147ce577f4e487b7100000000000000000000000000000000000000000000000000000000600052603260045260246000fd5b60200260200101818152505080915050919050565b6148028473ffffffffffffffffffffffffffffffffffffffff166149ca565b156149c2578373ffffffffffffffffffffffffffffffffffffffff1663f23a6e6187878686866040518663ffffffff1660e01b8152600401614848959493929190615bba565b602060405180830381600087803b15801561486257600080fd5b505af192505050801561489357506040513d601f19601f8201168201806040525081019061489091906152e1565b60015b6149395761489f6165cf565b806308c379a014156148fc57506148b4616b2b565b806148bf57506148fe565b806040517f08c379a00000000000000000000000000000000000000000000000000000000081526004016148f39190615ce7565b60405180910390fd5b505b6040517f08c379a000000000000000000000000000000000000000000000000000000000815260040161493090615d09565b60405180910390fd5b63f23a6e6160e01b7bffffffffffffffffffffffffffffffffffffffffffffffffffffffff1916817bffffffffffffffffffffffffffffffffffffffffffffffffffffffff1916146149c0576040517f08c379a00000000000000000000000000000000000000000000000000000000081526004016149b790615d29565b60405180910390fd5b505b505050505050565b6000808273ffffffffffffffffffffffffffffffffffffffff163b119050919050565b600073ffffffffffffffffffffffffffffffffffffffff168373ffffffffffffffffffffffffffffffffffffffff161415614a5d576040517f08c379a0000000000000000000000000000000000000000000000000000000008152600401614a5490615e29565b60405180910390fd5b6000614a676134d7565b9050614a9781856000614a798761471d565b614a828761471d565b60405180602001604052806000815250614319565b600080600085815260200190815260200160002060008673ffffffffffffffffffffffffffffffffffffffff1673ffffffffffffffffffffffffffffffffffffffff16815260200190815260200160002054905082811015614b2e576040517f08c379a0000000000000000000000000000000000000000000000000000000008152600401614b2590615d69565b60405180910390fd5b82810360008086815260200190815260200160002060008773ffffffffffffffffffffffffffffffffffffffff1673ffffffffffffffffffffffffffffffffffffffff16815260200190815260200160002081905550600073ffffffffffffffffffffffffffffffffffffffff168573ffffffffffffffffffffffffffffffffffffffff168373ffffffffffffffffffffffffffffffffffffffff167fc3d58168c5ae7397731d063d5bbf3d657854427343f4c083240f7aacaa2d0f628787604051614bfb929190615f66565b60405180910390a45050505050565b60405180606001604052806000815260200160008152602001606081525090565b828054614c379061642c565b90600052602060002090601f016020900481019282614c595760008555614ca0565b82601f10614c7257805160ff1916838001178555614ca0565b82800160010185558215614ca0579182015b82811115614c9f578251825591602001919060010190614c84565b5b509050614cad9190614d9f565b5090565b828054614cbd9061642c565b90600052602060002090601f016020900481019282614cdf5760008555614d2d565b82601f10614cf05780548555614d2d565b82800160010185558215614d2d57600052602060002091601f016020900482015b82811115614d2c578254825591600101919060010190614d11565b5b509050614d3a9190614d9f565b5090565b60405180606001604052806000815260200160008152602001606081525090565b508054614d6b9061642c565b6000825580601f10614d7d5750614d9c565b601f016020900490600052602060002090810190614d9b9190614d9f565b5b50565b5b80821115614db8576000816000905550600101614da0565b5090565b6000614dcf614dca8461606f565b61604a565b90508083825260208201905082856020860282011115614dee57600080fd5b60005b85811015614e1e5781614e048882614f10565b845260208401935060208301925050600181019050614df1565b5050509392505050565b6000614e3b614e368461609b565b61604a565b90508083825260208201905082856020860282011115614e5a57600080fd5b60005b85811015614e8a5781614e70888261500c565b845260208401935060208301925050600181019050614e5d565b5050509392505050565b6000614ea7614ea2846160c7565b61604a565b905082815260208101848484011115614ebf57600080fd5b614eca8482856163ea565b509392505050565b6000614ee5614ee0846160f8565b61604a565b905082815260208101848484011115614efd57600080fd5b614f088482856163ea565b509392505050565b600081359050614f1f81616bc1565b92915050565b600082601f830112614f3657600080fd5b8135614f46848260208601614dbc565b91505092915050565b600082601f830112614f6057600080fd5b8135614f70848260208601614e28565b91505092915050565b600081359050614f8881616bd8565b92915050565b600081359050614f9d81616bef565b92915050565b600081519050614fb281616bef565b92915050565b600082601f830112614fc957600080fd5b8135614fd9848260208601614e94565b91505092915050565b600082601f830112614ff357600080fd5b8135615003848260208601614ed2565b91505092915050565b60008135905061501b81616c06565b92915050565b60006020828403121561503357600080fd5b600061504184828501614f10565b91505092915050565b6000806040838503121561505d57600080fd5b600061506b85828601614f10565b925050602061507c85828601614f10565b9150509250929050565b600080600080600060a0868803121561509e57600080fd5b60006150ac88828901614f10565b95505060206150bd88828901614f10565b945050604086013567ffffffffffffffff8111156150da57600080fd5b6150e688828901614f4f565b935050606086013567ffffffffffffffff81111561510357600080fd5b61510f88828901614f4f565b925050608086013567ffffffffffffffff81111561512c57600080fd5b61513888828901614fb8565b9150509295509295909350565b600080600080600060a0868803121561515d57600080fd5b600061516b88828901614f10565b955050602061517c88828901614f10565b945050604061518d8882890161500c565b935050606061519e8882890161500c565b925050608086013567ffffffffffffffff8111156151bb57600080fd5b6151c788828901614fb8565b9150509295509295909350565b600080604083850312156151e757600080fd5b60006151f585828601614f10565b925050602061520685828601614f79565b9150509250929050565b6000806040838503121561522357600080fd5b600061523185828601614f10565b92505060206152428582860161500c565b9150509250929050565b6000806040838503121561525f57600080fd5b600083013567ffffffffffffffff81111561527957600080fd5b61528585828601614f25565b925050602083013567ffffffffffffffff8111156152a257600080fd5b6152ae85828601614f4f565b9150509250929050565b6000602082840312156152ca57600080fd5b60006152d884828501614f8e565b91505092915050565b6000602082840312156152f357600080fd5b600061530184828501614fa3565b91505092915050565b60006020828403121561531c57600080fd5b600082013567ffffffffffffffff81111561533657600080fd5b61534284828501614fe2565b91505092915050565b60006020828403121561535d57600080fd5b600061536b8482850161500c565b91505092915050565b60008060006060848603121561538957600080fd5b60006153978682870161500c565b93505060206153a88682870161500c565b925050604084013567ffffffffffffffff8111156153c557600080fd5b6153d186828701614fe2565b9150509250925092565b60006153e78383615961565b905092915050565b60006153fb8383615a01565b905092915050565b600061540f8383615aa1565b60208301905092915050565b61542481616352565b82525050565b60006154358261616e565b61543f81856161cc565b93508360208202850161545185616129565b8060005b8581101561548d578484038952815161546e85826153db565b9450615479836161a5565b925060208a01995050600181019050615455565b50829750879550505050505092915050565b60006154aa82616179565b6154b481856161dd565b9350836020820285016154c685616139565b8060005b8581101561550257848403895281516154e385826153ef565b94506154ee836161b2565b925060208a019950506001810190506154ca565b50829750879550505050505092915050565b600061551f82616184565b61552981856161ee565b935061553483616149565b8060005b8381101561556557815161554c8882615403565b9750615557836161bf565b925050600181019050615538565b5085935050505092915050565b61557b81616364565b82525050565b600061558c8261618f565b61559681856161ff565b93506155a68185602086016163f9565b6155af816165f1565b840191505092915050565b6155c3816163c6565b82525050565b60006155d48261619a565b6155de8185616210565b93506155ee8185602086016163f9565b6155f7816165f1565b840191505092915050565b600061560d8261619a565b6156178185616221565b93506156278185602086016163f9565b615630816165f1565b840191505092915050565b60006156468261619a565b6156508185616232565b93506156608185602086016163f9565b80840191505092915050565b600081546156798161642c565b6156838186616232565b9450600182166000811461569e57600181146156af576156e2565b60ff198316865281860193506156e2565b6156b885616159565b60005b838110156156da578154818901526001820191506020810190506156bb565b838801955050505b50505092915050565b60006156f8603483616221565b91506157038261660f565b604082019050919050565b600061571b602883616221565b91506157268261665e565b604082019050919050565b600061573e602b83616221565b9150615749826166ad565b604082019050919050565b6000615761602483616221565b915061576c826166fc565b604082019050919050565b6000615784601283616221565b915061578f8261674b565b602082019050919050565b60006157a7602983616221565b91506157b282616774565b604082019050919050565b60006157ca602383616221565b91506157d5826167c3565b604082019050919050565b60006157ed600783616232565b91506157f882616812565b600782019050919050565b6000615810602583616221565b915061581b8261683b565b604082019050919050565b6000615833603283616221565b915061583e8261688a565b604082019050919050565b6000615856602383616221565b9150615861826168d9565b604082019050919050565b6000615879602a83616221565b915061588482616928565b604082019050919050565b600061589c602883616221565b91506158a782616977565b604082019050919050565b60006158bf602983616221565b91506158ca826169c6565b604082019050919050565b60006158e2602983616221565b91506158ed82616a15565b604082019050919050565b6000615905602883616221565b915061591082616a64565b604082019050919050565b6000615928602183616221565b915061593382616ab3565b604082019050919050565b600061594b601483616221565b915061595682616b02565b602082019050919050565b60006060830160008301516159796000860182615aa1565b50602083015161598c6020860182615aa1565b50604083015184820360408601526159a482826155c9565b9150508091505092915050565b60006060830160008301516159c96000860182615aa1565b5060208301516159dc6020860182615aa1565b50604083015184820360408601526159f482826155c9565b9150508091505092915050565b6000606083016000830151615a196000860182615aa1565b506020830151615a2c6020860182615aa1565b5060408301518482036040860152615a4482826155c9565b9150508091505092915050565b6000606083016000830151615a696000860182615aa1565b506020830151615a7c6020860182615aa1565b5060408301518482036040860152615a9482826155c9565b9150508091505092915050565b615aaa816163bc565b82525050565b615ab9816163bc565b82525050565b615ad0615acb826163bc565b6164d8565b82525050565b6000615ae2828561566c565b9150615aee828461563b565b91508190509392505050565b6000615b05826157e0565b9150615b11828461563b565b915081905092915050565b6000615b288284615abf565b60208201915081905092915050565b6000602082019050615b4c600083018461541b565b92915050565b600060a082019050615b67600083018861541b565b615b74602083018761541b565b8181036040830152615b868186615514565b90508181036060830152615b9a8185615514565b90508181036080830152615bae8184615581565b90509695505050505050565b600060a082019050615bcf600083018861541b565b615bdc602083018761541b565b615be96040830186615ab0565b615bf66060830185615ab0565b8181036080830152615c088184615581565b90509695505050505050565b60006020820190508181036000830152615c2e818461542a565b905092915050565b60006020820190508181036000830152615c50818461549f565b905092915050565b60006020820190508181036000830152615c728184615514565b905092915050565b60006040820190508181036000830152615c948185615514565b90508181036020830152615ca88184615514565b90509392505050565b6000602082019050615cc66000830184615572565b92915050565b6000602082019050615ce160008301846155ba565b92915050565b60006020820190508181036000830152615d018184615602565b905092915050565b60006020820190508181036000830152615d22816156eb565b9050919050565b60006020820190508181036000830152615d428161570e565b9050919050565b60006020820190508181036000830152615d6281615731565b9050919050565b60006020820190508181036000830152615d8281615754565b9050919050565b60006020820190508181036000830152615da281615777565b9050919050565b60006020820190508181036000830152615dc28161579a565b9050919050565b60006020820190508181036000830152615de2816157bd565b9050919050565b60006020820190508181036000830152615e0281615803565b9050919050565b60006020820190508181036000830152615e2281615826565b9050919050565b60006020820190508181036000830152615e4281615849565b9050919050565b60006020820190508181036000830152615e628161586c565b9050919050565b60006020820190508181036000830152615e828161588f565b9050919050565b60006020820190508181036000830152615ea2816158b2565b9050919050565b60006020820190508181036000830152615ec2816158d5565b9050919050565b60006020820190508181036000830152615ee2816158f8565b9050919050565b60006020820190508181036000830152615f028161591b565b9050919050565b60006020820190508181036000830152615f228161593e565b9050919050565b60006020820190508181036000830152615f438184615a51565b905092915050565b6000602082019050615f606000830184615ab0565b92915050565b6000604082019050615f7b6000830185615ab0565b615f886020830184615ab0565b9392505050565b6000606082019050615fa46000830186615ab0565b615fb16020830185615ab0565b8181036040830152615fc38184615602565b9050949350505050565b600060e082019050615fe2600083018a615ab0565b615fef6020830189615ab0565b615ffc6040830188615ab0565b818103606083015261600e8187615602565b9050818103608083015261602281866159b1565b905061603160a0830185615572565b61603e60c0830184615572565b98975050505050505050565b6000616054616065565b9050616060828261645e565b919050565b6000604051905090565b600067ffffffffffffffff82111561608a576160896165a0565b5b602082029050602081019050919050565b600067ffffffffffffffff8211156160b6576160b56165a0565b5b602082029050602081019050919050565b600067ffffffffffffffff8211156160e2576160e16165a0565b5b6160eb826165f1565b9050602081019050919050565b600067ffffffffffffffff821115616113576161126165a0565b5b61611c826165f1565b9050602081019050919050565b6000819050602082019050919050565b6000819050602082019050919050565b6000819050602082019050919050565b60008190508160005260206000209050919050565b600081519050919050565b600081519050919050565b600081519050919050565b600081519050919050565b600081519050919050565b6000602082019050919050565b6000602082019050919050565b6000602082019050919050565b600082825260208201905092915050565b600082825260208201905092915050565b600082825260208201905092915050565b600082825260208201905092915050565b600082825260208201905092915050565b600082825260208201905092915050565b600081905092915050565b6000616248826163bc565b9150616253836163bc565b9250827fffffffffffffffffffffffffffffffffffffffffffffffffffffffffffffffff0382111561628857616287616513565b5b828201905092915050565b600061629e826163bc565b91506162a9836163bc565b9250826162b9576162b8616542565b5b828204905092915050565b60006162cf826163bc565b91506162da836163bc565b9250817fffffffffffffffffffffffffffffffffffffffffffffffffffffffffffffffff048311821515161561631357616312616513565b5b828202905092915050565b6000616329826163bc565b9150616334836163bc565b92508282101561634757616346616513565b5b828203905092915050565b600061635d8261639c565b9050919050565b60008115159050919050565b60007fffffffff0000000000000000000000000000000000000000000000000000000082169050919050565b600073ffffffffffffffffffffffffffffffffffffffff82169050919050565b6000819050919050565b60006163d1826163d8565b9050919050565b60006163e38261639c565b9050919050565b82818337600083830152505050565b60005b838110156164175780820151818401526020810190506163fc565b83811115616426576000848401525b50505050565b6000600282049050600182168061644457607f821691505b6020821081141561645857616457616571565b5b50919050565b616467826165f1565b810181811067ffffffffffffffff82111715616486576164856165a0565b5b80604052505050565b600061649a826163bc565b91507fffffffffffffffffffffffffffffffffffffffffffffffffffffffffffffffff8214156164cd576164cc616513565b5b600182019050919050565b6000819050919050565b60006164ed826163bc565b91506164f8836163bc565b92508261650857616507616542565b5b828206905092915050565b7f4e487b7100000000000000000000000000000000000000000000000000000000600052601160045260246000fd5b7f4e487b7100000000000000000000000000000000000000000000000000000000600052601260045260246000fd5b7f4e487b7100000000000000000000000000000000000000000000000000000000600052602260045260246000fd5b7f4e487b7100000000000000000000000000000000000000000000000000000000600052604160045260246000fd5b600060033d11156165ee5760046000803e6165eb600051616602565b90505b90565b6000601f19601f8301169050919050565b60008160e01c9050919050565b7f455243313135353a207472616e7366657220746f206e6f6e204552433131353560008201527f526563656976657220696d706c656d656e746572000000000000000000000000602082015250565b7f455243313135353a204552433131353552656365697665722072656a6563746560008201527f6420746f6b656e73000000000000000000000000000000000000000000000000602082015250565b7f455243313135353a2062616c616e636520717565727920666f7220746865207a60008201527f65726f2061646472657373000000000000000000000000000000000000000000602082015250565b7f455243313135353a206275726e20616d6f756e7420657863656564732062616c60008201527f616e636500000000000000000000000000000000000000000000000000000000602082015250565b7f696e76616c6964206d6f6e737465722069640000000000000000000000000000600082015250565b7f455243313135353a2063616c6c6572206973206e6f74206f776e6572206e6f7260008201527f20617070726f7665640000000000000000000000000000000000000000000000602082015250565b7f486176656e277420696e697469616c697a65642074686520706c61796572207960008201527f65742e0000000000000000000000000000000000000000000000000000000000602082015250565b7f6d6f6e7374657200000000000000000000000000000000000000000000000000600082015250565b7f455243313135353a207472616e7366657220746f20746865207a65726f20616460008201527f6472657373000000000000000000000000000000000000000000000000000000602082015250565b7f455243313135353a207472616e736665722063616c6c6572206973206e6f742060008201527f6f776e6572206e6f7220617070726f7665640000000000000000000000000000602082015250565b7f455243313135353a206275726e2066726f6d20746865207a65726f206164647260008201527f6573730000000000000000000000000000000000000000000000000000000000602082015250565b7f455243313135353a20696e73756666696369656e742062616c616e636520666f60008201527f72207472616e7366657200000000000000000000000000000000000000000000602082015250565b7f4d6f6e737465722773206c656e6774682073686f756c6420626520626967676560008201527f72207468616e2030000000000000000000000000000000000000000000000000602082015250565b7f455243313135353a2073657474696e6720617070726f76616c2073746174757360008201527f20666f722073656c660000000000000000000000000000000000000000000000602082015250565b7f455243313135353a206163636f756e747320616e6420696473206c656e67746860008201527f206d69736d617463680000000000000000000000000000000000000000000000602082015250565b7f455243313135353a2069647320616e6420616d6f756e7473206c656e6774682060008201527f6d69736d61746368000000000000000000000000000000000000000000000000602082015250565b7f455243313135353a206d696e7420746f20746865207a65726f2061646472657360008201527f7300000000000000000000000000000000000000000000000000000000000000602082015250565b7f506c6179657220646f65736e2774206578697374000000000000000000000000600082015250565b600060443d1015616b3b57616bbe565b616b43616065565b60043d036004823e80513d602482011167ffffffffffffffff82111715616b6b575050616bbe565b808201805167ffffffffffffffff811115616b895750505050616bbe565b80602083010160043d038501811115616ba6575050505050616bbe565b616bb58260200185018661645e565b82955050505050505b90565b616bca81616352565b8114616bd557600080fd5b50565b616be181616364565b8114616bec57600080fd5b50565b616bf881616370565b8114616c0357600080fd5b50565b616c0f816163bc565b8114616c1a57600080fd5b5056fea2646970667358221220e356b32879315e3c9568e71c886f75c17698ee86ac7bc998e25d22716e95d4d864736f6c63430008010033",
  "linkReferences": {},
  "deployedLinkReferences": {}
}