{
  "_format": "hh-sol-artifact-1",
  "contractName": "Game",
  "sourceName": "contracts/Game.sol",
  "abi": [
    {
      "anonymous": false,
      "inputs": [
        {
          "indexed": true,
          "internalType": "address",
          "name": "account",
          "type": "address"
        },
        {
          "indexed": true,
          "internalType": "address",
          "name": "operator",
          "type": "address"
        },
        {
          "indexed": false,
          "internalType": "bool",
          "name": "approved",
          "type": "bool"
        }
      ],
      "name": "ApprovalForAll",
      "type": "event"
    },
    {
      "anonymous": false,
      "inputs": [
        {
          "indexed": true,
          "internalType": "address",
          "name": "operator",
          "type": "address"
        },
        {
          "indexed": true,
          "internalType": "address",
          "name": "from",
          "type": "address"
        },
        {
          "indexed": true,
          "internalType": "address",
          "name": "to",
          "type": "address"
        },
        {
          "indexed": false,
          "internalType": "uint256[]",
          "name": "ids",
          "type": "uint256[]"
        },
        {
          "indexed": false,
          "internalType": "uint256[]",
          "name": "values",
          "type": "uint256[]"
        }
      ],
      "name": "TransferBatch",
      "type": "event"
    },
    {
      "anonymous": false,
      "inputs": [
        {
          "indexed": true,
          "internalType": "address",
          "name": "operator",
          "type": "address"
        },
        {
          "indexed": true,
          "internalType": "address",
          "name": "from",
          "type": "address"
        },
        {
          "indexed": true,
          "internalType": "address",
          "name": "to",
          "type": "address"
        },
        {
          "indexed": false,
          "internalType": "uint256",
          "name": "id",
          "type": "uint256"
        },
        {
          "indexed": false,
          "internalType": "uint256",
          "name": "value",
          "type": "uint256"
        }
      ],
      "name": "TransferSingle",
      "type": "event"
    },
    {
      "anonymous": false,
      "inputs": [
        {
          "indexed": false,
          "internalType": "string",
          "name": "value",
          "type": "string"
        },
        {
          "indexed": true,
          "internalType": "uint256",
          "name": "id",
          "type": "uint256"
        }
      ],
      "name": "URI",
      "type": "event"
    },
    {
      "inputs": [],
      "name": "GOLD",
      "outputs": [
        {
          "internalType": "uint256",
          "name": "",
          "type": "uint256"
        }
      ],
      "stateMutability": "view",
      "type": "function"
    },
    {
      "inputs": [],
      "name": "NEW_SWORD",
      "outputs": [
        {
          "internalType": "uint256",
          "name": "",
          "type": "uint256"
        }
      ],
      "stateMutability": "view",
      "type": "function"
    },
    {
      "inputs": [],
      "name": "SILVER",
      "outputs": [
        {
          "internalType": "uint256",
          "name": "",
          "type": "uint256"
        }
      ],
      "stateMutability": "view",
      "type": "function"
    },
    {
      "inputs": [
        {
          "internalType": "address",
          "name": "inviter",
          "type": "address"
        }
      ],
      "name": "accept_duel",
      "outputs": [
        {
          "internalType": "bool",
          "name": "result",
          "type": "bool"
        }
      ],
      "stateMutability": "nonpayable",
      "type": "function"
    },
    {
      "inputs": [
        {
          "internalType": "uint256",
          "name": "",
          "type": "uint256"
        }
      ],
      "name": "allMonsters",
      "outputs": [
        {
          "internalType": "uint256",
          "name": "attack",
          "type": "uint256"
        },
        {
          "internalType": "uint256",
          "name": "monster_current_health",
          "type": "uint256"
        },
        {
          "internalType": "string",
          "name": "monster_name",
          "type": "string"
        }
      ],
      "stateMutability": "view",
      "type": "function"
    },
    {
      "inputs": [
        {
          "internalType": "uint256",
          "name": "monster_id",
          "type": "uint256"
        }
      ],
      "name": "attack_monster",
      "outputs": [
        {
          "internalType": "bool",
          "name": "result",
          "type": "bool"
        }
      ],
      "stateMutability": "nonpayable",
      "type": "function"
    },
    {
      "inputs": [
        {
          "internalType": "address",
          "name": "account",
          "type": "address"
        },
        {
          "internalType": "uint256",
          "name": "id",
          "type": "uint256"
        }
      ],
      "name": "balanceOf",
      "outputs": [
        {
          "internalType": "uint256",
          "name": "",
          "type": "uint256"
        }
      ],
      "stateMutability": "view",
      "type": "function"
    },
    {
      "inputs": [
        {
          "internalType": "address[]",
          "name": "accounts",
          "type": "address[]"
        },
        {
          "internalType": "uint256[]",
          "name": "ids",
          "type": "uint256[]"
        }
      ],
      "name": "balanceOfBatch",
      "outputs": [
        {
          "internalType": "uint256[]",
          "name": "",
          "type": "uint256[]"
        }
      ],
      "stateMutability": "view",
      "type": "function"
    },
    {
      "inputs": [],
      "name": "create_monster",
      "outputs": [],
      "stateMutability": "nonpayable",
      "type": "function"
    },
    {
      "inputs": [
        {
          "internalType": "uint256",
          "name": "equipment_id",
          "type": "uint256"
        }
      ],
      "name": "equip",
      "outputs": [],
      "stateMutability": "nonpayable",
      "type": "function"
    },
    {
      "inputs": [],
      "name": "equipment_counter",
      "outputs": [
        {
          "internalType": "uint256",
          "name": "",
          "type": "uint256"
        }
      ],
      "stateMutability": "view",
      "type": "function"
    },
    {
      "inputs": [],
      "name": "equipment_maximum_attack",
      "outputs": [
        {
          "internalType": "uint256",
          "name": "",
          "type": "uint256"
        }
      ],
      "stateMutability": "view",
      "type": "function"
    },
    {
      "inputs": [],
      "name": "equipment_minimum_attack",
      "outputs": [
        {
          "internalType": "uint256",
          "name": "",
          "type": "uint256"
        }
      ],
      "stateMutability": "view",
      "type": "function"
    },
    {
      "inputs": [],
      "name": "get_all_monster",
      "outputs": [
        {
          "components": [
            {
              "internalType": "uint256",
              "name": "attack",
              "type": "uint256"
            },
            {
              "internalType": "uint256",
              "name": "monster_current_health",
              "type": "uint256"
            },
            {
              "internalType": "string",
              "name": "monster_name",
              "type": "string"
            }
          ],
          "internalType": "struct IMonster.Monster[]",
          "name": "",
          "type": "tuple[]"
        }
      ],
      "stateMutability": "view",
      "type": "function"
    },
    {
      "inputs": [
        {
          "internalType": "uint256",
          "name": "_index",
          "type": "uint256"
        }
      ],
      "name": "get_monster",
      "outputs": [
        {
          "components": [
            {
              "internalType": "uint256",
              "name": "attack",
              "type": "uint256"
            },
            {
              "internalType": "uint256",
              "name": "monster_current_health",
              "type": "uint256"
            },
            {
              "internalType": "string",
              "name": "monster_name",
              "type": "string"
            }
          ],
          "internalType": "struct IMonster.Monster",
          "name": "name",
          "type": "tuple"
        }
      ],
      "stateMutability": "view",
      "type": "function"
    },
    {
      "inputs": [
        {
          "internalType": "uint256",
          "name": "upperBoundary",
          "type": "uint256"
        }
      ],
      "name": "get_random",
      "outputs": [
        {
          "internalType": "uint256",
          "name": "",
          "type": "uint256"
        }
      ],
      "stateMutability": "nonpayable",
      "type": "function"
    },
    {
      "inputs": [
        {
          "internalType": "string",
          "name": "_name",
          "type": "string"
        }
      ],
      "name": "initialize",
      "outputs": [],
      "stateMutability": "nonpayable",
      "type": "function"
    },
    {
      "inputs": [
        {
          "internalType": "address",
          "name": "invitee",
          "type": "address"
        }
      ],
      "name": "invite_duel",
      "outputs": [],
      "stateMutability": "nonpayable",
      "type": "function"
    },
    {
      "inputs": [
        {
          "internalType": "address",
          "name": "account",
          "type": "address"
        },
        {
          "internalType": "address",
          "name": "operator",
          "type": "address"
        }
      ],
      "name": "isApprovedForAll",
      "outputs": [
        {
          "internalType": "bool",
          "name": "",
          "type": "bool"
        }
      ],
      "stateMutability": "view",
      "type": "function"
    },
    {
      "inputs": [],
      "name": "is_pause",
      "outputs": [
        {
          "internalType": "bool",
          "name": "",
          "type": "bool"
        }
      ],
      "stateMutability": "view",
      "type": "function"
    },
    {
      "inputs": [],
      "name": "monsterCounter",
      "outputs": [
        {
          "internalType": "uint256",
          "name": "",
          "type": "uint256"
        }
      ],
      "stateMutability": "view",
      "type": "function"
    },
    {
      "inputs": [],
      "name": "monster_maximum_attack",
      "outputs": [
        {
          "internalType": "uint256",
          "name": "",
          "type": "uint256"
        }
      ],
      "stateMutability": "view",
      "type": "function"
    },
    {
      "inputs": [],
      "name": "monster_maximum_health",
      "outputs": [
        {
          "internalType": "uint256",
          "name": "",
          "type": "uint256"
        }
      ],
      "stateMutability": "view",
      "type": "function"
    },
    {
      "inputs": [],
      "name": "monster_minimum_attack",
      "outputs": [
        {
          "internalType": "uint256",
          "name": "",
          "type": "uint256"
        }
      ],
      "stateMutability": "view",
      "type": "function"
    },
    {
      "inputs": [],
      "name": "new_sword_attack",
      "outputs": [
        {
          "internalType": "uint256",
          "name": "",
          "type": "uint256"
        }
      ],
      "stateMutability": "view",
      "type": "function"
    },
    {
      "inputs": [],
      "name": "pause",
      "outputs": [],
      "stateMutability": "nonpayable",
      "type": "function"
    },
    {
      "inputs": [],
      "name": "random",
      "outputs": [
        {
          "internalType": "contract Random",
          "name": "",
          "type": "address"
        }
      ],
      "stateMutability": "view",
      "type": "function"
    },
    {
      "inputs": [
        {
          "internalType": "address",
          "name": "inviter",
          "type": "address"
        }
      ],
      "name": "reject_duel",
      "outputs": [],
      "stateMutability": "nonpayable",
      "type": "function"
    },
    {
      "inputs": [
        {
          "internalType": "address",
          "name": "from",
          "type": "address"
        },
        {
          "internalType": "address",
          "name": "to",
          "type": "address"
        },
        {
          "internalType": "uint256[]",
          "name": "ids",
          "type": "uint256[]"
        },
        {
          "internalType": "uint256[]",
          "name": "amounts",
          "type": "uint256[]"
        },
        {
          "internalType": "bytes",
          "name": "data",
          "type": "bytes"
        }
      ],
      "name": "safeBatchTransferFrom",
      "outputs": [],
      "stateMutability": "nonpayable",
      "type": "function"
    },
    {
      "inputs": [
        {
          "internalType": "address",
          "name": "from",
          "type": "address"
        },
        {
          "internalType": "address",
          "name": "to",
          "type": "address"
        },
        {
          "internalType": "uint256",
          "name": "id",
          "type": "uint256"
        },
        {
          "internalType": "uint256",
          "name": "amount",
          "type": "uint256"
        },
        {
          "internalType": "bytes",
          "name": "data",
          "type": "bytes"
        }
      ],
      "name": "safeTransferFrom",
      "outputs": [],
      "stateMutability": "nonpayable",
      "type": "function"
    },
    {
      "inputs": [
        {
          "internalType": "address",
          "name": "operator",
          "type": "address"
        },
        {
          "internalType": "bool",
          "name": "approved",
          "type": "bool"
        }
      ],
      "name": "setApprovalForAll",
      "outputs": [],
      "stateMutability": "nonpayable",
      "type": "function"
    },
    {
      "inputs": [
        {
          "internalType": "bytes4",
          "name": "interfaceId",
          "type": "bytes4"
        }
      ],
      "name": "supportsInterface",
      "outputs": [
        {
          "internalType": "bool",
          "name": "",
          "type": "bool"
        }
      ],
      "stateMutability": "view",
      "type": "function"
    },
    {
      "inputs": [],
      "name": "unequip",
      "outputs": [],
      "stateMutability": "nonpayable",
      "type": "function"
    },
    {
      "inputs": [],
      "name": "unpause",
      "outputs": [],
      "stateMutability": "nonpayable",
      "type": "function"
    },
    {
      "inputs": [
        {
          "internalType": "uint256",
          "name": "",
          "type": "uint256"
        }
      ],
      "name": "uri",
      "outputs": [
        {
          "internalType": "string",
          "name": "",
          "type": "string"
        }
      ],
      "stateMutability": "view",
      "type": "function"
    }
  ],
  "bytecode": "0x60806040526003600455600c600555600860065560086007556040518060400160405280600981526020017f65717569706d656e740000000000000000000000000000000000000000000000815250600990805190602001906200006592919062000483565b506014600c55600c600d556008600e556000600f60006101000a81548160ff0219169083151502179055506040518060600160405280600081526020016000815260200160405180602001604052806000815250815250601260008201518160000155602082015181600101556040820151816002019080519060200190620000f092919062000483565b5050503480156200010057600080fd5b506006546040518060200160405280600081525062000125816200014c60201b60201c565b5080600381905550506000600b81905550620001466200016860201b60201c565b62000891565b80600290805190602001906200016492919062000483565b5050565b60006200017d600d546200026760201b60201c565b9050600062000194600c546200026760201b60201c565b9050600a6040518060600160405280848152602001838152602001620001c7600b54620002c160201b620027d31760201c565b604051602001620001d99190620005ac565b6040516020818303038152906040528152509080600181540180825580915050600190039060005260206000209060030201600090919091909150600082015181600001556020820151816001015560408201518160020190805190602001906200024692919062000483565b505050600b60008154809291906200025e906200074b565b91905055505050565b600081600360008154809291906200027f906200074b565b91905055604051602001620002959190620005d2565b6040516020818303038152906040528051906020012060001c620002ba9190620007a3565b9050919050565b606060008214156200030b576040518060400160405280600181526020017f300000000000000000000000000000000000000000000000000000000000000081525090506200047e565b600082905060005b600082146200034357808062000329906200074b565b915050600a826200033b919062000662565b915062000313565b60008167ffffffffffffffff81111562000386577f4e487b7100000000000000000000000000000000000000000000000000000000600052604160045260246000fd5b6040519080825280601f01601f191660200182016040528015620003b95781602001600182028036833780820191505090505b5090505b600085146200047757600182620003d591906200069a565b9150600a85620003e69190620007a3565b6030620003f4919062000605565b60f81b81838151811062000431577f4e487b7100000000000000000000000000000000000000000000000000000000600052603260045260246000fd5b60200101907effffffffffffffffffffffffffffffffffffffffffffffffffffffffffffff1916908160001a905350600a856200046f919062000662565b9450620003bd565b8093505050505b919050565b828054620004919062000715565b90600052602060002090601f016020900481019282620004b5576000855562000501565b82601f10620004d057805160ff191683800117855562000501565b8280016001018555821562000501579182015b8281111562000500578251825591602001919060010190620004e3565b5b50905062000510919062000514565b5090565b5b808211156200052f57600081600090555060010162000515565b5090565b60006200054082620005ef565b6200054c8185620005fa565b93506200055e818560208601620006df565b80840191505092915050565b600062000579600783620005fa565b9150620005868262000868565b600782019050919050565b620005a6620005a082620006d5565b62000799565b82525050565b6000620005b9826200056a565b9150620005c7828462000533565b915081905092915050565b6000620005e0828462000591565b60208201915081905092915050565b600081519050919050565b600081905092915050565b60006200061282620006d5565b91506200061f83620006d5565b9250827fffffffffffffffffffffffffffffffffffffffffffffffffffffffffffffffff03821115620006575762000656620007db565b5b828201905092915050565b60006200066f82620006d5565b91506200067c83620006d5565b9250826200068f576200068e6200080a565b5b828204905092915050565b6000620006a782620006d5565b9150620006b483620006d5565b925082821015620006ca57620006c9620007db565b5b828203905092915050565b6000819050919050565b60005b83811015620006ff578082015181840152602081019050620006e2565b838111156200070f576000848401525b50505050565b600060028204905060018216806200072e57607f821691505b6020821081141562000745576200074462000839565b5b50919050565b60006200075882620006d5565b91507fffffffffffffffffffffffffffffffffffffffffffffffffffffffffffffffff8214156200078e576200078d620007db565b5b600182019050919050565b6000819050919050565b6000620007b082620006d5565b9150620007bd83620006d5565b925082620007d057620007cf6200080a565b5b828206905092915050565b7f4e487b7100000000000000000000000000000000000000000000000000000000600052601160045260246000fd5b7f4e487b7100000000000000000000000000000000000000000000000000000000600052601260045260246000fd5b7f4e487b7100000000000000000000000000000000000000000000000000000000600052602260045260246000fd5b7f6d6f6e7374657200000000000000000000000000000000000000000000000000600082015250565b615d5980620008a16000396000f3fe608060405234801561001057600080fd5b50600436106102105760003560e01c806382b0868411610125578063bfe58d4f116100ad578063e3e55f081161007c578063e3e55f08146105d1578063e7ac8c61146105ef578063e985e9c51461061f578063f242432a1461064f578063f62d18881461066b57610210565b8063bfe58d4f14610533578063c5897d5b14610551578063cf7d325f1461056f578063de4e8b0d1461059f57610210565b8063adab72bb116100f4578063adab72bb146104b5578063b4c0e1b1146104d3578063b719a9f1146104ef578063b85f80271461050d578063b9c2edf71461052957610210565b806382b08684146104675780638456cb59146104855780639caa7fd01461048f578063a22cb4651461049957610210565b80634e1273f4116101a8578063536d6f1f11610177578063536d6f1f146103d35780635ec01e4d146103f157806368c405ef1461040f5780637a2444e11461042d5780637e14ab4a1461044957610210565b80634e1273f4146103495780634e9493a814610379578063500e9fdc146103975780635163191f146103b557610210565b80632eb2c2d6116101e45780632eb2c2d6146102d5578063355b0370146102f15780633e4bee38146103215780633f4ba83a1461033f57610210565b8062fdd58e1461021557806301ffc9a7146102455780630e89341c146102755780631c6e74f2146102a5575b600080fd5b61022f600480360381019061022a9190614703565b610687565b60405161023c91906151a8565b60405180910390f35b61025f600480360381019061025a91906147ab565b610750565b60405161026c9190614f6e565b60405180910390f35b61028f600480360381019061028a919061483e565b610832565b60405161029c9190614fa4565b60405180910390f35b6102bf60048036038101906102ba919061483e565b6108c6565b6040516102cc9190615186565b60405180910390f35b6102ef60048036038101906102ea9190614579565b6109d4565b005b61030b6004803603810190610306919061483e565b610a75565b6040516103189190614f6e565b60405180910390f35b610329610d94565b60405161033691906151a8565b60405180910390f35b610347610d99565b005b610363600480360381019061035e919061473f565b610db6565b6040516103709190614f15565b60405180910390f35b610381610f67565b60405161038e91906151a8565b60405180910390f35b61039f610f6d565b6040516103ac91906151a8565b60405180910390f35b6103bd610f73565b6040516103ca91906151a8565b60405180910390f35b6103db610f78565b6040516103e891906151a8565b60405180910390f35b6103f9610f7e565b6040516104069190614f89565b60405180910390f35b610417610fa4565b60405161042491906151a8565b60405180910390f35b61044760048036038101906104429190614514565b610faa565b005b61045161115c565b60405161045e9190614f6e565b60405180910390f35b61046f61116f565b60405161047c9190614ef3565b60405180910390f35b61048d611274565b005b610497611291565b005b6104b360048036038101906104ae91906146c7565b61136d565b005b6104bd611383565b6040516104ca91906151a8565b60405180910390f35b6104ed60048036038101906104e89190614514565b611389565b005b6104f7611615565b60405161050491906151a8565b60405180910390f35b6105276004803603810190610522919061483e565b61161b565b005b610531611a41565b005b61053b611c84565b60405161054891906151a8565b60405180910390f35b610559611c8a565b60405161056691906151a8565b60405180910390f35b6105896004803603810190610584919061483e565b611c90565b60405161059691906151a8565b60405180910390f35b6105b960048036038101906105b4919061483e565b611ce4565b6040516105c8939291906151ec565b60405180910390f35b6105d9611da6565b6040516105e691906151a8565b60405180910390f35b61060960048036038101906106049190614514565b611dab565b6040516106169190614f6e565b60405180910390f35b6106396004803603810190610634919061453d565b612364565b6040516106469190614f6e565b60405180910390f35b61066960048036038101906106649190614638565b6123f8565b005b610685600480360381019061068091906147fd565b612499565b005b60008073ffffffffffffffffffffffffffffffffffffffff168373ffffffffffffffffffffffffffffffffffffffff1614156106f8576040517f08c379a00000000000000000000000000000000000000000000000000000000081526004016106ef90615006565b60405180910390fd5b60008083815260200190815260200160002060008473ffffffffffffffffffffffffffffffffffffffff1673ffffffffffffffffffffffffffffffffffffffff16815260200190815260200160002054905092915050565b60007fd9b67a26000000000000000000000000000000000000000000000000000000007bffffffffffffffffffffffffffffffffffffffffffffffffffffffff1916827bffffffffffffffffffffffffffffffffffffffffffffffffffffffff1916148061081b57507f0e89341c000000000000000000000000000000000000000000000000000000007bffffffffffffffffffffffffffffffffffffffffffffffffffffffff1916827bffffffffffffffffffffffffffffffffffffffffffffffffffffffff1916145b8061082b575061082a82612980565b5b9050919050565b606060028054610841906155d3565b80601f016020809104026020016040519081016040528092919081815260200182805461086d906155d3565b80156108ba5780601f1061088f576101008083540402835291602001916108ba565b820191906000526020600020905b81548152906001019060200180831161089d57829003601f168201915b50505050509050919050565b6108ce6140fd565b6000600a838154811061090a577f4e487b7100000000000000000000000000000000000000000000000000000000600052603260045260246000fd5b9060005260206000209060030201905080604051806060016040529081600082015481526020016001820154815260200160028201805461094a906155d3565b80601f0160208091040260200160405190810160405280929190818152602001828054610976906155d3565b80156109c35780601f10610998576101008083540402835291602001916109c3565b820191906000526020600020905b8154815290600101906020018083116109a657829003601f168201915b505050505081525050915050919050565b6109dc6129ea565b73ffffffffffffffffffffffffffffffffffffffff168573ffffffffffffffffffffffffffffffffffffffff161480610a225750610a2185610a1c6129ea565b612364565b5b610a61576040517f08c379a0000000000000000000000000000000000000000000000000000000008152600401610a58906150a6565b60405180910390fd5b610a6e85858585856129f2565b5050505050565b600060011515601060003373ffffffffffffffffffffffffffffffffffffffff1673ffffffffffffffffffffffffffffffffffffffff16815260200190815260200160002060080160019054906101000a900460ff16151514610b0d576040517f08c379a0000000000000000000000000000000000000000000000000000000008152600401610b0490615066565b60405180910390fd5b60008210158015610b225750600a8054905082105b610b2b57600080fd5b6000600a8381548110610b67577f4e487b7100000000000000000000000000000000000000000000000000000000600052603260045260246000fd5b906000526020600020906003020160000154601060003373ffffffffffffffffffffffffffffffffffffffff1673ffffffffffffffffffffffffffffffffffffffff16815260200190815260200160002060020154610bc6919061543a565b90506000601060003373ffffffffffffffffffffffffffffffffffffffff1673ffffffffffffffffffffffffffffffffffffffff16815260200190815260200160002060000154600a8581548110610c47577f4e487b7100000000000000000000000000000000000000000000000000000000600052603260045260246000fd5b906000526020600020906003020160010154610c63919061543a565b9050818111610d7f5760019250600a8481548110610caa577f4e487b7100000000000000000000000000000000000000000000000000000000600052603260045260246000fd5b906000526020600020906003020160000154600182610cc991906154c5565b610cd3919061546b565b601060003373ffffffffffffffffffffffffffffffffffffffff1673ffffffffffffffffffffffffffffffffffffffff1681526020019081526020016000206002016000828254610d2491906154c5565b92505081905550610d73601060003373ffffffffffffffffffffffffffffffffffffffff1673ffffffffffffffffffffffffffffffffffffffff16815260200190815260200160002033612d52565b50600192505050610d8f565b610d8833612e58565b6000925050505b919050565b600081565b6000600f60006101000a81548160ff021916908315150217905550565b60608151835114610dfc576040517f08c379a0000000000000000000000000000000000000000000000000000000008152600401610df390615126565b60405180910390fd5b6000835167ffffffffffffffff811115610e3f577f4e487b7100000000000000000000000000000000000000000000000000000000600052604160045260246000fd5b604051908082528060200260200182016040528015610e6d5781602001602082028036833780820191505090505b50905060005b8451811015610f5c57610f06858281518110610eb8577f4e487b7100000000000000000000000000000000000000000000000000000000600052603260045260246000fd5b6020026020010151858381518110610ef9577f4e487b7100000000000000000000000000000000000000000000000000000000600052603260045260246000fd5b6020026020010151610687565b828281518110610f3f577f4e487b7100000000000000000000000000000000000000000000000000000000600052603260045260246000fd5b60200260200101818152505080610f5590615636565b9050610e73565b508091505092915050565b600d5481565b60065481565b600281565b600e5481565b600860009054906101000a900473ffffffffffffffffffffffffffffffffffffffff1681565b600b5481565b3373ffffffffffffffffffffffffffffffffffffffff16601160008373ffffffffffffffffffffffffffffffffffffffff1673ffffffffffffffffffffffffffffffffffffffff16815260200190815260200160002060009054906101000a900473ffffffffffffffffffffffffffffffffffffffff1673ffffffffffffffffffffffffffffffffffffffff161461104157600080fd5b6000601060003373ffffffffffffffffffffffffffffffffffffffff1673ffffffffffffffffffffffffffffffffffffffff16815260200190815260200160002060080160006101000a81548160ff0219169083151502179055506000601060008373ffffffffffffffffffffffffffffffffffffffff1673ffffffffffffffffffffffffffffffffffffffff16815260200190815260200160002060080160006101000a81548160ff021916908315150217905550601160008273ffffffffffffffffffffffffffffffffffffffff1673ffffffffffffffffffffffffffffffffffffffff16815260200190815260200160002060006101000a81549073ffffffffffffffffffffffffffffffffffffffff021916905550565b600f60009054906101000a900460ff1681565b6060600a805480602002602001604051908101604052809291908181526020016000905b8282101561126b578382906000526020600020906003020160405180606001604052908160008201548152602001600182015481526020016002820180546111da906155d3565b80601f0160208091040260200160405190810160405280929190818152602001828054611206906155d3565b80156112535780601f1061122857610100808354040283529160200191611253565b820191906000526020600020905b81548152906001019060200180831161123657829003601f168201915b50505050508152505081526020019060010190611193565b50505050905090565b6001600f60006101000a81548160ff021916908315150217905550565b600061129e600d54611c90565b905060006112ad600c54611c90565b9050600a60405180606001604052808481526020018381526020016112d3600b546127d3565b6040516020016112e39190614df4565b60405160208183030381529060405281525090806001815401808255809150506001900390600052602060002090600302016000909190919091506000820151816000015560208201518160010155604082015181600201908051906020019061134e92919061411e565b505050600b600081548092919061136490615636565b91905055505050565b61137f6113786129ea565b8383613141565b5050565b60045481565b60011515601060003373ffffffffffffffffffffffffffffffffffffffff1673ffffffffffffffffffffffffffffffffffffffff16815260200190815260200160002060080160019054906101000a900460ff1615151461141f576040517f08c379a000000000000000000000000000000000000000000000000000000000815260040161141690615066565b60405180910390fd5b60001515601060003373ffffffffffffffffffffffffffffffffffffffff1673ffffffffffffffffffffffffffffffffffffffff16815260200190815260200160002060080160009054906101000a900460ff1615151480156114d5575060001515601060008373ffffffffffffffffffffffffffffffffffffffff1673ffffffffffffffffffffffffffffffffffffffff16815260200190815260200160002060080160009054906101000a900460ff161515145b6114de57600080fd5b6001601060003373ffffffffffffffffffffffffffffffffffffffff1673ffffffffffffffffffffffffffffffffffffffff16815260200190815260200160002060080160006101000a81548160ff0219169083151502179055506001601060008373ffffffffffffffffffffffffffffffffffffffff1673ffffffffffffffffffffffffffffffffffffffff16815260200190815260200160002060080160006101000a81548160ff02191690831515021790555080601160003373ffffffffffffffffffffffffffffffffffffffff1673ffffffffffffffffffffffffffffffffffffffff16815260200190815260200160002060006101000a81548173ffffffffffffffffffffffffffffffffffffffff021916908373ffffffffffffffffffffffffffffffffffffffff16021790555050565b600c5481565b60011515601060003373ffffffffffffffffffffffffffffffffffffffff1673ffffffffffffffffffffffffffffffffffffffff16815260200190815260200160002060080160019054906101000a900460ff161515146116b1576040517f08c379a00000000000000000000000000000000000000000000000000000000081526004016116a890615066565b60405180910390fd5b600080601260010154601060003373ffffffffffffffffffffffffffffffffffffffff1673ffffffffffffffffffffffffffffffffffffffff168152602001908152602001600020600501600101541461170a57600080fd5b600090505b601060003373ffffffffffffffffffffffffffffffffffffffff1673ffffffffffffffffffffffffffffffffffffffff1681526020019081526020016000206004018054905081101561180b5782601060003373ffffffffffffffffffffffffffffffffffffffff1673ffffffffffffffffffffffffffffffffffffffff16815260200190815260200160002060040182815481106117d7577f4e487b7100000000000000000000000000000000000000000000000000000000600052603260045260246000fd5b90600052602060002090600302016001015414156117f8576001915061180b565b808061180390615636565b91505061170f565b600115158215151461181c57600080fd5b601060003373ffffffffffffffffffffffffffffffffffffffff1673ffffffffffffffffffffffffffffffffffffffff1681526020019081526020016000206004018181548110611896577f4e487b7100000000000000000000000000000000000000000000000000000000600052603260045260246000fd5b906000526020600020906003020160000154601060003373ffffffffffffffffffffffffffffffffffffffff1673ffffffffffffffffffffffffffffffffffffffff168152602001908152602001600020600001546118f591906153e4565b601060003373ffffffffffffffffffffffffffffffffffffffff1673ffffffffffffffffffffffffffffffffffffffff16815260200190815260200160002060000181905550601060003373ffffffffffffffffffffffffffffffffffffffff1673ffffffffffffffffffffffffffffffffffffffff16815260200190815260200160002060040181815481106119b5577f4e487b7100000000000000000000000000000000000000000000000000000000600052603260045260246000fd5b9060005260206000209060030201601060003373ffffffffffffffffffffffffffffffffffffffff1673ffffffffffffffffffffffffffffffffffffffff16815260200190815260200160002060050160008201548160000155600182015481600101556002820181600201908054611a2d906155d3565b611a389291906141a4565b50905050505050565b60011515601060003373ffffffffffffffffffffffffffffffffffffffff1673ffffffffffffffffffffffffffffffffffffffff16815260200190815260200160002060080160019054906101000a900460ff16151514611ad7576040517f08c379a0000000000000000000000000000000000000000000000000000000008152600401611ace90615066565b60405180910390fd5b601260010154601060003373ffffffffffffffffffffffffffffffffffffffff1673ffffffffffffffffffffffffffffffffffffffff168152602001908152602001600020600501600101541415611b2e57600080fd5b601060003373ffffffffffffffffffffffffffffffffffffffff1673ffffffffffffffffffffffffffffffffffffffff16815260200190815260200160002060050160000154601060003373ffffffffffffffffffffffffffffffffffffffff1673ffffffffffffffffffffffffffffffffffffffff16815260200190815260200160002060000154611bc191906154c5565b601060003373ffffffffffffffffffffffffffffffffffffffff1673ffffffffffffffffffffffffffffffffffffffff168152602001908152602001600020600001819055506012601060003373ffffffffffffffffffffffffffffffffffffffff1673ffffffffffffffffffffffffffffffffffffffff16815260200190815260200160002060050160008201548160000155600182015481600101556002820181600201908054611c73906155d3565b611c7e9291906141a4565b50905050565b60055481565b60075481565b60008160036000815480929190611ca690615636565b91905055604051602001611cba9190614e16565b6040516020818303038152906040528051906020012060001c611cdd9190615689565b9050919050565b600a8181548110611cf457600080fd5b9060005260206000209060030201600091509050806000015490806001015490806002018054611d23906155d3565b80601f0160208091040260200160405190810160405280929190818152602001828054611d4f906155d3565b8015611d9c5780601f10611d7157610100808354040283529160200191611d9c565b820191906000526020600020905b815481529060010190602001808311611d7f57829003601f168201915b5050505050905083565b600181565b600060011515601060003373ffffffffffffffffffffffffffffffffffffffff1673ffffffffffffffffffffffffffffffffffffffff16815260200190815260200160002060080160019054906101000a900460ff16151514611e43576040517f08c379a0000000000000000000000000000000000000000000000000000000008152600401611e3a90615066565b60405180910390fd5b3373ffffffffffffffffffffffffffffffffffffffff16601160008473ffffffffffffffffffffffffffffffffffffffff1673ffffffffffffffffffffffffffffffffffffffff16815260200190815260200160002060009054906101000a900473ffffffffffffffffffffffffffffffffffffffff1673ffffffffffffffffffffffffffffffffffffffff1614611eda57600080fd5b6000601060008473ffffffffffffffffffffffffffffffffffffffff1673ffffffffffffffffffffffffffffffffffffffff16815260200190815260200160002060000154601060003373ffffffffffffffffffffffffffffffffffffffff1673ffffffffffffffffffffffffffffffffffffffff16815260200190815260200160002060020154611f6c919061543a565b90506000601060003373ffffffffffffffffffffffffffffffffffffffff1673ffffffffffffffffffffffffffffffffffffffff16815260200190815260200160002060000154601060008673ffffffffffffffffffffffffffffffffffffffff1673ffffffffffffffffffffffffffffffffffffffff16815260200190815260200160002060020154612000919061543a565b905060008083831161201b5785915033905060009450612026565b339150859050600194505b601060008273ffffffffffffffffffffffffffffffffffffffff1673ffffffffffffffffffffffffffffffffffffffff1681526020019081526020016000206000015460018461207691906154c5565b612080919061546b565b601060008473ffffffffffffffffffffffffffffffffffffffff1673ffffffffffffffffffffffffffffffffffffffff16815260200190815260200160002060020160008282546120d191906154c5565b925050819055506000612128601060008473ffffffffffffffffffffffffffffffffffffffff1673ffffffffffffffffffffffffffffffffffffffff16815260200190815260200160002060040180549050611c90565b90506121c360108385601060008773ffffffffffffffffffffffffffffffffffffffff1673ffffffffffffffffffffffffffffffffffffffff16815260200190815260200160002060040185815481106121ab577f4e487b7100000000000000000000000000000000000000000000000000000000600052603260045260246000fd5b906000526020600020906003020160010154856132ae565b6000601060008473ffffffffffffffffffffffffffffffffffffffff1673ffffffffffffffffffffffffffffffffffffffff1681526020019081526020016000206004018054905014156122f857601060008373ffffffffffffffffffffffffffffffffffffffff1673ffffffffffffffffffffffffffffffffffffffff16815260200190815260200160002060040161229b601060008573ffffffffffffffffffffffffffffffffffffffff1673ffffffffffffffffffffffffffffffffffffffff168152602001908152602001600020846134a3565b9080600181540180825580915050600190039060005260206000209060030201600090919091909150600082015181600001556020820151816001015560408201518160020190805190602001906122f492919061411e565b5050505b601160008873ffffffffffffffffffffffffffffffffffffffff1673ffffffffffffffffffffffffffffffffffffffff16815260200190815260200160002060006101000a81549073ffffffffffffffffffffffffffffffffffffffff02191690555050505050919050565b6000600160008473ffffffffffffffffffffffffffffffffffffffff1673ffffffffffffffffffffffffffffffffffffffff16815260200190815260200160002060008373ffffffffffffffffffffffffffffffffffffffff1673ffffffffffffffffffffffffffffffffffffffff16815260200190815260200160002060009054906101000a900460ff16905092915050565b6124006129ea565b73ffffffffffffffffffffffffffffffffffffffff168573ffffffffffffffffffffffffffffffffffffffff1614806124465750612445856124406129ea565b612364565b5b612485576040517f08c379a000000000000000000000000000000000000000000000000000000000815260040161247c90615046565b60405180910390fd5b612492858585858561358a565b5050505050565b60001515601060003373ffffffffffffffffffffffffffffffffffffffff1673ffffffffffffffffffffffffffffffffffffffff16815260200190815260200160002060080160019054906101000a900460ff161515146124f957600080fd5b6064601060003373ffffffffffffffffffffffffffffffffffffffff1673ffffffffffffffffffffffffffffffffffffffff168152602001908152602001600020600001819055506101f4601060003373ffffffffffffffffffffffffffffffffffffffff1673ffffffffffffffffffffffffffffffffffffffff168152602001908152602001600020600101819055506101f4601060003373ffffffffffffffffffffffffffffffffffffffff1673ffffffffffffffffffffffffffffffffffffffff1681526020019081526020016000206002018190555080601060003373ffffffffffffffffffffffffffffffffffffffff1673ffffffffffffffffffffffffffffffffffffffff168152602001908152602001600020600301908051906020019061262992919061411e565b50601060003373ffffffffffffffffffffffffffffffffffffffff1673ffffffffffffffffffffffffffffffffffffffff1681526020019081526020016000206004016126b4601060003373ffffffffffffffffffffffffffffffffffffffff1673ffffffffffffffffffffffffffffffffffffffff168152602001908152602001600020336134a3565b90806001815401808255809150506001900390600052602060002090600302016000909190919091506000820151816000015560208201518160010155604082015181600201908051906020019061270d92919061411e565b50505061271a600261161b565b6000601060003373ffffffffffffffffffffffffffffffffffffffff1673ffffffffffffffffffffffffffffffffffffffff16815260200190815260200160002060080160006101000a81548160ff0219169083151502179055506001601060003373ffffffffffffffffffffffffffffffffffffffff1673ffffffffffffffffffffffffffffffffffffffff16815260200190815260200160002060080160016101000a81548160ff02191690831515021790555050565b6060600082141561281b576040518060400160405280600181526020017f3000000000000000000000000000000000000000000000000000000000000000815250905061297b565b600082905060005b6000821461284d57808061283690615636565b915050600a82612846919061543a565b9150612823565b60008167ffffffffffffffff81111561288f577f4e487b7100000000000000000000000000000000000000000000000000000000600052604160045260246000fd5b6040519080825280601f01601f1916602001820160405280156128c15781602001600182028036833780820191505090505b5090505b60008514612974576001826128da91906154c5565b9150600a856128e99190615689565b60306128f591906153e4565b60f81b818381518110612931577f4e487b7100000000000000000000000000000000000000000000000000000000600052603260045260246000fd5b60200101907effffffffffffffffffffffffffffffffffffffffffffffffffffffffffffff1916908160001a905350600a8561296d919061543a565b94506128c5565b8093505050505b919050565b60007f01ffc9a7000000000000000000000000000000000000000000000000000000007bffffffffffffffffffffffffffffffffffffffffffffffffffffffff1916827bffffffffffffffffffffffffffffffffffffffffffffffffffffffff1916149050919050565b600033905090565b8151835114612a36576040517f08c379a0000000000000000000000000000000000000000000000000000000008152600401612a2d90615146565b60405180910390fd5b600073ffffffffffffffffffffffffffffffffffffffff168473ffffffffffffffffffffffffffffffffffffffff161415612aa6576040517f08c379a0000000000000000000000000000000000000000000000000000000008152600401612a9d90615086565b60405180910390fd5b6000612ab06129ea565b9050612ac081878787878761380c565b60005b8451811015612cbd576000858281518110612b07577f4e487b7100000000000000000000000000000000000000000000000000000000600052603260045260246000fd5b602002602001015190506000858381518110612b4c577f4e487b7100000000000000000000000000000000000000000000000000000000600052603260045260246000fd5b60200260200101519050600080600084815260200190815260200160002060008b73ffffffffffffffffffffffffffffffffffffffff1673ffffffffffffffffffffffffffffffffffffffff16815260200190815260200160002054905081811015612bed576040517f08c379a0000000000000000000000000000000000000000000000000000000008152600401612be4906150e6565b60405180910390fd5b81810360008085815260200190815260200160002060008c73ffffffffffffffffffffffffffffffffffffffff1673ffffffffffffffffffffffffffffffffffffffff168152602001908152602001600020819055508160008085815260200190815260200160002060008b73ffffffffffffffffffffffffffffffffffffffff1673ffffffffffffffffffffffffffffffffffffffff1681526020019081526020016000206000828254612ca291906153e4565b9250508190555050505080612cb690615636565b9050612ac3565b508473ffffffffffffffffffffffffffffffffffffffff168673ffffffffffffffffffffffffffffffffffffffff168273ffffffffffffffffffffffffffffffffffffffff167f4a39dc06d4c0dbc64b70af90fd698a233a518aa5d07e595d983b8c0526c8f7fb8787604051612d34929190614f37565b60405180910390a4612d4a818787878787613814565b505050505050565b612d5a614231565b612d78826004546001604051806020016040528060008152506139fb565b6000612d85600554611c90565b90506000604051806060016040528083815260200160045481526020016009612daf6004546127d3565b604051602001612dc0929190614dd0565b60405160208183030381529060405281525090508460040181908060018154018082558091505060019003906000526020600020906003020160009091909190915060008201518160000155602082015181600101556040820151816002019080519060200190612e3292919061411e565b50505060046000815480929190612e4890615636565b9190505550809250505092915050565b601060008273ffffffffffffffffffffffffffffffffffffffff1673ffffffffffffffffffffffffffffffffffffffff16815260200190815260200160002060010154601060008373ffffffffffffffffffffffffffffffffffffffff1673ffffffffffffffffffffffffffffffffffffffff168152602001908152602001600020600201819055506000612f31601060008473ffffffffffffffffffffffffffffffffffffffff1673ffffffffffffffffffffffffffffffffffffffff16815260200190815260200160002060040180549050611c90565b9050613008601060008473ffffffffffffffffffffffffffffffffffffffff1673ffffffffffffffffffffffffffffffffffffffff16815260200190815260200160002083601060008673ffffffffffffffffffffffffffffffffffffffff1673ffffffffffffffffffffffffffffffffffffffff1681526020019081526020016000206004018481548110612ff0577f4e487b7100000000000000000000000000000000000000000000000000000000600052603260045260246000fd5b90600052602060002090600302016001015484613b91565b6000601060008473ffffffffffffffffffffffffffffffffffffffff1673ffffffffffffffffffffffffffffffffffffffff16815260200190815260200160002060040180549050141561313d57601060008373ffffffffffffffffffffffffffffffffffffffff1673ffffffffffffffffffffffffffffffffffffffff1681526020019081526020016000206004016130e0601060008573ffffffffffffffffffffffffffffffffffffffff1673ffffffffffffffffffffffffffffffffffffffff168152602001908152602001600020846134a3565b90806001815401808255809150506001900390600052602060002090600302016000909190919091506000820151816000015560208201518160010155604082015181600201908051906020019061313992919061411e565b5050505b5050565b8173ffffffffffffffffffffffffffffffffffffffff168373ffffffffffffffffffffffffffffffffffffffff1614156131b0576040517f08c379a00000000000000000000000000000000000000000000000000000000081526004016131a790615106565b60405180910390fd5b80600160008573ffffffffffffffffffffffffffffffffffffffff1673ffffffffffffffffffffffffffffffffffffffff16815260200190815260200160002060008473ffffffffffffffffffffffffffffffffffffffff1673ffffffffffffffffffffffffffffffffffffffff16815260200190815260200160002060006101000a81548160ff0219169083151502179055508173ffffffffffffffffffffffffffffffffffffffff168373ffffffffffffffffffffffffffffffffffffffff167f17307eab39ab6107e8899845ad3d59bd9653f200f220920489ca2b5937696c31836040516132a19190614f6e565b60405180910390a3505050565b6132cb8484846001604051806020016040528060008152506123f8565b8460008473ffffffffffffffffffffffffffffffffffffffff1673ffffffffffffffffffffffffffffffffffffffff1681526020019081526020016000206004018560008673ffffffffffffffffffffffffffffffffffffffff1673ffffffffffffffffffffffffffffffffffffffff1681526020019081526020016000206004018281548110613385577f4e487b7100000000000000000000000000000000000000000000000000000000600052603260045260246000fd5b90600052602060002090600302019080600181540180825580915050600190039060005260206000209060030201600090919091909150600082015481600001556001820154816001015560028201816002019080546133e4906155d3565b6133ef9291906141a4565b5050508460008573ffffffffffffffffffffffffffffffffffffffff1673ffffffffffffffffffffffffffffffffffffffff168152602001908152602001600020600401818154811061346b577f4e487b7100000000000000000000000000000000000000000000000000000000600052603260045260246000fd5b9060005260206000209060030201600080820160009055600182016000905560028201600061349a9190614252565b50505050505050565b6134ab614231565b6134c88260026001604051806020016040528060008152506139fb565b600060405180606001604052806007548152602001600281526020016040518060400160405280600981526020017f6e65775f73776f726400000000000000000000000000000000000000000000008152508152509050836004018190806001815401808255809150506001900390600052602060002090600302016000909190919091506000820151816000015560208201518160010155604082015181600201908051906020019061357d92919061411e565b5050508091505092915050565b600073ffffffffffffffffffffffffffffffffffffffff168473ffffffffffffffffffffffffffffffffffffffff1614156135fa576040517f08c379a00000000000000000000000000000000000000000000000000000000081526004016135f190615086565b60405180910390fd5b60006136046129ea565b905061362481878761361588613c10565b61361e88613c10565b8761380c565b600080600086815260200190815260200160002060008873ffffffffffffffffffffffffffffffffffffffff1673ffffffffffffffffffffffffffffffffffffffff168152602001908152602001600020549050838110156136bb576040517f08c379a00000000000000000000000000000000000000000000000000000000081526004016136b2906150e6565b60405180910390fd5b83810360008087815260200190815260200160002060008973ffffffffffffffffffffffffffffffffffffffff1673ffffffffffffffffffffffffffffffffffffffff168152602001908152602001600020819055508360008087815260200190815260200160002060008873ffffffffffffffffffffffffffffffffffffffff1673ffffffffffffffffffffffffffffffffffffffff168152602001908152602001600020600082825461377091906153e4565b925050819055508573ffffffffffffffffffffffffffffffffffffffff168773ffffffffffffffffffffffffffffffffffffffff168373ffffffffffffffffffffffffffffffffffffffff167fc3d58168c5ae7397731d063d5bbf3d657854427343f4c083240f7aacaa2d0f6288886040516137ed9291906151c3565b60405180910390a4613803828888888888613cd6565b50505050505050565b505050505050565b6138338473ffffffffffffffffffffffffffffffffffffffff16613ebd565b156139f3578373ffffffffffffffffffffffffffffffffffffffff1663bc197c8187878686866040518663ffffffff1660e01b8152600401613879959493929190614e31565b602060405180830381600087803b15801561389357600080fd5b505af19250505080156138c457506040513d601f19601f820116820180604052508101906138c191906147d4565b60015b61396a576138d0615776565b806308c379a0141561392d57506138e5615c31565b806138f0575061392f565b806040517f08c379a00000000000000000000000000000000000000000000000000000000081526004016139249190614fa4565b60405180910390fd5b505b6040517f08c379a000000000000000000000000000000000000000000000000000000000815260040161396190614fc6565b60405180910390fd5b63bc197c8160e01b7bffffffffffffffffffffffffffffffffffffffffffffffffffffffff1916817bffffffffffffffffffffffffffffffffffffffffffffffffffffffff1916146139f1576040517f08c379a00000000000000000000000000000000000000000000000000000000081526004016139e890614fe6565b60405180910390fd5b505b505050505050565b600073ffffffffffffffffffffffffffffffffffffffff168473ffffffffffffffffffffffffffffffffffffffff161415613a6b576040517f08c379a0000000000000000000000000000000000000000000000000000000008152600401613a6290615166565b60405180910390fd5b6000613a756129ea565b9050613a9681600087613a8788613c10565b613a9088613c10565b8761380c565b8260008086815260200190815260200160002060008773ffffffffffffffffffffffffffffffffffffffff1673ffffffffffffffffffffffffffffffffffffffff1681526020019081526020016000206000828254613af591906153e4565b925050819055508473ffffffffffffffffffffffffffffffffffffffff16600073ffffffffffffffffffffffffffffffffffffffff168273ffffffffffffffffffffffffffffffffffffffff167fc3d58168c5ae7397731d063d5bbf3d657854427343f4c083240f7aacaa2d0f628787604051613b739291906151c3565b60405180910390a4613b8a81600087878787613cd6565b5050505050565b613b9d83836001613ee0565b836004018181548110613bd9577f4e487b7100000000000000000000000000000000000000000000000000000000600052603260045260246000fd5b90600052602060002090600302016000808201600090556001820160009055600282016000613c089190614252565b505050505050565b60606000600167ffffffffffffffff811115613c55577f4e487b7100000000000000000000000000000000000000000000000000000000600052604160045260246000fd5b604051908082528060200260200182016040528015613c835781602001602082028036833780820191505090505b5090508281600081518110613cc1577f4e487b7100000000000000000000000000000000000000000000000000000000600052603260045260246000fd5b60200260200101818152505080915050919050565b613cf58473ffffffffffffffffffffffffffffffffffffffff16613ebd565b15613eb5578373ffffffffffffffffffffffffffffffffffffffff1663f23a6e6187878686866040518663ffffffff1660e01b8152600401613d3b959493929190614e99565b602060405180830381600087803b158015613d5557600080fd5b505af1925050508015613d8657506040513d601f19601f82011682018060405250810190613d8391906147d4565b60015b613e2c57613d92615776565b806308c379a01415613def5750613da7615c31565b80613db25750613df1565b806040517f08c379a0000000000000000000000000000000000000000000000000000000008152600401613de69190614fa4565b60405180910390fd5b505b6040517f08c379a0000000000000000000000000000000000000000000000000000000008152600401613e2390614fc6565b60405180910390fd5b63f23a6e6160e01b7bffffffffffffffffffffffffffffffffffffffffffffffffffffffff1916817bffffffffffffffffffffffffffffffffffffffffffffffffffffffff191614613eb3576040517f08c379a0000000000000000000000000000000000000000000000000000000008152600401613eaa90614fe6565b60405180910390fd5b505b505050505050565b6000808273ffffffffffffffffffffffffffffffffffffffff163b119050919050565b600073ffffffffffffffffffffffffffffffffffffffff168373ffffffffffffffffffffffffffffffffffffffff161415613f50576040517f08c379a0000000000000000000000000000000000000000000000000000000008152600401613f47906150c6565b60405180910390fd5b6000613f5a6129ea565b9050613f8a81856000613f6c87613c10565b613f7587613c10565b6040518060200160405280600081525061380c565b600080600085815260200190815260200160002060008673ffffffffffffffffffffffffffffffffffffffff1673ffffffffffffffffffffffffffffffffffffffff16815260200190815260200160002054905082811015614021576040517f08c379a000000000000000000000000000000000000000000000000000000000815260040161401890615026565b60405180910390fd5b82810360008086815260200190815260200160002060008773ffffffffffffffffffffffffffffffffffffffff1673ffffffffffffffffffffffffffffffffffffffff16815260200190815260200160002081905550600073ffffffffffffffffffffffffffffffffffffffff168573ffffffffffffffffffffffffffffffffffffffff168373ffffffffffffffffffffffffffffffffffffffff167fc3d58168c5ae7397731d063d5bbf3d657854427343f4c083240f7aacaa2d0f6287876040516140ee9291906151c3565b60405180910390a45050505050565b60405180606001604052806000815260200160008152602001606081525090565b82805461412a906155d3565b90600052602060002090601f01602090048101928261414c5760008555614193565b82601f1061416557805160ff1916838001178555614193565b82800160010185558215614193579182015b82811115614192578251825591602001919060010190614177565b5b5090506141a09190614292565b5090565b8280546141b0906155d3565b90600052602060002090601f0160209004810192826141d25760008555614220565b82601f106141e35780548555614220565b8280016001018555821561422057600052602060002091601f016020900482015b8281111561421f578254825591600101919060010190614204565b5b50905061422d9190614292565b5090565b60405180606001604052806000815260200160008152602001606081525090565b50805461425e906155d3565b6000825580601f10614270575061428f565b601f01602090049060005260206000209081019061428e9190614292565b5b50565b5b808211156142ab576000816000905550600101614293565b5090565b60006142c26142bd8461524f565b61522a565b905080838252602082019050828560208602820111156142e157600080fd5b60005b8581101561431157816142f78882614403565b8452602084019350602083019250506001810190506142e4565b5050509392505050565b600061432e6143298461527b565b61522a565b9050808382526020820190508285602086028201111561434d57600080fd5b60005b8581101561437d578161436388826144ff565b845260208401935060208301925050600181019050614350565b5050509392505050565b600061439a614395846152a7565b61522a565b9050828152602081018484840111156143b257600080fd5b6143bd848285615591565b509392505050565b60006143d86143d3846152d8565b61522a565b9050828152602081018484840111156143f057600080fd5b6143fb848285615591565b509392505050565b60008135905061441281615cc7565b92915050565b600082601f83011261442957600080fd5b81356144398482602086016142af565b91505092915050565b600082601f83011261445357600080fd5b813561446384826020860161431b565b91505092915050565b60008135905061447b81615cde565b92915050565b60008135905061449081615cf5565b92915050565b6000815190506144a581615cf5565b92915050565b600082601f8301126144bc57600080fd5b81356144cc848260208601614387565b91505092915050565b600082601f8301126144e657600080fd5b81356144f68482602086016143c5565b91505092915050565b60008135905061450e81615d0c565b92915050565b60006020828403121561452657600080fd5b600061453484828501614403565b91505092915050565b6000806040838503121561455057600080fd5b600061455e85828601614403565b925050602061456f85828601614403565b9150509250929050565b600080600080600060a0868803121561459157600080fd5b600061459f88828901614403565b95505060206145b088828901614403565b945050604086013567ffffffffffffffff8111156145cd57600080fd5b6145d988828901614442565b935050606086013567ffffffffffffffff8111156145f657600080fd5b61460288828901614442565b925050608086013567ffffffffffffffff81111561461f57600080fd5b61462b888289016144ab565b9150509295509295909350565b600080600080600060a0868803121561465057600080fd5b600061465e88828901614403565b955050602061466f88828901614403565b9450506040614680888289016144ff565b9350506060614691888289016144ff565b925050608086013567ffffffffffffffff8111156146ae57600080fd5b6146ba888289016144ab565b9150509295509295909350565b600080604083850312156146da57600080fd5b60006146e885828601614403565b92505060206146f98582860161446c565b9150509250929050565b6000806040838503121561471657600080fd5b600061472485828601614403565b9250506020614735858286016144ff565b9150509250929050565b6000806040838503121561475257600080fd5b600083013567ffffffffffffffff81111561476c57600080fd5b61477885828601614418565b925050602083013567ffffffffffffffff81111561479557600080fd5b6147a185828601614442565b9150509250929050565b6000602082840312156147bd57600080fd5b60006147cb84828501614481565b91505092915050565b6000602082840312156147e657600080fd5b60006147f484828501614496565b91505092915050565b60006020828403121561480f57600080fd5b600082013567ffffffffffffffff81111561482957600080fd5b614835848285016144d5565b91505092915050565b60006020828403121561485057600080fd5b600061485e848285016144ff565b91505092915050565b60006148738383614cfb565b905092915050565b60006148878383614d9b565b60208301905092915050565b61489c816154f9565b82525050565b60006148ad8261533e565b6148b78185615384565b9350836020820285016148c985615309565b8060005b8581101561490557848403895281516148e68582614867565b94506148f18361536a565b925060208a019950506001810190506148cd565b50829750879550505050505092915050565b600061492282615349565b61492c8185615395565b935061493783615319565b8060005b8381101561496857815161494f888261487b565b975061495a83615377565b92505060018101905061493b565b5085935050505092915050565b61497e8161550b565b82525050565b600061498f82615354565b61499981856153a6565b93506149a98185602086016155a0565b6149b281615798565b840191505092915050565b6149c68161556d565b82525050565b60006149d78261535f565b6149e181856153b7565b93506149f18185602086016155a0565b6149fa81615798565b840191505092915050565b6000614a108261535f565b614a1a81856153c8565b9350614a2a8185602086016155a0565b614a3381615798565b840191505092915050565b6000614a498261535f565b614a5381856153d9565b9350614a638185602086016155a0565b80840191505092915050565b60008154614a7c816155d3565b614a8681866153d9565b94506001821660008114614aa15760018114614ab257614ae5565b60ff19831686528186019350614ae5565b614abb85615329565b60005b83811015614add57815481890152600182019150602081019050614abe565b838801955050505b50505092915050565b6000614afb6034836153c8565b9150614b06826157b6565b604082019050919050565b6000614b1e6028836153c8565b9150614b2982615805565b604082019050919050565b6000614b41602b836153c8565b9150614b4c82615854565b604082019050919050565b6000614b646024836153c8565b9150614b6f826158a3565b604082019050919050565b6000614b876029836153c8565b9150614b92826158f2565b604082019050919050565b6000614baa6023836153c8565b9150614bb582615941565b604082019050919050565b6000614bcd6007836153d9565b9150614bd882615990565b600782019050919050565b6000614bf06025836153c8565b9150614bfb826159b9565b604082019050919050565b6000614c136032836153c8565b9150614c1e82615a08565b604082019050919050565b6000614c366023836153c8565b9150614c4182615a57565b604082019050919050565b6000614c59602a836153c8565b9150614c6482615aa6565b604082019050919050565b6000614c7c6029836153c8565b9150614c8782615af5565b604082019050919050565b6000614c9f6029836153c8565b9150614caa82615b44565b604082019050919050565b6000614cc26028836153c8565b9150614ccd82615b93565b604082019050919050565b6000614ce56021836153c8565b9150614cf082615be2565b604082019050919050565b6000606083016000830151614d136000860182614d9b565b506020830151614d266020860182614d9b565b5060408301518482036040860152614d3e82826149cc565b9150508091505092915050565b6000606083016000830151614d636000860182614d9b565b506020830151614d766020860182614d9b565b5060408301518482036040860152614d8e82826149cc565b9150508091505092915050565b614da481615563565b82525050565b614db381615563565b82525050565b614dca614dc582615563565b61567f565b82525050565b6000614ddc8285614a6f565b9150614de88284614a3e565b91508190509392505050565b6000614dff82614bc0565b9150614e0b8284614a3e565b915081905092915050565b6000614e228284614db9565b60208201915081905092915050565b600060a082019050614e466000830188614893565b614e536020830187614893565b8181036040830152614e658186614917565b90508181036060830152614e798185614917565b90508181036080830152614e8d8184614984565b90509695505050505050565b600060a082019050614eae6000830188614893565b614ebb6020830187614893565b614ec86040830186614daa565b614ed56060830185614daa565b8181036080830152614ee78184614984565b90509695505050505050565b60006020820190508181036000830152614f0d81846148a2565b905092915050565b60006020820190508181036000830152614f2f8184614917565b905092915050565b60006040820190508181036000830152614f518185614917565b90508181036020830152614f658184614917565b90509392505050565b6000602082019050614f836000830184614975565b92915050565b6000602082019050614f9e60008301846149bd565b92915050565b60006020820190508181036000830152614fbe8184614a05565b905092915050565b60006020820190508181036000830152614fdf81614aee565b9050919050565b60006020820190508181036000830152614fff81614b11565b9050919050565b6000602082019050818103600083015261501f81614b34565b9050919050565b6000602082019050818103600083015261503f81614b57565b9050919050565b6000602082019050818103600083015261505f81614b7a565b9050919050565b6000602082019050818103600083015261507f81614b9d565b9050919050565b6000602082019050818103600083015261509f81614be3565b9050919050565b600060208201905081810360008301526150bf81614c06565b9050919050565b600060208201905081810360008301526150df81614c29565b9050919050565b600060208201905081810360008301526150ff81614c4c565b9050919050565b6000602082019050818103600083015261511f81614c6f565b9050919050565b6000602082019050818103600083015261513f81614c92565b9050919050565b6000602082019050818103600083015261515f81614cb5565b9050919050565b6000602082019050818103600083015261517f81614cd8565b9050919050565b600060208201905081810360008301526151a08184614d4b565b905092915050565b60006020820190506151bd6000830184614daa565b92915050565b60006040820190506151d86000830185614daa565b6151e56020830184614daa565b9392505050565b60006060820190506152016000830186614daa565b61520e6020830185614daa565b81810360408301526152208184614a05565b9050949350505050565b6000615234615245565b90506152408282615605565b919050565b6000604051905090565b600067ffffffffffffffff82111561526a57615269615747565b5b602082029050602081019050919050565b600067ffffffffffffffff82111561529657615295615747565b5b602082029050602081019050919050565b600067ffffffffffffffff8211156152c2576152c1615747565b5b6152cb82615798565b9050602081019050919050565b600067ffffffffffffffff8211156152f3576152f2615747565b5b6152fc82615798565b9050602081019050919050565b6000819050602082019050919050565b6000819050602082019050919050565b60008190508160005260206000209050919050565b600081519050919050565b600081519050919050565b600081519050919050565b600081519050919050565b6000602082019050919050565b6000602082019050919050565b600082825260208201905092915050565b600082825260208201905092915050565b600082825260208201905092915050565b600082825260208201905092915050565b600082825260208201905092915050565b600081905092915050565b60006153ef82615563565b91506153fa83615563565b9250827fffffffffffffffffffffffffffffffffffffffffffffffffffffffffffffffff0382111561542f5761542e6156ba565b5b828201905092915050565b600061544582615563565b915061545083615563565b9250826154605761545f6156e9565b5b828204905092915050565b600061547682615563565b915061548183615563565b9250817fffffffffffffffffffffffffffffffffffffffffffffffffffffffffffffffff04831182151516156154ba576154b96156ba565b5b828202905092915050565b60006154d082615563565b91506154db83615563565b9250828210156154ee576154ed6156ba565b5b828203905092915050565b600061550482615543565b9050919050565b60008115159050919050565b60007fffffffff0000000000000000000000000000000000000000000000000000000082169050919050565b600073ffffffffffffffffffffffffffffffffffffffff82169050919050565b6000819050919050565b60006155788261557f565b9050919050565b600061558a82615543565b9050919050565b82818337600083830152505050565b60005b838110156155be5780820151818401526020810190506155a3565b838111156155cd576000848401525b50505050565b600060028204905060018216806155eb57607f821691505b602082108114156155ff576155fe615718565b5b50919050565b61560e82615798565b810181811067ffffffffffffffff8211171561562d5761562c615747565b5b80604052505050565b600061564182615563565b91507fffffffffffffffffffffffffffffffffffffffffffffffffffffffffffffffff821415615674576156736156ba565b5b600182019050919050565b6000819050919050565b600061569482615563565b915061569f83615563565b9250826156af576156ae6156e9565b5b828206905092915050565b7f4e487b7100000000000000000000000000000000000000000000000000000000600052601160045260246000fd5b7f4e487b7100000000000000000000000000000000000000000000000000000000600052601260045260246000fd5b7f4e487b7100000000000000000000000000000000000000000000000000000000600052602260045260246000fd5b7f4e487b7100000000000000000000000000000000000000000000000000000000600052604160045260246000fd5b600060033d11156157955760046000803e6157926000516157a9565b90505b90565b6000601f19601f8301169050919050565b60008160e01c9050919050565b7f455243313135353a207472616e7366657220746f206e6f6e204552433131353560008201527f526563656976657220696d706c656d656e746572000000000000000000000000602082015250565b7f455243313135353a204552433131353552656365697665722072656a6563746560008201527f6420746f6b656e73000000000000000000000000000000000000000000000000602082015250565b7f455243313135353a2062616c616e636520717565727920666f7220746865207a60008201527f65726f2061646472657373000000000000000000000000000000000000000000602082015250565b7f455243313135353a206275726e20616d6f756e7420657863656564732062616c60008201527f616e636500000000000000000000000000000000000000000000000000000000602082015250565b7f455243313135353a2063616c6c6572206973206e6f74206f776e6572206e6f7260008201527f20617070726f7665640000000000000000000000000000000000000000000000602082015250565b7f486176656e277420696e697469616c697a65642074686520706c61796572207960008201527f65742e0000000000000000000000000000000000000000000000000000000000602082015250565b7f6d6f6e7374657200000000000000000000000000000000000000000000000000600082015250565b7f455243313135353a207472616e7366657220746f20746865207a65726f20616460008201527f6472657373000000000000000000000000000000000000000000000000000000602082015250565b7f455243313135353a207472616e736665722063616c6c6572206973206e6f742060008201527f6f776e6572206e6f7220617070726f7665640000000000000000000000000000602082015250565b7f455243313135353a206275726e2066726f6d20746865207a65726f206164647260008201527f6573730000000000000000000000000000000000000000000000000000000000602082015250565b7f455243313135353a20696e73756666696369656e742062616c616e636520666f60008201527f72207472616e7366657200000000000000000000000000000000000000000000602082015250565b7f455243313135353a2073657474696e6720617070726f76616c2073746174757360008201527f20666f722073656c660000000000000000000000000000000000000000000000602082015250565b7f455243313135353a206163636f756e747320616e6420696473206c656e67746860008201527f206d69736d617463680000000000000000000000000000000000000000000000602082015250565b7f455243313135353a2069647320616e6420616d6f756e7473206c656e6774682060008201527f6d69736d61746368000000000000000000000000000000000000000000000000602082015250565b7f455243313135353a206d696e7420746f20746865207a65726f2061646472657360008201527f7300000000000000000000000000000000000000000000000000000000000000602082015250565b600060443d1015615c4157615cc4565b615c49615245565b60043d036004823e80513d602482011167ffffffffffffffff82111715615c71575050615cc4565b808201805167ffffffffffffffff811115615c8f5750505050615cc4565b80602083010160043d038501811115615cac575050505050615cc4565b615cbb82602001850186615605565b82955050505050505b90565b615cd0816154f9565b8114615cdb57600080fd5b50565b615ce78161550b565b8114615cf257600080fd5b50565b615cfe81615517565b8114615d0957600080fd5b50565b615d1581615563565b8114615d2057600080fd5b5056fea2646970667358221220bceeb7b290ad1a115c99b6b0e406815c36940c269184e57460ff05c68ff5b45d64736f6c63430008010033",
  "linkReferences": {},
  "deployedLinkReferences": {}
}