{
  "_format": "hh-sol-artifact-1",
  "contractName": "Game",
  "sourceName": "contracts/Game.sol",
  "abi": [
    {
      "anonymous": false,
      "inputs": [
        {
          "indexed": true,
          "internalType": "address",
          "name": "account",
          "type": "address"
        },
        {
          "indexed": true,
          "internalType": "address",
          "name": "operator",
          "type": "address"
        },
        {
          "indexed": false,
          "internalType": "bool",
          "name": "approved",
          "type": "bool"
        }
      ],
      "name": "ApprovalForAll",
      "type": "event"
    },
    {
      "anonymous": false,
      "inputs": [
        {
          "indexed": true,
          "internalType": "address",
          "name": "operator",
          "type": "address"
        },
        {
          "indexed": true,
          "internalType": "address",
          "name": "from",
          "type": "address"
        },
        {
          "indexed": true,
          "internalType": "address",
          "name": "to",
          "type": "address"
        },
        {
          "indexed": false,
          "internalType": "uint256[]",
          "name": "ids",
          "type": "uint256[]"
        },
        {
          "indexed": false,
          "internalType": "uint256[]",
          "name": "values",
          "type": "uint256[]"
        }
      ],
      "name": "TransferBatch",
      "type": "event"
    },
    {
      "anonymous": false,
      "inputs": [
        {
          "indexed": true,
          "internalType": "address",
          "name": "operator",
          "type": "address"
        },
        {
          "indexed": true,
          "internalType": "address",
          "name": "from",
          "type": "address"
        },
        {
          "indexed": true,
          "internalType": "address",
          "name": "to",
          "type": "address"
        },
        {
          "indexed": false,
          "internalType": "uint256",
          "name": "id",
          "type": "uint256"
        },
        {
          "indexed": false,
          "internalType": "uint256",
          "name": "value",
          "type": "uint256"
        }
      ],
      "name": "TransferSingle",
      "type": "event"
    },
    {
      "anonymous": false,
      "inputs": [
        {
          "indexed": false,
          "internalType": "string",
          "name": "value",
          "type": "string"
        },
        {
          "indexed": true,
          "internalType": "uint256",
          "name": "id",
          "type": "uint256"
        }
      ],
      "name": "URI",
      "type": "event"
    },
    {
      "inputs": [],
      "name": "GOLD",
      "outputs": [
        {
          "internalType": "uint256",
          "name": "",
          "type": "uint256"
        }
      ],
      "stateMutability": "view",
      "type": "function"
    },
    {
      "inputs": [],
      "name": "NEW_SWORD",
      "outputs": [
        {
          "internalType": "uint256",
          "name": "",
          "type": "uint256"
        }
      ],
      "stateMutability": "view",
      "type": "function"
    },
    {
      "inputs": [],
      "name": "SILVER",
      "outputs": [
        {
          "internalType": "uint256",
          "name": "",
          "type": "uint256"
        }
      ],
      "stateMutability": "view",
      "type": "function"
    },
    {
      "inputs": [
        {
          "internalType": "uint256",
          "name": "",
          "type": "uint256"
        }
      ],
      "name": "allMonsters",
      "outputs": [
        {
          "internalType": "uint256",
          "name": "attack",
          "type": "uint256"
        },
        {
          "internalType": "uint256",
          "name": "monster_current_health",
          "type": "uint256"
        },
        {
          "internalType": "string",
          "name": "monster_name",
          "type": "string"
        }
      ],
      "stateMutability": "view",
      "type": "function"
    },
    {
      "inputs": [
        {
          "internalType": "uint256",
          "name": "monster_id",
          "type": "uint256"
        }
      ],
      "name": "attack_monster",
      "outputs": [
        {
          "internalType": "bool",
          "name": "result",
          "type": "bool"
        }
      ],
      "stateMutability": "nonpayable",
      "type": "function"
    },
    {
      "inputs": [
        {
          "internalType": "address",
          "name": "account",
          "type": "address"
        },
        {
          "internalType": "uint256",
          "name": "id",
          "type": "uint256"
        }
      ],
      "name": "balanceOf",
      "outputs": [
        {
          "internalType": "uint256",
          "name": "",
          "type": "uint256"
        }
      ],
      "stateMutability": "view",
      "type": "function"
    },
    {
      "inputs": [
        {
          "internalType": "address[]",
          "name": "accounts",
          "type": "address[]"
        },
        {
          "internalType": "uint256[]",
          "name": "ids",
          "type": "uint256[]"
        }
      ],
      "name": "balanceOfBatch",
      "outputs": [
        {
          "internalType": "uint256[]",
          "name": "",
          "type": "uint256[]"
        }
      ],
      "stateMutability": "view",
      "type": "function"
    },
    {
      "inputs": [],
      "name": "create_monster",
      "outputs": [],
      "stateMutability": "nonpayable",
      "type": "function"
    },
    {
      "inputs": [
        {
          "internalType": "address",
          "name": "",
          "type": "address"
        }
      ],
      "name": "duel_match",
      "outputs": [
        {
          "internalType": "address",
          "name": "",
          "type": "address"
        }
      ],
      "stateMutability": "view",
      "type": "function"
    },
    {
      "inputs": [
        {
          "internalType": "uint256",
          "name": "equipment_id",
          "type": "uint256"
        }
      ],
      "name": "equip",
      "outputs": [],
      "stateMutability": "nonpayable",
      "type": "function"
    },
    {
      "inputs": [],
      "name": "equipment_counter",
      "outputs": [
        {
          "internalType": "uint256",
          "name": "",
          "type": "uint256"
        }
      ],
      "stateMutability": "view",
      "type": "function"
    },
    {
      "inputs": [],
      "name": "equipment_maximum_attack",
      "outputs": [
        {
          "internalType": "uint256",
          "name": "",
          "type": "uint256"
        }
      ],
      "stateMutability": "view",
      "type": "function"
    },
    {
      "inputs": [],
      "name": "equipment_minimum_attack",
      "outputs": [
        {
          "internalType": "uint256",
          "name": "",
          "type": "uint256"
        }
      ],
      "stateMutability": "view",
      "type": "function"
    },
    {
      "inputs": [
        {
          "internalType": "address",
          "name": "",
          "type": "address"
        },
        {
          "internalType": "uint256",
          "name": "",
          "type": "uint256"
        }
      ],
      "name": "equipments",
      "outputs": [
        {
          "internalType": "uint256",
          "name": "sword_strength",
          "type": "uint256"
        },
        {
          "internalType": "uint256",
          "name": "id",
          "type": "uint256"
        },
        {
          "internalType": "string",
          "name": "equipment_name",
          "type": "string"
        }
      ],
      "stateMutability": "view",
      "type": "function"
    },
    {
      "inputs": [],
      "name": "get_all_monster",
      "outputs": [
        {
          "components": [
            {
              "internalType": "uint256",
              "name": "attack",
              "type": "uint256"
            },
            {
              "internalType": "uint256",
              "name": "monster_current_health",
              "type": "uint256"
            },
            {
              "internalType": "string",
              "name": "monster_name",
              "type": "string"
            }
          ],
          "internalType": "struct IMonster.Monster[]",
          "name": "",
          "type": "tuple[]"
        }
      ],
      "stateMutability": "view",
      "type": "function"
    },
    {
      "inputs": [
        {
          "internalType": "address",
          "name": "addr",
          "type": "address"
        }
      ],
      "name": "get_current_health",
      "outputs": [
        {
          "internalType": "uint256",
          "name": "",
          "type": "uint256"
        }
      ],
      "stateMutability": "nonpayable",
      "type": "function"
    },
    {
      "inputs": [
        {
          "internalType": "uint256",
          "name": "_index",
          "type": "uint256"
        }
      ],
      "name": "get_monster",
      "outputs": [
        {
          "components": [
            {
              "internalType": "uint256",
              "name": "attack",
              "type": "uint256"
            },
            {
              "internalType": "uint256",
              "name": "monster_current_health",
              "type": "uint256"
            },
            {
              "internalType": "string",
              "name": "monster_name",
              "type": "string"
            }
          ],
          "internalType": "struct IMonster.Monster",
          "name": "name",
          "type": "tuple"
        }
      ],
      "stateMutability": "view",
      "type": "function"
    },
    {
      "inputs": [
        {
          "internalType": "uint256",
          "name": "upperBoundary",
          "type": "uint256"
        }
      ],
      "name": "get_random",
      "outputs": [
        {
          "internalType": "uint256",
          "name": "",
          "type": "uint256"
        }
      ],
      "stateMutability": "nonpayable",
      "type": "function"
    },
    {
      "inputs": [
        {
          "internalType": "address",
          "name": "addr",
          "type": "address"
        }
      ],
      "name": "get_storage",
      "outputs": [
        {
          "components": [
            {
              "internalType": "uint256",
              "name": "sword_strength",
              "type": "uint256"
            },
            {
              "internalType": "uint256",
              "name": "id",
              "type": "uint256"
            },
            {
              "internalType": "string",
              "name": "equipment_name",
              "type": "string"
            }
          ],
          "internalType": "struct IPlayer.Equipment[]",
          "name": "",
          "type": "tuple[]"
        }
      ],
      "stateMutability": "nonpayable",
      "type": "function"
    },
    {
      "inputs": [
        {
          "internalType": "address",
          "name": "addr",
          "type": "address"
        }
      ],
      "name": "get_storage_len",
      "outputs": [
        {
          "internalType": "uint256",
          "name": "",
          "type": "uint256"
        }
      ],
      "stateMutability": "nonpayable",
      "type": "function"
    },
    {
      "inputs": [
        {
          "internalType": "string",
          "name": "_name",
          "type": "string"
        }
      ],
      "name": "initialize",
      "outputs": [],
      "stateMutability": "nonpayable",
      "type": "function"
    },
    {
      "inputs": [
        {
          "internalType": "address",
          "name": "account",
          "type": "address"
        },
        {
          "internalType": "address",
          "name": "operator",
          "type": "address"
        }
      ],
      "name": "isApprovedForAll",
      "outputs": [
        {
          "internalType": "bool",
          "name": "",
          "type": "bool"
        }
      ],
      "stateMutability": "view",
      "type": "function"
    },
    {
      "inputs": [],
      "name": "is_pause",
      "outputs": [
        {
          "internalType": "bool",
          "name": "",
          "type": "bool"
        }
      ],
      "stateMutability": "view",
      "type": "function"
    },
    {
      "inputs": [],
      "name": "monsterCounter",
      "outputs": [
        {
          "internalType": "uint256",
          "name": "",
          "type": "uint256"
        }
      ],
      "stateMutability": "view",
      "type": "function"
    },
    {
      "inputs": [],
      "name": "monster_maximum_attack",
      "outputs": [
        {
          "internalType": "uint256",
          "name": "",
          "type": "uint256"
        }
      ],
      "stateMutability": "view",
      "type": "function"
    },
    {
      "inputs": [],
      "name": "monster_maximum_health",
      "outputs": [
        {
          "internalType": "uint256",
          "name": "",
          "type": "uint256"
        }
      ],
      "stateMutability": "view",
      "type": "function"
    },
    {
      "inputs": [],
      "name": "monster_minimum_attack",
      "outputs": [
        {
          "internalType": "uint256",
          "name": "",
          "type": "uint256"
        }
      ],
      "stateMutability": "view",
      "type": "function"
    },
    {
      "inputs": [],
      "name": "new_sword_attack",
      "outputs": [
        {
          "internalType": "uint256",
          "name": "",
          "type": "uint256"
        }
      ],
      "stateMutability": "view",
      "type": "function"
    },
    {
      "inputs": [],
      "name": "pause",
      "outputs": [],
      "stateMutability": "nonpayable",
      "type": "function"
    },
    {
      "inputs": [
        {
          "internalType": "address",
          "name": "",
          "type": "address"
        }
      ],
      "name": "players",
      "outputs": [
        {
          "internalType": "uint256",
          "name": "attack",
          "type": "uint256"
        },
        {
          "internalType": "uint256",
          "name": "max_health",
          "type": "uint256"
        },
        {
          "internalType": "uint256",
          "name": "current_health",
          "type": "uint256"
        },
        {
          "internalType": "string",
          "name": "player_name",
          "type": "string"
        },
        {
          "components": [
            {
              "internalType": "uint256",
              "name": "sword_strength",
              "type": "uint256"
            },
            {
              "internalType": "uint256",
              "name": "id",
              "type": "uint256"
            },
            {
              "internalType": "string",
              "name": "equipment_name",
              "type": "string"
            }
          ],
          "internalType": "struct IPlayer.Equipment",
          "name": "equipment",
          "type": "tuple"
        },
        {
          "internalType": "bool",
          "name": "is_pending",
          "type": "bool"
        },
        {
          "internalType": "bool",
          "name": "is_initialized",
          "type": "bool"
        }
      ],
      "stateMutability": "view",
      "type": "function"
    },
    {
      "inputs": [],
      "name": "random",
      "outputs": [
        {
          "internalType": "contract Random",
          "name": "",
          "type": "address"
        }
      ],
      "stateMutability": "view",
      "type": "function"
    },
    {
      "inputs": [
        {
          "internalType": "address",
          "name": "from",
          "type": "address"
        },
        {
          "internalType": "address",
          "name": "to",
          "type": "address"
        },
        {
          "internalType": "uint256[]",
          "name": "ids",
          "type": "uint256[]"
        },
        {
          "internalType": "uint256[]",
          "name": "amounts",
          "type": "uint256[]"
        },
        {
          "internalType": "bytes",
          "name": "data",
          "type": "bytes"
        }
      ],
      "name": "safeBatchTransferFrom",
      "outputs": [],
      "stateMutability": "nonpayable",
      "type": "function"
    },
    {
      "inputs": [
        {
          "internalType": "address",
          "name": "from",
          "type": "address"
        },
        {
          "internalType": "address",
          "name": "to",
          "type": "address"
        },
        {
          "internalType": "uint256",
          "name": "id",
          "type": "uint256"
        },
        {
          "internalType": "uint256",
          "name": "amount",
          "type": "uint256"
        },
        {
          "internalType": "bytes",
          "name": "data",
          "type": "bytes"
        }
      ],
      "name": "safeTransferFrom",
      "outputs": [],
      "stateMutability": "nonpayable",
      "type": "function"
    },
    {
      "inputs": [
        {
          "internalType": "address",
          "name": "operator",
          "type": "address"
        },
        {
          "internalType": "bool",
          "name": "approved",
          "type": "bool"
        }
      ],
      "name": "setApprovalForAll",
      "outputs": [],
      "stateMutability": "nonpayable",
      "type": "function"
    },
    {
      "inputs": [
        {
          "internalType": "bytes4",
          "name": "interfaceId",
          "type": "bytes4"
        }
      ],
      "name": "supportsInterface",
      "outputs": [
        {
          "internalType": "bool",
          "name": "",
          "type": "bool"
        }
      ],
      "stateMutability": "view",
      "type": "function"
    },
    {
      "inputs": [],
      "name": "unequip",
      "outputs": [],
      "stateMutability": "nonpayable",
      "type": "function"
    },
    {
      "inputs": [],
      "name": "unpause",
      "outputs": [],
      "stateMutability": "nonpayable",
      "type": "function"
    },
    {
      "inputs": [
        {
          "internalType": "uint256",
          "name": "",
          "type": "uint256"
        }
      ],
      "name": "uri",
      "outputs": [
        {
          "internalType": "string",
          "name": "",
          "type": "string"
        }
      ],
      "stateMutability": "view",
      "type": "function"
    }
  ],
  "bytecode": "0x60806040526003600455600c600555600860065560086007556040518060400160405280600981526020017f65717569706d656e740000000000000000000000000000000000000000000000815250600990805190602001906200006592919062000483565b506014600c55600c600d556008600e556000600f60006101000a81548160ff0219169083151502179055506040518060600160405280600081526020016000815260200160405180602001604052806000815250815250601260008201518160000155602082015181600101556040820151816002019080519060200190620000f092919062000483565b5050503480156200010057600080fd5b506006546040518060200160405280600081525062000125816200014c60201b60201c565b5080600381905550506000600b81905550620001466200016860201b60201c565b62000891565b80600290805190602001906200016492919062000483565b5050565b60006200017d600d546200026760201b60201c565b9050600062000194600c546200026760201b60201c565b9050600a6040518060600160405280848152602001838152602001620001c7600b54620002c160201b620023a41760201c565b604051602001620001d99190620005ac565b6040516020818303038152906040528152509080600181540180825580915050600190039060005260206000209060030201600090919091909150600082015181600001556020820151816001015560408201518160020190805190602001906200024692919062000483565b505050600b60008154809291906200025e906200074b565b91905055505050565b600081600360008154809291906200027f906200074b565b91905055604051602001620002959190620005d2565b6040516020818303038152906040528051906020012060001c620002ba9190620007a3565b9050919050565b606060008214156200030b576040518060400160405280600181526020017f300000000000000000000000000000000000000000000000000000000000000081525090506200047e565b600082905060005b600082146200034357808062000329906200074b565b915050600a826200033b919062000662565b915062000313565b60008167ffffffffffffffff81111562000386577f4e487b7100000000000000000000000000000000000000000000000000000000600052604160045260246000fd5b6040519080825280601f01601f191660200182016040528015620003b95781602001600182028036833780820191505090505b5090505b600085146200047757600182620003d591906200069a565b9150600a85620003e69190620007a3565b6030620003f4919062000605565b60f81b81838151811062000431577f4e487b7100000000000000000000000000000000000000000000000000000000600052603260045260246000fd5b60200101907effffffffffffffffffffffffffffffffffffffffffffffffffffffffffffff1916908160001a905350600a856200046f919062000662565b9450620003bd565b8093505050505b919050565b828054620004919062000715565b90600052602060002090601f016020900481019282620004b5576000855562000501565b82601f10620004d057805160ff191683800117855562000501565b8280016001018555821562000501579182015b8281111562000500578251825591602001919060010190620004e3565b5b50905062000510919062000514565b5090565b5b808211156200052f57600081600090555060010162000515565b5090565b60006200054082620005ef565b6200054c8185620005fa565b93506200055e818560208601620006df565b80840191505092915050565b600062000579600783620005fa565b9150620005868262000868565b600782019050919050565b620005a6620005a082620006d5565b62000799565b82525050565b6000620005b9826200056a565b9150620005c7828462000533565b915081905092915050565b6000620005e0828462000591565b60208201915081905092915050565b600081519050919050565b600081905092915050565b60006200061282620006d5565b91506200061f83620006d5565b9250827fffffffffffffffffffffffffffffffffffffffffffffffffffffffffffffffff03821115620006575762000656620007db565b5b828201905092915050565b60006200066f82620006d5565b91506200067c83620006d5565b9250826200068f576200068e6200080a565b5b828204905092915050565b6000620006a782620006d5565b9150620006b483620006d5565b925082821015620006ca57620006c9620007db565b5b828203905092915050565b6000819050919050565b60005b83811015620006ff578082015181840152602081019050620006e2565b838111156200070f576000848401525b50505050565b600060028204905060018216806200072e57607f821691505b6020821081141562000745576200074462000839565b5b50919050565b60006200075882620006d5565b91507fffffffffffffffffffffffffffffffffffffffffffffffffffffffffffffffff8214156200078e576200078d620007db565b5b600182019050919050565b6000819050919050565b6000620007b082620006d5565b9150620007bd83620006d5565b925082620007d057620007cf6200080a565b5b828206905092915050565b7f4e487b7100000000000000000000000000000000000000000000000000000000600052601160045260246000fd5b7f4e487b7100000000000000000000000000000000000000000000000000000000600052601260045260246000fd5b7f4e487b7100000000000000000000000000000000000000000000000000000000600052602260045260246000fd5b7f6d6f6e7374657200000000000000000000000000000000000000000000000000600082015250565b615a4f80620008a16000396000f3fe608060405234801561001057600080fd5b50600436106102315760003560e01c806382b0868411610130578063bfe58d4f116100b8578063e3e55f081161007c578063e3e55f08146106b0578063e985e9c5146106ce578063f242432a146106fe578063f62d18881461071a578063f6461f1c1461073657610231565b8063bfe58d4f146105dc578063c5897d5b146105fa578063cf7d325f14610618578063de4e8b0d14610648578063e2eb41ff1461067a57610231565b8063adab72bb116100ff578063adab72bb1461054a578063b719a9f114610568578063b85f802714610586578063b8f8fa17146105a2578063b9c2edf7146105d257610231565b806382b08684146104fc5780638456cb591461051a5780639caa7fd014610524578063a22cb4651461052e57610231565b80633f4ba83a116101be578063536d6f1f11610182578063536d6f1f146104545780635ec01e4d1461047257806368c405ef14610490578063710882a0146104ae5780637e14ab4a146104de57610231565b80633f4ba83a146103c05780634e1273f4146103ca5780634e9493a8146103fa578063500e9fdc146104185780635163191f1461043657610231565b80631c6e74f2116102055780631c6e74f2146102f65780632d327d73146103265780632eb2c2d614610356578063355b0370146103725780633e4bee38146103a257610231565b8062fdd58e1461023657806301ffc9a7146102665780630486c2ed146102965780630e89341c146102c6575b600080fd5b610250600480360381019061024b91906140df565b610768565b60405161025d9190614d70565b60405180910390f35b610280600480360381019061027b9190614187565b610831565b60405161028d9190614af6565b60405180910390f35b6102b060048036038101906102ab9190613ef0565b610913565b6040516102bd9190614d70565b60405180910390f35b6102e060048036038101906102db919061421a565b61095f565b6040516102ed9190614b2c565b60405180910390f35b610310600480360381019061030b919061421a565b6109f3565b60405161031d9190614d4e565b60405180910390f35b610340600480360381019061033b9190613ef0565b610b01565b60405161034d9190614d70565b60405180910390f35b610370600480360381019061036b9190613f55565b610b4d565b005b61038c6004803603810190610387919061421a565b610bee565b6040516103999190614af6565b60405180910390f35b6103aa610f7f565b6040516103b79190614d70565b60405180910390f35b6103c8610f84565b005b6103e460048036038101906103df919061411b565b610fa1565b6040516103f19190614a9d565b60405180910390f35b610402611152565b60405161040f9190614d70565b60405180910390f35b610420611158565b60405161042d9190614d70565b60405180910390f35b61043e61115e565b60405161044b9190614d70565b60405180910390f35b61045c611163565b6040516104699190614d70565b60405180910390f35b61047a611169565b6040516104879190614b11565b60405180910390f35b61049861118f565b6040516104a59190614d70565b60405180910390f35b6104c860048036038101906104c39190613ef0565b611195565b6040516104d59190614a59565b60405180910390f35b6104e66112d9565b6040516104f39190614af6565b60405180910390f35b6105046112ec565b6040516105119190614a7b565b60405180910390f35b6105226113f1565b005b61052c61140e565b005b610548600480360381019061054391906140a3565b6114ea565b005b610552611500565b60405161055f9190614d70565b60405180910390f35b610570611506565b60405161057d9190614d70565b60405180910390f35b6105a0600480360381019061059b919061421a565b61150c565b005b6105bc60048036038101906105b79190613ef0565b611932565b6040516105c9919061497c565b60405180910390f35b6105da611965565b005b6105e4611ba8565b6040516105f19190614d70565b60405180910390f35b610602611bae565b60405161060f9190614d70565b60405180910390f35b610632600480360381019061062d919061421a565b611bb4565b60405161063f9190614d70565b60405180910390f35b610662600480360381019061065d919061421a565b611c08565b60405161067193929190614db4565b60405180910390f35b610694600480360381019061068f9190613ef0565b611cca565b6040516106a79796959493929190614df2565b60405180910390f35b6106b8611e5e565b6040516106c59190614d70565b60405180910390f35b6106e860048036038101906106e39190613f19565b611e63565b6040516106f59190614af6565b60405180910390f35b61071860048036038101906107139190614014565b611ef7565b005b610734600480360381019061072f91906141d9565b611f98565b005b610750600480360381019061074b91906140df565b6122d5565b60405161075f93929190614db4565b60405180910390f35b60008073ffffffffffffffffffffffffffffffffffffffff168373ffffffffffffffffffffffffffffffffffffffff1614156107d9576040517f08c379a00000000000000000000000000000000000000000000000000000000081526004016107d090614b8e565b60405180910390fd5b60008083815260200190815260200160002060008473ffffffffffffffffffffffffffffffffffffffff1673ffffffffffffffffffffffffffffffffffffffff16815260200190815260200160002054905092915050565b60007fd9b67a26000000000000000000000000000000000000000000000000000000007bffffffffffffffffffffffffffffffffffffffffffffffffffffffff1916827bffffffffffffffffffffffffffffffffffffffffffffffffffffffff191614806108fc57507f0e89341c000000000000000000000000000000000000000000000000000000007bffffffffffffffffffffffffffffffffffffffffffffffffffffffff1916827bffffffffffffffffffffffffffffffffffffffffffffffffffffffff1916145b8061090c575061090b82612551565b5b9050919050565b6000601560008373ffffffffffffffffffffffffffffffffffffffff1673ffffffffffffffffffffffffffffffffffffffff168152602001908152602001600020805490509050919050565b60606002805461096e90615251565b80601f016020809104026020016040519081016040528092919081815260200182805461099a90615251565b80156109e75780601f106109bc576101008083540402835291602001916109e7565b820191906000526020600020905b8154815290600101906020018083116109ca57829003601f168201915b50505050509050919050565b6109fb613ad9565b6000600a8381548110610a37577f4e487b7100000000000000000000000000000000000000000000000000000000600052603260045260246000fd5b90600052602060002090600302019050806040518060600160405290816000820154815260200160018201548152602001600282018054610a7790615251565b80601f0160208091040260200160405190810160405280929190818152602001828054610aa390615251565b8015610af05780601f10610ac557610100808354040283529160200191610af0565b820191906000526020600020905b815481529060010190602001808311610ad357829003601f168201915b505050505081525050915050919050565b6000601060008373ffffffffffffffffffffffffffffffffffffffff1673ffffffffffffffffffffffffffffffffffffffff168152602001908152602001600020600201549050919050565b610b556125bb565b73ffffffffffffffffffffffffffffffffffffffff168573ffffffffffffffffffffffffffffffffffffffff161480610b9b5750610b9a85610b956125bb565b611e63565b5b610bda576040517f08c379a0000000000000000000000000000000000000000000000000000000008152600401610bd190614c4e565b60405180910390fd5b610be785858585856125c3565b5050505050565b600060011515601060003373ffffffffffffffffffffffffffffffffffffffff1673ffffffffffffffffffffffffffffffffffffffff16815260200190815260200160002060080160019054906101000a900460ff16151514610c86576040517f08c379a0000000000000000000000000000000000000000000000000000000008152600401610c7d90614c0e565b60405180910390fd5b6000600a8054905011610cce576040517f08c379a0000000000000000000000000000000000000000000000000000000008152600401610cc590614cae565b60405180910390fd5b60008210158015610ce35750600a8054905082105b610d22576040517f08c379a0000000000000000000000000000000000000000000000000000000008152600401610d1990614bce565b60405180910390fd5b6000600a8381548110610d5e577f4e487b7100000000000000000000000000000000000000000000000000000000600052603260045260246000fd5b906000526020600020906003020160000154601060003373ffffffffffffffffffffffffffffffffffffffff1673ffffffffffffffffffffffffffffffffffffffff16815260200190815260200160002060020154610dbd91906150b8565b90506000601060003373ffffffffffffffffffffffffffffffffffffffff1673ffffffffffffffffffffffffffffffffffffffff16815260200190815260200160002060000154600a8581548110610e3e577f4e487b7100000000000000000000000000000000000000000000000000000000600052603260045260246000fd5b906000526020600020906003020160010154610e5a91906150b8565b9050818111610f6a5760019250600a8481548110610ea1577f4e487b7100000000000000000000000000000000000000000000000000000000600052603260045260246000fd5b90600052602060002090600302016000015481610ebe91906150e9565b601060003373ffffffffffffffffffffffffffffffffffffffff1673ffffffffffffffffffffffffffffffffffffffff1681526020019081526020016000206002016000828254610f0f9190615143565b92505081905550610f5e601060003373ffffffffffffffffffffffffffffffffffffffff1673ffffffffffffffffffffffffffffffffffffffff16815260200190815260200160002033612923565b50600192505050610f7a565b610f7333612a29565b6000925050505b919050565b600081565b6000600f60006101000a81548160ff021916908315150217905550565b60608151835114610fe7576040517f08c379a0000000000000000000000000000000000000000000000000000000008152600401610fde90614cee565b60405180910390fd5b6000835167ffffffffffffffff81111561102a577f4e487b7100000000000000000000000000000000000000000000000000000000600052604160045260246000fd5b6040519080825280602002602001820160405280156110585781602001602082028036833780820191505090505b50905060005b8451811015611147576110f18582815181106110a3577f4e487b7100000000000000000000000000000000000000000000000000000000600052603260045260246000fd5b60200260200101518583815181106110e4577f4e487b7100000000000000000000000000000000000000000000000000000000600052603260045260246000fd5b6020026020010151610768565b82828151811061112a577f4e487b7100000000000000000000000000000000000000000000000000000000600052603260045260246000fd5b60200260200101818152505080611140906152b4565b905061105e565b508091505092915050565b600d5481565b60065481565b600281565b600e5481565b600860009054906101000a900473ffffffffffffffffffffffffffffffffffffffff1681565b600b5481565b6060601560008373ffffffffffffffffffffffffffffffffffffffff1673ffffffffffffffffffffffffffffffffffffffff168152602001908152602001600020805480602002602001604051908101604052809291908181526020016000905b828210156112ce5783829060005260206000209060030201604051806060016040529081600082015481526020016001820154815260200160028201805461123d90615251565b80601f016020809104026020016040519081016040528092919081815260200182805461126990615251565b80156112b65780601f1061128b576101008083540402835291602001916112b6565b820191906000526020600020905b81548152906001019060200180831161129957829003601f168201915b505050505081525050815260200190600101906111f6565b505050509050919050565b600f60009054906101000a900460ff1681565b6060600a805480602002602001604051908101604052809291908181526020016000905b828210156113e85783829060005260206000209060030201604051806060016040529081600082015481526020016001820154815260200160028201805461135790615251565b80601f016020809104026020016040519081016040528092919081815260200182805461138390615251565b80156113d05780601f106113a5576101008083540402835291602001916113d0565b820191906000526020600020905b8154815290600101906020018083116113b357829003601f168201915b50505050508152505081526020019060010190611310565b50505050905090565b6001600f60006101000a81548160ff021916908315150217905550565b600061141b600d54611bb4565b9050600061142a600c54611bb4565b9050600a6040518060600160405280848152602001838152602001611450600b546123a4565b604051602001611460919061493f565b6040516020818303038152906040528152509080600181540180825580915050600190039060005260206000209060030201600090919091909150600082015181600001556020820151816001015560408201518160020190805190602001906114cb929190613afa565b505050600b60008154809291906114e1906152b4565b91905055505050565b6114fc6114f56125bb565b8383612d12565b5050565b60045481565b600c5481565b60011515601060003373ffffffffffffffffffffffffffffffffffffffff1673ffffffffffffffffffffffffffffffffffffffff16815260200190815260200160002060080160019054906101000a900460ff161515146115a2576040517f08c379a000000000000000000000000000000000000000000000000000000000815260040161159990614c0e565b60405180910390fd5b600080601260010154601060003373ffffffffffffffffffffffffffffffffffffffff1673ffffffffffffffffffffffffffffffffffffffff16815260200190815260200160002060050160010154146115fb57600080fd5b600090505b601060003373ffffffffffffffffffffffffffffffffffffffff1673ffffffffffffffffffffffffffffffffffffffff168152602001908152602001600020600401805490508110156116fc5782601060003373ffffffffffffffffffffffffffffffffffffffff1673ffffffffffffffffffffffffffffffffffffffff16815260200190815260200160002060040182815481106116c8577f4e487b7100000000000000000000000000000000000000000000000000000000600052603260045260246000fd5b90600052602060002090600302016001015414156116e957600191506116fc565b80806116f4906152b4565b915050611600565b600115158215151461170d57600080fd5b601060003373ffffffffffffffffffffffffffffffffffffffff1673ffffffffffffffffffffffffffffffffffffffff1681526020019081526020016000206004018181548110611787577f4e487b7100000000000000000000000000000000000000000000000000000000600052603260045260246000fd5b906000526020600020906003020160000154601060003373ffffffffffffffffffffffffffffffffffffffff1673ffffffffffffffffffffffffffffffffffffffff168152602001908152602001600020600001546117e69190615062565b601060003373ffffffffffffffffffffffffffffffffffffffff1673ffffffffffffffffffffffffffffffffffffffff16815260200190815260200160002060000181905550601060003373ffffffffffffffffffffffffffffffffffffffff1673ffffffffffffffffffffffffffffffffffffffff16815260200190815260200160002060040181815481106118a6577f4e487b7100000000000000000000000000000000000000000000000000000000600052603260045260246000fd5b9060005260206000209060030201601060003373ffffffffffffffffffffffffffffffffffffffff1673ffffffffffffffffffffffffffffffffffffffff1681526020019081526020016000206005016000820154816000015560018201548160010155600282018160020190805461191e90615251565b611929929190613b80565b50905050505050565b60116020528060005260406000206000915054906101000a900473ffffffffffffffffffffffffffffffffffffffff1681565b60011515601060003373ffffffffffffffffffffffffffffffffffffffff1673ffffffffffffffffffffffffffffffffffffffff16815260200190815260200160002060080160019054906101000a900460ff161515146119fb576040517f08c379a00000000000000000000000000000000000000000000000000000000081526004016119f290614c0e565b60405180910390fd5b601260010154601060003373ffffffffffffffffffffffffffffffffffffffff1673ffffffffffffffffffffffffffffffffffffffff168152602001908152602001600020600501600101541415611a5257600080fd5b601060003373ffffffffffffffffffffffffffffffffffffffff1673ffffffffffffffffffffffffffffffffffffffff16815260200190815260200160002060050160000154601060003373ffffffffffffffffffffffffffffffffffffffff1673ffffffffffffffffffffffffffffffffffffffff16815260200190815260200160002060000154611ae59190615143565b601060003373ffffffffffffffffffffffffffffffffffffffff1673ffffffffffffffffffffffffffffffffffffffff168152602001908152602001600020600001819055506012601060003373ffffffffffffffffffffffffffffffffffffffff1673ffffffffffffffffffffffffffffffffffffffff16815260200190815260200160002060050160008201548160000155600182015481600101556002820181600201908054611b9790615251565b611ba2929190613b80565b50905050565b60055481565b60075481565b60008160036000815480929190611bca906152b4565b91905055604051602001611bde9190614961565b6040516020818303038152906040528051906020012060001c611c019190615307565b9050919050565b600a8181548110611c1857600080fd5b9060005260206000209060030201600091509050806000015490806001015490806002018054611c4790615251565b80601f0160208091040260200160405190810160405280929190818152602001828054611c7390615251565b8015611cc05780601f10611c9557610100808354040283529160200191611cc0565b820191906000526020600020905b815481529060010190602001808311611ca357829003601f168201915b5050505050905083565b6010602052806000526040600020600091509050806000015490806001015490806002015490806003018054611cff90615251565b80601f0160208091040260200160405190810160405280929190818152602001828054611d2b90615251565b8015611d785780601f10611d4d57610100808354040283529160200191611d78565b820191906000526020600020905b815481529060010190602001808311611d5b57829003601f168201915b505050505090806005016040518060600160405290816000820154815260200160018201548152602001600282018054611db190615251565b80601f0160208091040260200160405190810160405280929190818152602001828054611ddd90615251565b8015611e2a5780601f10611dff57610100808354040283529160200191611e2a565b820191906000526020600020905b815481529060010190602001808311611e0d57829003601f168201915b505050505081525050908060080160009054906101000a900460ff16908060080160019054906101000a900460ff16905087565b600181565b6000600160008473ffffffffffffffffffffffffffffffffffffffff1673ffffffffffffffffffffffffffffffffffffffff16815260200190815260200160002060008373ffffffffffffffffffffffffffffffffffffffff1673ffffffffffffffffffffffffffffffffffffffff16815260200190815260200160002060009054906101000a900460ff16905092915050565b611eff6125bb565b73ffffffffffffffffffffffffffffffffffffffff168573ffffffffffffffffffffffffffffffffffffffff161480611f455750611f4485611f3f6125bb565b611e63565b5b611f84576040517f08c379a0000000000000000000000000000000000000000000000000000000008152600401611f7b90614bee565b60405180910390fd5b611f918585858585612e7f565b5050505050565b60001515601060003373ffffffffffffffffffffffffffffffffffffffff1673ffffffffffffffffffffffffffffffffffffffff16815260200190815260200160002060080160019054906101000a900460ff16151514611ff857600080fd5b6064601060003373ffffffffffffffffffffffffffffffffffffffff1673ffffffffffffffffffffffffffffffffffffffff168152602001908152602001600020600001819055506101f4601060003373ffffffffffffffffffffffffffffffffffffffff1673ffffffffffffffffffffffffffffffffffffffff168152602001908152602001600020600101819055506101f4601060003373ffffffffffffffffffffffffffffffffffffffff1673ffffffffffffffffffffffffffffffffffffffff1681526020019081526020016000206002018190555080601060003373ffffffffffffffffffffffffffffffffffffffff1673ffffffffffffffffffffffffffffffffffffffff1681526020019081526020016000206003019080519060200190612128929190613afa565b506001601060003373ffffffffffffffffffffffffffffffffffffffff1673ffffffffffffffffffffffffffffffffffffffff16815260200190815260200160002060080160016101000a81548160ff021916908315150217905550601560003373ffffffffffffffffffffffffffffffffffffffff1673ffffffffffffffffffffffffffffffffffffffff168152602001908152602001600020601290806001815401808255809150506001900390600052602060002090600302016000909190919091506000820154816000015560018201548160010155600282018160020190805461221690615251565b612221929190613b80565b50505061226c601060003373ffffffffffffffffffffffffffffffffffffffff1673ffffffffffffffffffffffffffffffffffffffff16815260200190815260200160002033613101565b50612277600261150c565b6000601060003373ffffffffffffffffffffffffffffffffffffffff1673ffffffffffffffffffffffffffffffffffffffff16815260200190815260200160002060080160006101000a81548160ff02191690831515021790555050565b601560205281600052604060002081815481106122f157600080fd5b90600052602060002090600302016000915091505080600001549080600101549080600201805461232190615251565b80601f016020809104026020016040519081016040528092919081815260200182805461234d90615251565b801561239a5780601f1061236f5761010080835404028352916020019161239a565b820191906000526020600020905b81548152906001019060200180831161237d57829003601f168201915b5050505050905083565b606060008214156123ec576040518060400160405280600181526020017f3000000000000000000000000000000000000000000000000000000000000000815250905061254c565b600082905060005b6000821461241e578080612407906152b4565b915050600a8261241791906150b8565b91506123f4565b60008167ffffffffffffffff811115612460577f4e487b7100000000000000000000000000000000000000000000000000000000600052604160045260246000fd5b6040519080825280601f01601f1916602001820160405280156124925781602001600182028036833780820191505090505b5090505b60008514612545576001826124ab9190615143565b9150600a856124ba9190615307565b60306124c69190615062565b60f81b818381518110612502577f4e487b7100000000000000000000000000000000000000000000000000000000600052603260045260246000fd5b60200101907effffffffffffffffffffffffffffffffffffffffffffffffffffffffffffff1916908160001a905350600a8561253e91906150b8565b9450612496565b8093505050505b919050565b60007f01ffc9a7000000000000000000000000000000000000000000000000000000007bffffffffffffffffffffffffffffffffffffffffffffffffffffffff1916827bffffffffffffffffffffffffffffffffffffffffffffffffffffffff1916149050919050565b600033905090565b8151835114612607576040517f08c379a00000000000000000000000000000000000000000000000000000000081526004016125fe90614d0e565b60405180910390fd5b600073ffffffffffffffffffffffffffffffffffffffff168473ffffffffffffffffffffffffffffffffffffffff161415612677576040517f08c379a000000000000000000000000000000000000000000000000000000000815260040161266e90614c2e565b60405180910390fd5b60006126816125bb565b90506126918187878787876131e8565b60005b845181101561288e5760008582815181106126d8577f4e487b7100000000000000000000000000000000000000000000000000000000600052603260045260246000fd5b60200260200101519050600085838151811061271d577f4e487b7100000000000000000000000000000000000000000000000000000000600052603260045260246000fd5b60200260200101519050600080600084815260200190815260200160002060008b73ffffffffffffffffffffffffffffffffffffffff1673ffffffffffffffffffffffffffffffffffffffff168152602001908152602001600020549050818110156127be576040517f08c379a00000000000000000000000000000000000000000000000000000000081526004016127b590614c8e565b60405180910390fd5b81810360008085815260200190815260200160002060008c73ffffffffffffffffffffffffffffffffffffffff1673ffffffffffffffffffffffffffffffffffffffff168152602001908152602001600020819055508160008085815260200190815260200160002060008b73ffffffffffffffffffffffffffffffffffffffff1673ffffffffffffffffffffffffffffffffffffffff16815260200190815260200160002060008282546128739190615062565b9250508190555050505080612887906152b4565b9050612694565b508473ffffffffffffffffffffffffffffffffffffffff168673ffffffffffffffffffffffffffffffffffffffff168273ffffffffffffffffffffffffffffffffffffffff167f4a39dc06d4c0dbc64b70af90fd698a233a518aa5d07e595d983b8c0526c8f7fb8787604051612905929190614abf565b60405180910390a461291b8187878787876131f0565b505050505050565b61292b613c0d565b612949826004546001604051806020016040528060008152506133d7565b6000612956600554611bb4565b905060006040518060600160405280838152602001600454815260200160096129806004546123a4565b60405160200161299192919061491b565b60405160208183030381529060405281525090508460040181908060018154018082558091505060019003906000526020600020906003020160009091909190915060008201518160000155602082015181600101556040820151816002019080519060200190612a03929190613afa565b50505060046000815480929190612a19906152b4565b9190505550809250505092915050565b601060008273ffffffffffffffffffffffffffffffffffffffff1673ffffffffffffffffffffffffffffffffffffffff16815260200190815260200160002060010154601060008373ffffffffffffffffffffffffffffffffffffffff1673ffffffffffffffffffffffffffffffffffffffff168152602001908152602001600020600201819055506000612b02601060008473ffffffffffffffffffffffffffffffffffffffff1673ffffffffffffffffffffffffffffffffffffffff16815260200190815260200160002060040180549050611bb4565b9050612bd9601060008473ffffffffffffffffffffffffffffffffffffffff1673ffffffffffffffffffffffffffffffffffffffff16815260200190815260200160002083601060008673ffffffffffffffffffffffffffffffffffffffff1673ffffffffffffffffffffffffffffffffffffffff1681526020019081526020016000206004018481548110612bc1577f4e487b7100000000000000000000000000000000000000000000000000000000600052603260045260246000fd5b9060005260206000209060030201600101548461356d565b6000601060008473ffffffffffffffffffffffffffffffffffffffff1673ffffffffffffffffffffffffffffffffffffffff168152602001908152602001600020600401805490501415612d0e57601060008373ffffffffffffffffffffffffffffffffffffffff1673ffffffffffffffffffffffffffffffffffffffff168152602001908152602001600020600401612cb1601060008573ffffffffffffffffffffffffffffffffffffffff1673ffffffffffffffffffffffffffffffffffffffff16815260200190815260200160002084613101565b908060018154018082558091505060019003906000526020600020906003020160009091909190915060008201518160000155602082015181600101556040820151816002019080519060200190612d0a929190613afa565b5050505b5050565b8173ffffffffffffffffffffffffffffffffffffffff168373ffffffffffffffffffffffffffffffffffffffff161415612d81576040517f08c379a0000000000000000000000000000000000000000000000000000000008152600401612d7890614cce565b60405180910390fd5b80600160008573ffffffffffffffffffffffffffffffffffffffff1673ffffffffffffffffffffffffffffffffffffffff16815260200190815260200160002060008473ffffffffffffffffffffffffffffffffffffffff1673ffffffffffffffffffffffffffffffffffffffff16815260200190815260200160002060006101000a81548160ff0219169083151502179055508173ffffffffffffffffffffffffffffffffffffffff168373ffffffffffffffffffffffffffffffffffffffff167f17307eab39ab6107e8899845ad3d59bd9653f200f220920489ca2b5937696c3183604051612e729190614af6565b60405180910390a3505050565b600073ffffffffffffffffffffffffffffffffffffffff168473ffffffffffffffffffffffffffffffffffffffff161415612eef576040517f08c379a0000000000000000000000000000000000000000000000000000000008152600401612ee690614c2e565b60405180910390fd5b6000612ef96125bb565b9050612f19818787612f0a886135ec565b612f13886135ec565b876131e8565b600080600086815260200190815260200160002060008873ffffffffffffffffffffffffffffffffffffffff1673ffffffffffffffffffffffffffffffffffffffff16815260200190815260200160002054905083811015612fb0576040517f08c379a0000000000000000000000000000000000000000000000000000000008152600401612fa790614c8e565b60405180910390fd5b83810360008087815260200190815260200160002060008973ffffffffffffffffffffffffffffffffffffffff1673ffffffffffffffffffffffffffffffffffffffff168152602001908152602001600020819055508360008087815260200190815260200160002060008873ffffffffffffffffffffffffffffffffffffffff1673ffffffffffffffffffffffffffffffffffffffff16815260200190815260200160002060008282546130659190615062565b925050819055508573ffffffffffffffffffffffffffffffffffffffff168773ffffffffffffffffffffffffffffffffffffffff168373ffffffffffffffffffffffffffffffffffffffff167fc3d58168c5ae7397731d063d5bbf3d657854427343f4c083240f7aacaa2d0f6288886040516130e2929190614d8b565b60405180910390a46130f88288888888886136b2565b50505050505050565b613109613c0d565b6131268260026001604051806020016040528060008152506133d7565b600060405180606001604052806007548152602001600281526020016040518060400160405280600981526020017f6e65775f73776f72640000000000000000000000000000000000000000000000815250815250905083600401819080600181540180825580915050600190039060005260206000209060030201600090919091909150600082015181600001556020820151816001015560408201518160020190805190602001906131db929190613afa565b5050508091505092915050565b505050505050565b61320f8473ffffffffffffffffffffffffffffffffffffffff16613899565b156133cf578373ffffffffffffffffffffffffffffffffffffffff1663bc197c8187878686866040518663ffffffff1660e01b8152600401613255959493929190614997565b602060405180830381600087803b15801561326f57600080fd5b505af19250505080156132a057506040513d601f19601f8201168201806040525081019061329d91906141b0565b60015b613346576132ac6153f4565b806308c379a0141561330957506132c1615927565b806132cc575061330b565b806040517f08c379a00000000000000000000000000000000000000000000000000000000081526004016133009190614b2c565b60405180910390fd5b505b6040517f08c379a000000000000000000000000000000000000000000000000000000000815260040161333d90614b4e565b60405180910390fd5b63bc197c8160e01b7bffffffffffffffffffffffffffffffffffffffffffffffffffffffff1916817bffffffffffffffffffffffffffffffffffffffffffffffffffffffff1916146133cd576040517f08c379a00000000000000000000000000000000000000000000000000000000081526004016133c490614b6e565b60405180910390fd5b505b505050505050565b600073ffffffffffffffffffffffffffffffffffffffff168473ffffffffffffffffffffffffffffffffffffffff161415613447576040517f08c379a000000000000000000000000000000000000000000000000000000000815260040161343e90614d2e565b60405180910390fd5b60006134516125bb565b905061347281600087613463886135ec565b61346c886135ec565b876131e8565b8260008086815260200190815260200160002060008773ffffffffffffffffffffffffffffffffffffffff1673ffffffffffffffffffffffffffffffffffffffff16815260200190815260200160002060008282546134d19190615062565b925050819055508473ffffffffffffffffffffffffffffffffffffffff16600073ffffffffffffffffffffffffffffffffffffffff168273ffffffffffffffffffffffffffffffffffffffff167fc3d58168c5ae7397731d063d5bbf3d657854427343f4c083240f7aacaa2d0f62878760405161354f929190614d8b565b60405180910390a4613566816000878787876136b2565b5050505050565b613579838360016138bc565b8360040181815481106135b5577f4e487b7100000000000000000000000000000000000000000000000000000000600052603260045260246000fd5b906000526020600020906003020160008082016000905560018201600090556002820160006135e49190613c2e565b505050505050565b60606000600167ffffffffffffffff811115613631577f4e487b7100000000000000000000000000000000000000000000000000000000600052604160045260246000fd5b60405190808252806020026020018201604052801561365f5781602001602082028036833780820191505090505b509050828160008151811061369d577f4e487b7100000000000000000000000000000000000000000000000000000000600052603260045260246000fd5b60200260200101818152505080915050919050565b6136d18473ffffffffffffffffffffffffffffffffffffffff16613899565b15613891578373ffffffffffffffffffffffffffffffffffffffff1663f23a6e6187878686866040518663ffffffff1660e01b81526004016137179594939291906149ff565b602060405180830381600087803b15801561373157600080fd5b505af192505050801561376257506040513d601f19601f8201168201806040525081019061375f91906141b0565b60015b6138085761376e6153f4565b806308c379a014156137cb5750613783615927565b8061378e57506137cd565b806040517f08c379a00000000000000000000000000000000000000000000000000000000081526004016137c29190614b2c565b60405180910390fd5b505b6040517f08c379a00000000000000000000000000000000000000000000000000000000081526004016137ff90614b4e565b60405180910390fd5b63f23a6e6160e01b7bffffffffffffffffffffffffffffffffffffffffffffffffffffffff1916817bffffffffffffffffffffffffffffffffffffffffffffffffffffffff19161461388f576040517f08c379a000000000000000000000000000000000000000000000000000000000815260040161388690614b6e565b60405180910390fd5b505b505050505050565b6000808273ffffffffffffffffffffffffffffffffffffffff163b119050919050565b600073ffffffffffffffffffffffffffffffffffffffff168373ffffffffffffffffffffffffffffffffffffffff16141561392c576040517f08c379a000000000000000000000000000000000000000000000000000000000815260040161392390614c6e565b60405180910390fd5b60006139366125bb565b905061396681856000613948876135ec565b613951876135ec565b604051806020016040528060008152506131e8565b600080600085815260200190815260200160002060008673ffffffffffffffffffffffffffffffffffffffff1673ffffffffffffffffffffffffffffffffffffffff168152602001908152602001600020549050828110156139fd576040517f08c379a00000000000000000000000000000000000000000000000000000000081526004016139f490614bae565b60405180910390fd5b82810360008086815260200190815260200160002060008773ffffffffffffffffffffffffffffffffffffffff1673ffffffffffffffffffffffffffffffffffffffff16815260200190815260200160002081905550600073ffffffffffffffffffffffffffffffffffffffff168573ffffffffffffffffffffffffffffffffffffffff168373ffffffffffffffffffffffffffffffffffffffff167fc3d58168c5ae7397731d063d5bbf3d657854427343f4c083240f7aacaa2d0f628787604051613aca929190614d8b565b60405180910390a45050505050565b60405180606001604052806000815260200160008152602001606081525090565b828054613b0690615251565b90600052602060002090601f016020900481019282613b285760008555613b6f565b82601f10613b4157805160ff1916838001178555613b6f565b82800160010185558215613b6f579182015b82811115613b6e578251825591602001919060010190613b53565b5b509050613b7c9190613c6e565b5090565b828054613b8c90615251565b90600052602060002090601f016020900481019282613bae5760008555613bfc565b82601f10613bbf5780548555613bfc565b82800160010185558215613bfc57600052602060002091601f016020900482015b82811115613bfb578254825591600101919060010190613be0565b5b509050613c099190613c6e565b5090565b60405180606001604052806000815260200160008152602001606081525090565b508054613c3a90615251565b6000825580601f10613c4c5750613c6b565b601f016020900490600052602060002090810190613c6a9190613c6e565b5b50565b5b80821115613c87576000816000905550600101613c6f565b5090565b6000613c9e613c9984614e94565b614e6f565b90508083825260208201905082856020860282011115613cbd57600080fd5b60005b85811015613ced5781613cd38882613ddf565b845260208401935060208301925050600181019050613cc0565b5050509392505050565b6000613d0a613d0584614ec0565b614e6f565b90508083825260208201905082856020860282011115613d2957600080fd5b60005b85811015613d595781613d3f8882613edb565b845260208401935060208301925050600181019050613d2c565b5050509392505050565b6000613d76613d7184614eec565b614e6f565b905082815260208101848484011115613d8e57600080fd5b613d9984828561520f565b509392505050565b6000613db4613daf84614f1d565b614e6f565b905082815260208101848484011115613dcc57600080fd5b613dd784828561520f565b509392505050565b600081359050613dee816159bd565b92915050565b600082601f830112613e0557600080fd5b8135613e15848260208601613c8b565b91505092915050565b600082601f830112613e2f57600080fd5b8135613e3f848260208601613cf7565b91505092915050565b600081359050613e57816159d4565b92915050565b600081359050613e6c816159eb565b92915050565b600081519050613e81816159eb565b92915050565b600082601f830112613e9857600080fd5b8135613ea8848260208601613d63565b91505092915050565b600082601f830112613ec257600080fd5b8135613ed2848260208601613da1565b91505092915050565b600081359050613eea81615a02565b92915050565b600060208284031215613f0257600080fd5b6000613f1084828501613ddf565b91505092915050565b60008060408385031215613f2c57600080fd5b6000613f3a85828601613ddf565b9250506020613f4b85828601613ddf565b9150509250929050565b600080600080600060a08688031215613f6d57600080fd5b6000613f7b88828901613ddf565b9550506020613f8c88828901613ddf565b945050604086013567ffffffffffffffff811115613fa957600080fd5b613fb588828901613e1e565b935050606086013567ffffffffffffffff811115613fd257600080fd5b613fde88828901613e1e565b925050608086013567ffffffffffffffff811115613ffb57600080fd5b61400788828901613e87565b9150509295509295909350565b600080600080600060a0868803121561402c57600080fd5b600061403a88828901613ddf565b955050602061404b88828901613ddf565b945050604061405c88828901613edb565b935050606061406d88828901613edb565b925050608086013567ffffffffffffffff81111561408a57600080fd5b61409688828901613e87565b9150509295509295909350565b600080604083850312156140b657600080fd5b60006140c485828601613ddf565b92505060206140d585828601613e48565b9150509250929050565b600080604083850312156140f257600080fd5b600061410085828601613ddf565b925050602061411185828601613edb565b9150509250929050565b6000806040838503121561412e57600080fd5b600083013567ffffffffffffffff81111561414857600080fd5b61415485828601613df4565b925050602083013567ffffffffffffffff81111561417157600080fd5b61417d85828601613e1e565b9150509250929050565b60006020828403121561419957600080fd5b60006141a784828501613e5d565b91505092915050565b6000602082840312156141c257600080fd5b60006141d084828501613e72565b91505092915050565b6000602082840312156141eb57600080fd5b600082013567ffffffffffffffff81111561420557600080fd5b61421184828501613eb1565b91505092915050565b60006020828403121561422c57600080fd5b600061423a84828501613edb565b91505092915050565b600061424f83836147a6565b905092915050565b60006142638383614846565b905092915050565b600061427783836148e6565b60208301905092915050565b61428c81615177565b82525050565b600061429d82614f93565b6142a78185614ff1565b9350836020820285016142b985614f4e565b8060005b858110156142f557848403895281516142d68582614243565b94506142e183614fca565b925060208a019950506001810190506142bd565b50829750879550505050505092915050565b600061431282614f9e565b61431c8185615002565b93508360208202850161432e85614f5e565b8060005b8581101561436a578484038952815161434b8582614257565b945061435683614fd7565b925060208a01995050600181019050614332565b50829750879550505050505092915050565b600061438782614fa9565b6143918185615013565b935061439c83614f6e565b8060005b838110156143cd5781516143b4888261426b565b97506143bf83614fe4565b9250506001810190506143a0565b5085935050505092915050565b6143e381615189565b82525050565b60006143f482614fb4565b6143fe8185615024565b935061440e81856020860161521e565b61441781615416565b840191505092915050565b61442b816151eb565b82525050565b600061443c82614fbf565b6144468185615035565b935061445681856020860161521e565b61445f81615416565b840191505092915050565b600061447582614fbf565b61447f8185615046565b935061448f81856020860161521e565b61449881615416565b840191505092915050565b60006144ae82614fbf565b6144b88185615057565b93506144c881856020860161521e565b80840191505092915050565b600081546144e181615251565b6144eb8186615057565b9450600182166000811461450657600181146145175761454a565b60ff1983168652818601935061454a565b61452085614f7e565b60005b8381101561454257815481890152600182019150602081019050614523565b838801955050505b50505092915050565b6000614560603483615046565b915061456b82615434565b604082019050919050565b6000614583602883615046565b915061458e82615483565b604082019050919050565b60006145a6602b83615046565b91506145b1826154d2565b604082019050919050565b60006145c9602483615046565b91506145d482615521565b604082019050919050565b60006145ec601283615046565b91506145f782615570565b602082019050919050565b600061460f602983615046565b915061461a82615599565b604082019050919050565b6000614632602383615046565b915061463d826155e8565b604082019050919050565b6000614655600783615057565b915061466082615637565b600782019050919050565b6000614678602583615046565b915061468382615660565b604082019050919050565b600061469b603283615046565b91506146a6826156af565b604082019050919050565b60006146be602383615046565b91506146c9826156fe565b604082019050919050565b60006146e1602a83615046565b91506146ec8261574d565b604082019050919050565b6000614704602883615046565b915061470f8261579c565b604082019050919050565b6000614727602983615046565b9150614732826157eb565b604082019050919050565b600061474a602983615046565b91506147558261583a565b604082019050919050565b600061476d602883615046565b915061477882615889565b604082019050919050565b6000614790602183615046565b915061479b826158d8565b604082019050919050565b60006060830160008301516147be60008601826148e6565b5060208301516147d160208601826148e6565b50604083015184820360408601526147e98282614431565b9150508091505092915050565b600060608301600083015161480e60008601826148e6565b50602083015161482160208601826148e6565b50604083015184820360408601526148398282614431565b9150508091505092915050565b600060608301600083015161485e60008601826148e6565b50602083015161487160208601826148e6565b50604083015184820360408601526148898282614431565b9150508091505092915050565b60006060830160008301516148ae60008601826148e6565b5060208301516148c160208601826148e6565b50604083015184820360408601526148d98282614431565b9150508091505092915050565b6148ef816151e1565b82525050565b6148fe816151e1565b82525050565b614915614910826151e1565b6152fd565b82525050565b600061492782856144d4565b915061493382846144a3565b91508190509392505050565b600061494a82614648565b915061495682846144a3565b915081905092915050565b600061496d8284614904565b60208201915081905092915050565b60006020820190506149916000830184614283565b92915050565b600060a0820190506149ac6000830188614283565b6149b96020830187614283565b81810360408301526149cb818661437c565b905081810360608301526149df818561437c565b905081810360808301526149f381846143e9565b90509695505050505050565b600060a082019050614a146000830188614283565b614a216020830187614283565b614a2e60408301866148f5565b614a3b60608301856148f5565b8181036080830152614a4d81846143e9565b90509695505050505050565b60006020820190508181036000830152614a738184614292565b905092915050565b60006020820190508181036000830152614a958184614307565b905092915050565b60006020820190508181036000830152614ab7818461437c565b905092915050565b60006040820190508181036000830152614ad9818561437c565b90508181036020830152614aed818461437c565b90509392505050565b6000602082019050614b0b60008301846143da565b92915050565b6000602082019050614b266000830184614422565b92915050565b60006020820190508181036000830152614b46818461446a565b905092915050565b60006020820190508181036000830152614b6781614553565b9050919050565b60006020820190508181036000830152614b8781614576565b9050919050565b60006020820190508181036000830152614ba781614599565b9050919050565b60006020820190508181036000830152614bc7816145bc565b9050919050565b60006020820190508181036000830152614be7816145df565b9050919050565b60006020820190508181036000830152614c0781614602565b9050919050565b60006020820190508181036000830152614c2781614625565b9050919050565b60006020820190508181036000830152614c478161466b565b9050919050565b60006020820190508181036000830152614c678161468e565b9050919050565b60006020820190508181036000830152614c87816146b1565b9050919050565b60006020820190508181036000830152614ca7816146d4565b9050919050565b60006020820190508181036000830152614cc7816146f7565b9050919050565b60006020820190508181036000830152614ce78161471a565b9050919050565b60006020820190508181036000830152614d078161473d565b9050919050565b60006020820190508181036000830152614d2781614760565b9050919050565b60006020820190508181036000830152614d4781614783565b9050919050565b60006020820190508181036000830152614d688184614896565b905092915050565b6000602082019050614d8560008301846148f5565b92915050565b6000604082019050614da060008301856148f5565b614dad60208301846148f5565b9392505050565b6000606082019050614dc960008301866148f5565b614dd660208301856148f5565b8181036040830152614de8818461446a565b9050949350505050565b600060e082019050614e07600083018a6148f5565b614e1460208301896148f5565b614e2160408301886148f5565b8181036060830152614e33818761446a565b90508181036080830152614e4781866147f6565b9050614e5660a08301856143da565b614e6360c08301846143da565b98975050505050505050565b6000614e79614e8a565b9050614e858282615283565b919050565b6000604051905090565b600067ffffffffffffffff821115614eaf57614eae6153c5565b5b602082029050602081019050919050565b600067ffffffffffffffff821115614edb57614eda6153c5565b5b602082029050602081019050919050565b600067ffffffffffffffff821115614f0757614f066153c5565b5b614f1082615416565b9050602081019050919050565b600067ffffffffffffffff821115614f3857614f376153c5565b5b614f4182615416565b9050602081019050919050565b6000819050602082019050919050565b6000819050602082019050919050565b6000819050602082019050919050565b60008190508160005260206000209050919050565b600081519050919050565b600081519050919050565b600081519050919050565b600081519050919050565b600081519050919050565b6000602082019050919050565b6000602082019050919050565b6000602082019050919050565b600082825260208201905092915050565b600082825260208201905092915050565b600082825260208201905092915050565b600082825260208201905092915050565b600082825260208201905092915050565b600082825260208201905092915050565b600081905092915050565b600061506d826151e1565b9150615078836151e1565b9250827fffffffffffffffffffffffffffffffffffffffffffffffffffffffffffffffff038211156150ad576150ac615338565b5b828201905092915050565b60006150c3826151e1565b91506150ce836151e1565b9250826150de576150dd615367565b5b828204905092915050565b60006150f4826151e1565b91506150ff836151e1565b9250817fffffffffffffffffffffffffffffffffffffffffffffffffffffffffffffffff048311821515161561513857615137615338565b5b828202905092915050565b600061514e826151e1565b9150615159836151e1565b92508282101561516c5761516b615338565b5b828203905092915050565b6000615182826151c1565b9050919050565b60008115159050919050565b60007fffffffff0000000000000000000000000000000000000000000000000000000082169050919050565b600073ffffffffffffffffffffffffffffffffffffffff82169050919050565b6000819050919050565b60006151f6826151fd565b9050919050565b6000615208826151c1565b9050919050565b82818337600083830152505050565b60005b8381101561523c578082015181840152602081019050615221565b8381111561524b576000848401525b50505050565b6000600282049050600182168061526957607f821691505b6020821081141561527d5761527c615396565b5b50919050565b61528c82615416565b810181811067ffffffffffffffff821117156152ab576152aa6153c5565b5b80604052505050565b60006152bf826151e1565b91507fffffffffffffffffffffffffffffffffffffffffffffffffffffffffffffffff8214156152f2576152f1615338565b5b600182019050919050565b6000819050919050565b6000615312826151e1565b915061531d836151e1565b92508261532d5761532c615367565b5b828206905092915050565b7f4e487b7100000000000000000000000000000000000000000000000000000000600052601160045260246000fd5b7f4e487b7100000000000000000000000000000000000000000000000000000000600052601260045260246000fd5b7f4e487b7100000000000000000000000000000000000000000000000000000000600052602260045260246000fd5b7f4e487b7100000000000000000000000000000000000000000000000000000000600052604160045260246000fd5b600060033d11156154135760046000803e615410600051615427565b90505b90565b6000601f19601f8301169050919050565b60008160e01c9050919050565b7f455243313135353a207472616e7366657220746f206e6f6e204552433131353560008201527f526563656976657220696d706c656d656e746572000000000000000000000000602082015250565b7f455243313135353a204552433131353552656365697665722072656a6563746560008201527f6420746f6b656e73000000000000000000000000000000000000000000000000602082015250565b7f455243313135353a2062616c616e636520717565727920666f7220746865207a60008201527f65726f2061646472657373000000000000000000000000000000000000000000602082015250565b7f455243313135353a206275726e20616d6f756e7420657863656564732062616c60008201527f616e636500000000000000000000000000000000000000000000000000000000602082015250565b7f696e76616c6964206d6f6e737465722069640000000000000000000000000000600082015250565b7f455243313135353a2063616c6c6572206973206e6f74206f776e6572206e6f7260008201527f20617070726f7665640000000000000000000000000000000000000000000000602082015250565b7f486176656e277420696e697469616c697a65642074686520706c61796572207960008201527f65742e0000000000000000000000000000000000000000000000000000000000602082015250565b7f6d6f6e7374657200000000000000000000000000000000000000000000000000600082015250565b7f455243313135353a207472616e7366657220746f20746865207a65726f20616460008201527f6472657373000000000000000000000000000000000000000000000000000000602082015250565b7f455243313135353a207472616e736665722063616c6c6572206973206e6f742060008201527f6f776e6572206e6f7220617070726f7665640000000000000000000000000000602082015250565b7f455243313135353a206275726e2066726f6d20746865207a65726f206164647260008201527f6573730000000000000000000000000000000000000000000000000000000000602082015250565b7f455243313135353a20696e73756666696369656e742062616c616e636520666f60008201527f72207472616e7366657200000000000000000000000000000000000000000000602082015250565b7f4d6f6e737465722773206c656e6774682073686f756c6420626520626967676560008201527f72207468616e2030000000000000000000000000000000000000000000000000602082015250565b7f455243313135353a2073657474696e6720617070726f76616c2073746174757360008201527f20666f722073656c660000000000000000000000000000000000000000000000602082015250565b7f455243313135353a206163636f756e747320616e6420696473206c656e67746860008201527f206d69736d617463680000000000000000000000000000000000000000000000602082015250565b7f455243313135353a2069647320616e6420616d6f756e7473206c656e6774682060008201527f6d69736d61746368000000000000000000000000000000000000000000000000602082015250565b7f455243313135353a206d696e7420746f20746865207a65726f2061646472657360008201527f7300000000000000000000000000000000000000000000000000000000000000602082015250565b600060443d1015615937576159ba565b61593f614e8a565b60043d036004823e80513d602482011167ffffffffffffffff821117156159675750506159ba565b808201805167ffffffffffffffff81111561598557505050506159ba565b80602083010160043d0385018111156159a25750505050506159ba565b6159b182602001850186615283565b82955050505050505b90565b6159c681615177565b81146159d157600080fd5b50565b6159dd81615189565b81146159e857600080fd5b50565b6159f481615195565b81146159ff57600080fd5b50565b615a0b816151e1565b8114615a1657600080fd5b5056fea2646970667358221220f1b8933a9f52befd2116233839c36146957337177c439158285c822b5feb7e6b64736f6c63430008010033",
  "linkReferences": {},
  "deployedLinkReferences": {}
}