{
  "_format": "hh-sol-artifact-1",
  "contractName": "GameMaster",
  "sourceName": "contracts/GameMaster.sol",
  "abi": [
    {
      "inputs": [],
      "stateMutability": "nonpayable",
      "type": "constructor"
    },
    {
      "anonymous": false,
      "inputs": [
        {
          "indexed": true,
          "internalType": "address",
          "name": "account",
          "type": "address"
        },
        {
          "indexed": true,
          "internalType": "address",
          "name": "operator",
          "type": "address"
        },
        {
          "indexed": false,
          "internalType": "bool",
          "name": "approved",
          "type": "bool"
        }
      ],
      "name": "ApprovalForAll",
      "type": "event"
    },
    {
      "anonymous": false,
      "inputs": [
        {
          "indexed": true,
          "internalType": "address",
          "name": "operator",
          "type": "address"
        },
        {
          "indexed": true,
          "internalType": "address",
          "name": "from",
          "type": "address"
        },
        {
          "indexed": true,
          "internalType": "address",
          "name": "to",
          "type": "address"
        },
        {
          "indexed": false,
          "internalType": "uint256[]",
          "name": "ids",
          "type": "uint256[]"
        },
        {
          "indexed": false,
          "internalType": "uint256[]",
          "name": "values",
          "type": "uint256[]"
        }
      ],
      "name": "TransferBatch",
      "type": "event"
    },
    {
      "anonymous": false,
      "inputs": [
        {
          "indexed": true,
          "internalType": "address",
          "name": "operator",
          "type": "address"
        },
        {
          "indexed": true,
          "internalType": "address",
          "name": "from",
          "type": "address"
        },
        {
          "indexed": true,
          "internalType": "address",
          "name": "to",
          "type": "address"
        },
        {
          "indexed": false,
          "internalType": "uint256",
          "name": "id",
          "type": "uint256"
        },
        {
          "indexed": false,
          "internalType": "uint256",
          "name": "value",
          "type": "uint256"
        }
      ],
      "name": "TransferSingle",
      "type": "event"
    },
    {
      "anonymous": false,
      "inputs": [
        {
          "indexed": false,
          "internalType": "string",
          "name": "value",
          "type": "string"
        },
        {
          "indexed": true,
          "internalType": "uint256",
          "name": "id",
          "type": "uint256"
        }
      ],
      "name": "URI",
      "type": "event"
    },
    {
      "inputs": [],
      "name": "GOLD",
      "outputs": [
        {
          "internalType": "uint256",
          "name": "",
          "type": "uint256"
        }
      ],
      "stateMutability": "view",
      "type": "function"
    },
    {
      "inputs": [],
      "name": "NEW_SWORD",
      "outputs": [
        {
          "internalType": "uint256",
          "name": "",
          "type": "uint256"
        }
      ],
      "stateMutability": "view",
      "type": "function"
    },
    {
      "inputs": [],
      "name": "SILVER",
      "outputs": [
        {
          "internalType": "uint256",
          "name": "",
          "type": "uint256"
        }
      ],
      "stateMutability": "view",
      "type": "function"
    },
    {
      "inputs": [
        {
          "internalType": "uint256",
          "name": "",
          "type": "uint256"
        }
      ],
      "name": "allMonsters",
      "outputs": [
        {
          "internalType": "uint256",
          "name": "attack",
          "type": "uint256"
        },
        {
          "internalType": "uint256",
          "name": "monster_current_health",
          "type": "uint256"
        },
        {
          "internalType": "string",
          "name": "monster_name",
          "type": "string"
        }
      ],
      "stateMutability": "view",
      "type": "function"
    },
    {
      "inputs": [
        {
          "internalType": "address",
          "name": "account",
          "type": "address"
        },
        {
          "internalType": "uint256",
          "name": "id",
          "type": "uint256"
        }
      ],
      "name": "balanceOf",
      "outputs": [
        {
          "internalType": "uint256",
          "name": "",
          "type": "uint256"
        }
      ],
      "stateMutability": "view",
      "type": "function"
    },
    {
      "inputs": [
        {
          "internalType": "address[]",
          "name": "accounts",
          "type": "address[]"
        },
        {
          "internalType": "uint256[]",
          "name": "ids",
          "type": "uint256[]"
        }
      ],
      "name": "balanceOfBatch",
      "outputs": [
        {
          "internalType": "uint256[]",
          "name": "",
          "type": "uint256[]"
        }
      ],
      "stateMutability": "view",
      "type": "function"
    },
    {
      "inputs": [],
      "name": "create_monster",
      "outputs": [],
      "stateMutability": "nonpayable",
      "type": "function"
    },
    {
      "inputs": [],
      "name": "equipment_counter",
      "outputs": [
        {
          "internalType": "uint256",
          "name": "",
          "type": "uint256"
        }
      ],
      "stateMutability": "view",
      "type": "function"
    },
    {
      "inputs": [],
      "name": "equipment_maximum_attack",
      "outputs": [
        {
          "internalType": "uint256",
          "name": "",
          "type": "uint256"
        }
      ],
      "stateMutability": "view",
      "type": "function"
    },
    {
      "inputs": [],
      "name": "equipment_minimum_attack",
      "outputs": [
        {
          "internalType": "uint256",
          "name": "",
          "type": "uint256"
        }
      ],
      "stateMutability": "view",
      "type": "function"
    },
    {
      "inputs": [],
      "name": "get_all_monster",
      "outputs": [
        {
          "components": [
            {
              "internalType": "uint256",
              "name": "attack",
              "type": "uint256"
            },
            {
              "internalType": "uint256",
              "name": "monster_current_health",
              "type": "uint256"
            },
            {
              "internalType": "string",
              "name": "monster_name",
              "type": "string"
            }
          ],
          "internalType": "struct IMonster.Monster[]",
          "name": "",
          "type": "tuple[]"
        }
      ],
      "stateMutability": "view",
      "type": "function"
    },
    {
      "inputs": [
        {
          "internalType": "uint256",
          "name": "_index",
          "type": "uint256"
        }
      ],
      "name": "get_monster",
      "outputs": [
        {
          "components": [
            {
              "internalType": "uint256",
              "name": "attack",
              "type": "uint256"
            },
            {
              "internalType": "uint256",
              "name": "monster_current_health",
              "type": "uint256"
            },
            {
              "internalType": "string",
              "name": "monster_name",
              "type": "string"
            }
          ],
          "internalType": "struct IMonster.Monster",
          "name": "name",
          "type": "tuple"
        }
      ],
      "stateMutability": "view",
      "type": "function"
    },
    {
      "inputs": [
        {
          "internalType": "uint256",
          "name": "upperBoundary",
          "type": "uint256"
        }
      ],
      "name": "get_random",
      "outputs": [
        {
          "internalType": "uint256",
          "name": "",
          "type": "uint256"
        }
      ],
      "stateMutability": "nonpayable",
      "type": "function"
    },
    {
      "inputs": [
        {
          "internalType": "address",
          "name": "account",
          "type": "address"
        },
        {
          "internalType": "address",
          "name": "operator",
          "type": "address"
        }
      ],
      "name": "isApprovedForAll",
      "outputs": [
        {
          "internalType": "bool",
          "name": "",
          "type": "bool"
        }
      ],
      "stateMutability": "view",
      "type": "function"
    },
    {
      "inputs": [],
      "name": "is_pause",
      "outputs": [
        {
          "internalType": "bool",
          "name": "",
          "type": "bool"
        }
      ],
      "stateMutability": "view",
      "type": "function"
    },
    {
      "inputs": [],
      "name": "monsterCounter",
      "outputs": [
        {
          "internalType": "uint256",
          "name": "",
          "type": "uint256"
        }
      ],
      "stateMutability": "view",
      "type": "function"
    },
    {
      "inputs": [],
      "name": "monster_maximum_attack",
      "outputs": [
        {
          "internalType": "uint256",
          "name": "",
          "type": "uint256"
        }
      ],
      "stateMutability": "view",
      "type": "function"
    },
    {
      "inputs": [],
      "name": "monster_maximum_health",
      "outputs": [
        {
          "internalType": "uint256",
          "name": "",
          "type": "uint256"
        }
      ],
      "stateMutability": "view",
      "type": "function"
    },
    {
      "inputs": [],
      "name": "monster_minimum_attack",
      "outputs": [
        {
          "internalType": "uint256",
          "name": "",
          "type": "uint256"
        }
      ],
      "stateMutability": "view",
      "type": "function"
    },
    {
      "inputs": [],
      "name": "new_sword_attack",
      "outputs": [
        {
          "internalType": "uint256",
          "name": "",
          "type": "uint256"
        }
      ],
      "stateMutability": "view",
      "type": "function"
    },
    {
      "inputs": [],
      "name": "pause",
      "outputs": [],
      "stateMutability": "nonpayable",
      "type": "function"
    },
    {
      "inputs": [],
      "name": "random",
      "outputs": [
        {
          "internalType": "contract Random",
          "name": "",
          "type": "address"
        }
      ],
      "stateMutability": "view",
      "type": "function"
    },
    {
      "inputs": [
        {
          "internalType": "address",
          "name": "from",
          "type": "address"
        },
        {
          "internalType": "address",
          "name": "to",
          "type": "address"
        },
        {
          "internalType": "uint256[]",
          "name": "ids",
          "type": "uint256[]"
        },
        {
          "internalType": "uint256[]",
          "name": "amounts",
          "type": "uint256[]"
        },
        {
          "internalType": "bytes",
          "name": "data",
          "type": "bytes"
        }
      ],
      "name": "safeBatchTransferFrom",
      "outputs": [],
      "stateMutability": "nonpayable",
      "type": "function"
    },
    {
      "inputs": [
        {
          "internalType": "address",
          "name": "from",
          "type": "address"
        },
        {
          "internalType": "address",
          "name": "to",
          "type": "address"
        },
        {
          "internalType": "uint256",
          "name": "id",
          "type": "uint256"
        },
        {
          "internalType": "uint256",
          "name": "amount",
          "type": "uint256"
        },
        {
          "internalType": "bytes",
          "name": "data",
          "type": "bytes"
        }
      ],
      "name": "safeTransferFrom",
      "outputs": [],
      "stateMutability": "nonpayable",
      "type": "function"
    },
    {
      "inputs": [
        {
          "internalType": "address",
          "name": "operator",
          "type": "address"
        },
        {
          "internalType": "bool",
          "name": "approved",
          "type": "bool"
        }
      ],
      "name": "setApprovalForAll",
      "outputs": [],
      "stateMutability": "nonpayable",
      "type": "function"
    },
    {
      "inputs": [
        {
          "internalType": "bytes4",
          "name": "interfaceId",
          "type": "bytes4"
        }
      ],
      "name": "supportsInterface",
      "outputs": [
        {
          "internalType": "bool",
          "name": "",
          "type": "bool"
        }
      ],
      "stateMutability": "view",
      "type": "function"
    },
    {
      "inputs": [],
      "name": "unpause",
      "outputs": [],
      "stateMutability": "nonpayable",
      "type": "function"
    },
    {
      "inputs": [
        {
          "internalType": "uint256",
          "name": "",
          "type": "uint256"
        }
      ],
      "name": "uri",
      "outputs": [
        {
          "internalType": "string",
          "name": "",
          "type": "string"
        }
      ],
      "stateMutability": "view",
      "type": "function"
    }
  ],
  "bytecode": "0x60806040526003600455600c600555600860065560086007556040518060400160405280600981526020017f65717569706d656e740000000000000000000000000000000000000000000000815250600990805190602001906200006592919062000420565b5060c8600c55600c600d556008600e556000600f60006101000a81548160ff0219169083151502179055503480156200009d57600080fd5b5060065460405180602001604052806000815250620000c281620000e960201b60201c565b5080600381905550506000600b81905550620000e36200010560201b60201c565b6200082e565b80600290805190602001906200010192919062000420565b5050565b60006200011a600d546200020460201b60201c565b9050600062000131600c546200020460201b60201c565b9050600a604051806060016040528084815260200183815260200162000164600b546200025e60201b62000ff31760201c565b60405160200162000176919062000549565b604051602081830303815290604052815250908060018154018082558091505060019003906000526020600020906003020160009091909190915060008201518160000155602082015181600101556040820151816002019080519060200190620001e392919062000420565b505050600b6000815480929190620001fb90620006e8565b91905055505050565b600081600360008154809291906200021c90620006e8565b919050556040516020016200023291906200056f565b6040516020818303038152906040528051906020012060001c62000257919062000740565b9050919050565b60606000821415620002a8576040518060400160405280600181526020017f300000000000000000000000000000000000000000000000000000000000000081525090506200041b565b600082905060005b60008214620002e0578080620002c690620006e8565b915050600a82620002d89190620005ff565b9150620002b0565b60008167ffffffffffffffff81111562000323577f4e487b7100000000000000000000000000000000000000000000000000000000600052604160045260246000fd5b6040519080825280601f01601f191660200182016040528015620003565781602001600182028036833780820191505090505b5090505b60008514620004145760018262000372919062000637565b9150600a8562000383919062000740565b6030620003919190620005a2565b60f81b818381518110620003ce577f4e487b7100000000000000000000000000000000000000000000000000000000600052603260045260246000fd5b60200101907effffffffffffffffffffffffffffffffffffffffffffffffffffffffffffff1916908160001a905350600a856200040c9190620005ff565b94506200035a565b8093505050505b919050565b8280546200042e90620006b2565b90600052602060002090601f0160209004810192826200045257600085556200049e565b82601f106200046d57805160ff19168380011785556200049e565b828001600101855582156200049e579182015b828111156200049d57825182559160200191906001019062000480565b5b509050620004ad9190620004b1565b5090565b5b80821115620004cc576000816000905550600101620004b2565b5090565b6000620004dd826200058c565b620004e9818562000597565b9350620004fb8185602086016200067c565b80840191505092915050565b60006200051660078362000597565b9150620005238262000805565b600782019050919050565b620005436200053d8262000672565b62000736565b82525050565b6000620005568262000507565b9150620005648284620004d0565b915081905092915050565b60006200057d82846200052e565b60208201915081905092915050565b600081519050919050565b600081905092915050565b6000620005af8262000672565b9150620005bc8362000672565b9250827fffffffffffffffffffffffffffffffffffffffffffffffffffffffffffffffff03821115620005f457620005f362000778565b5b828201905092915050565b60006200060c8262000672565b9150620006198362000672565b9250826200062c576200062b620007a7565b5b828204905092915050565b6000620006448262000672565b9150620006518362000672565b92508282101562000667576200066662000778565b5b828203905092915050565b6000819050919050565b60005b838110156200069c5780820151818401526020810190506200067f565b83811115620006ac576000848401525b50505050565b60006002820490506001821680620006cb57607f821691505b60208210811415620006e257620006e1620007d6565b5b50919050565b6000620006f58262000672565b91507fffffffffffffffffffffffffffffffffffffffffffffffffffffffffffffffff8214156200072b576200072a62000778565b5b600182019050919050565b6000819050919050565b60006200074d8262000672565b91506200075a8362000672565b9250826200076d576200076c620007a7565b5b828206905092915050565b7f4e487b7100000000000000000000000000000000000000000000000000000000600052601160045260246000fd5b7f4e487b7100000000000000000000000000000000000000000000000000000000600052601260045260246000fd5b7f4e487b7100000000000000000000000000000000000000000000000000000000600052602260045260246000fd5b7f6d6f6e7374657200000000000000000000000000000000000000000000000000600082015250565b613531806200083e6000396000f3fe608060405234801561001057600080fd5b50600436106101c35760003560e01c80637e14ab4a116100f9578063bfe58d4f11610097578063de4e8b0d11610071578063de4e8b0d146104c4578063e3e55f08146104f6578063e985e9c514610514578063f242432a14610544576101c3565b8063bfe58d4f14610458578063c5897d5b14610476578063cf7d325f14610494576101c3565b80639caa7fd0116100d35780639caa7fd0146103f6578063a22cb46514610400578063adab72bb1461041c578063b719a9f11461043a576101c3565b80637e14ab4a146103b057806382b08684146103ce5780638456cb59146103ec576101c3565b80634e1273f4116101665780635163191f116101405780635163191f14610338578063536d6f1f146103565780635ec01e4d1461037457806368c405ef14610392576101c3565b80634e1273f4146102cc5780634e9493a8146102fc578063500e9fdc1461031a576101c3565b80631c6e74f2116101a25780631c6e74f2146102585780632eb2c2d6146102885780633e4bee38146102a45780633f4ba83a146102c2576101c3565b8062fdd58e146101c857806301ffc9a7146101f85780630e89341c14610228575b600080fd5b6101e260048036038101906101dd91906122a7565b610560565b6040516101ef9190612b5c565b60405180910390f35b610212600480360381019061020d919061234f565b610629565b60405161021f91906129a2565b60405180910390f35b610242600480360381019061023d91906123a1565b61070b565b60405161024f91906129d8565b60405180910390f35b610272600480360381019061026d91906123a1565b61079f565b60405161027f9190612b3a565b60405180910390f35b6102a2600480360381019061029d919061211d565b6108ad565b005b6102ac61094e565b6040516102b99190612b5c565b60405180910390f35b6102ca610953565b005b6102e660048036038101906102e191906122e3565b610970565b6040516102f39190612949565b60405180910390f35b610304610b21565b6040516103119190612b5c565b60405180910390f35b610322610b27565b60405161032f9190612b5c565b60405180910390f35b610340610b2d565b60405161034d9190612b5c565b60405180910390f35b61035e610b32565b60405161036b9190612b5c565b60405180910390f35b61037c610b38565b60405161038991906129bd565b60405180910390f35b61039a610b5e565b6040516103a79190612b5c565b60405180910390f35b6103b8610b64565b6040516103c591906129a2565b60405180910390f35b6103d6610b77565b6040516103e39190612927565b60405180910390f35b6103f4610c7c565b005b6103fe610c99565b005b61041a6004803603810190610415919061226b565b610d75565b005b610424610d8b565b6040516104319190612b5c565b60405180910390f35b610442610d91565b60405161044f9190612b5c565b60405180910390f35b610460610d97565b60405161046d9190612b5c565b60405180910390f35b61047e610d9d565b60405161048b9190612b5c565b60405180910390f35b6104ae60048036038101906104a991906123a1565b610da3565b6040516104bb9190612b5c565b60405180910390f35b6104de60048036038101906104d991906123a1565b610df7565b6040516104ed93929190612ba0565b60405180910390f35b6104fe610eb9565b60405161050b9190612b5c565b60405180910390f35b61052e600480360381019061052991906120e1565b610ebe565b60405161053b91906129a2565b60405180910390f35b61055e600480360381019061055991906121dc565b610f52565b005b60008073ffffffffffffffffffffffffffffffffffffffff168373ffffffffffffffffffffffffffffffffffffffff1614156105d1576040517f08c379a00000000000000000000000000000000000000000000000000000000081526004016105c890612a3a565b60405180910390fd5b60008083815260200190815260200160002060008473ffffffffffffffffffffffffffffffffffffffff1673ffffffffffffffffffffffffffffffffffffffff16815260200190815260200160002054905092915050565b60007fd9b67a26000000000000000000000000000000000000000000000000000000007bffffffffffffffffffffffffffffffffffffffffffffffffffffffff1916827bffffffffffffffffffffffffffffffffffffffffffffffffffffffff191614806106f457507f0e89341c000000000000000000000000000000000000000000000000000000007bffffffffffffffffffffffffffffffffffffffffffffffffffffffff1916827bffffffffffffffffffffffffffffffffffffffffffffffffffffffff1916145b806107045750610703826111a0565b5b9050919050565b60606002805461071a90612ee7565b80601f016020809104026020016040519081016040528092919081815260200182805461074690612ee7565b80156107935780601f1061076857610100808354040283529160200191610793565b820191906000526020600020905b81548152906001019060200180831161077657829003601f168201915b50505050509050919050565b6107a7611e20565b6000600a83815481106107e3577f4e487b7100000000000000000000000000000000000000000000000000000000600052603260045260246000fd5b9060005260206000209060030201905080604051806060016040529081600082015481526020016001820154815260200160028201805461082390612ee7565b80601f016020809104026020016040519081016040528092919081815260200182805461084f90612ee7565b801561089c5780601f106108715761010080835404028352916020019161089c565b820191906000526020600020905b81548152906001019060200180831161087f57829003601f168201915b505050505081525050915050919050565b6108b561120a565b73ffffffffffffffffffffffffffffffffffffffff168573ffffffffffffffffffffffffffffffffffffffff1614806108fb57506108fa856108f561120a565b610ebe565b5b61093a576040517f08c379a000000000000000000000000000000000000000000000000000000000815260040161093190612a9a565b60405180910390fd5b6109478585858585611212565b5050505050565b600081565b6000600f60006101000a81548160ff021916908315150217905550565b606081518351146109b6576040517f08c379a00000000000000000000000000000000000000000000000000000000081526004016109ad90612afa565b60405180910390fd5b6000835167ffffffffffffffff8111156109f9577f4e487b7100000000000000000000000000000000000000000000000000000000600052604160045260246000fd5b604051908082528060200260200182016040528015610a275781602001602082028036833780820191505090505b50905060005b8451811015610b1657610ac0858281518110610a72577f4e487b7100000000000000000000000000000000000000000000000000000000600052603260045260246000fd5b6020026020010151858381518110610ab3577f4e487b7100000000000000000000000000000000000000000000000000000000600052603260045260246000fd5b6020026020010151610560565b828281518110610af9577f4e487b7100000000000000000000000000000000000000000000000000000000600052603260045260246000fd5b60200260200101818152505080610b0f90612f4a565b9050610a2d565b508091505092915050565b600d5481565b60065481565b600281565b600e5481565b600860009054906101000a900473ffffffffffffffffffffffffffffffffffffffff1681565b600b5481565b600f60009054906101000a900460ff1681565b6060600a805480602002602001604051908101604052809291908181526020016000905b82821015610c7357838290600052602060002090600302016040518060600160405290816000820154815260200160018201548152602001600282018054610be290612ee7565b80601f0160208091040260200160405190810160405280929190818152602001828054610c0e90612ee7565b8015610c5b5780601f10610c3057610100808354040283529160200191610c5b565b820191906000526020600020905b815481529060010190602001808311610c3e57829003601f168201915b50505050508152505081526020019060010190610b9b565b50505050905090565b6001600f60006101000a81548160ff021916908315150217905550565b6000610ca6600d54610da3565b90506000610cb5600c54610da3565b9050600a6040518060600160405280848152602001838152602001610cdb600b54610ff3565b604051602001610ceb9190612828565b604051602081830303815290604052815250908060018154018082558091505060019003906000526020600020906003020160009091909190915060008201518160000155602082015181600101556040820151816002019080519060200190610d56929190611e41565b505050600b6000815480929190610d6c90612f4a565b91905055505050565b610d87610d8061120a565b8383611572565b5050565b60045481565b600c5481565b60055481565b60075481565b60008160036000815480929190610db990612f4a565b91905055604051602001610dcd919061284a565b6040516020818303038152906040528051906020012060001c610df09190612f9d565b9050919050565b600a8181548110610e0757600080fd5b9060005260206000209060030201600091509050806000015490806001015490806002018054610e3690612ee7565b80601f0160208091040260200160405190810160405280929190818152602001828054610e6290612ee7565b8015610eaf5780601f10610e8457610100808354040283529160200191610eaf565b820191906000526020600020905b815481529060010190602001808311610e9257829003601f168201915b5050505050905083565b600181565b6000600160008473ffffffffffffffffffffffffffffffffffffffff1673ffffffffffffffffffffffffffffffffffffffff16815260200190815260200160002060008373ffffffffffffffffffffffffffffffffffffffff1673ffffffffffffffffffffffffffffffffffffffff16815260200190815260200160002060009054906101000a900460ff16905092915050565b610f5a61120a565b73ffffffffffffffffffffffffffffffffffffffff168573ffffffffffffffffffffffffffffffffffffffff161480610fa05750610f9f85610f9a61120a565b610ebe565b5b610fdf576040517f08c379a0000000000000000000000000000000000000000000000000000000008152600401610fd690612a5a565b60405180910390fd5b610fec85858585856116df565b5050505050565b6060600082141561103b576040518060400160405280600181526020017f3000000000000000000000000000000000000000000000000000000000000000815250905061119b565b600082905060005b6000821461106d57808061105690612f4a565b915050600a826110669190612da8565b9150611043565b60008167ffffffffffffffff8111156110af577f4e487b7100000000000000000000000000000000000000000000000000000000600052604160045260246000fd5b6040519080825280601f01601f1916602001820160405280156110e15781602001600182028036833780820191505090505b5090505b60008514611194576001826110fa9190612dd9565b9150600a856111099190612f9d565b60306111159190612d52565b60f81b818381518110611151577f4e487b7100000000000000000000000000000000000000000000000000000000600052603260045260246000fd5b60200101907effffffffffffffffffffffffffffffffffffffffffffffffffffffffffffff1916908160001a905350600a8561118d9190612da8565b94506110e5565b8093505050505b919050565b60007f01ffc9a7000000000000000000000000000000000000000000000000000000007bffffffffffffffffffffffffffffffffffffffffffffffffffffffff1916827bffffffffffffffffffffffffffffffffffffffffffffffffffffffff1916149050919050565b600033905090565b8151835114611256576040517f08c379a000000000000000000000000000000000000000000000000000000000815260040161124d90612b1a565b60405180910390fd5b600073ffffffffffffffffffffffffffffffffffffffff168473ffffffffffffffffffffffffffffffffffffffff1614156112c6576040517f08c379a00000000000000000000000000000000000000000000000000000000081526004016112bd90612a7a565b60405180910390fd5b60006112d061120a565b90506112e0818787878787611961565b60005b84518110156114dd576000858281518110611327577f4e487b7100000000000000000000000000000000000000000000000000000000600052603260045260246000fd5b60200260200101519050600085838151811061136c577f4e487b7100000000000000000000000000000000000000000000000000000000600052603260045260246000fd5b60200260200101519050600080600084815260200190815260200160002060008b73ffffffffffffffffffffffffffffffffffffffff1673ffffffffffffffffffffffffffffffffffffffff1681526020019081526020016000205490508181101561140d576040517f08c379a000000000000000000000000000000000000000000000000000000000815260040161140490612aba565b60405180910390fd5b81810360008085815260200190815260200160002060008c73ffffffffffffffffffffffffffffffffffffffff1673ffffffffffffffffffffffffffffffffffffffff168152602001908152602001600020819055508160008085815260200190815260200160002060008b73ffffffffffffffffffffffffffffffffffffffff1673ffffffffffffffffffffffffffffffffffffffff16815260200190815260200160002060008282546114c29190612d52565b92505081905550505050806114d690612f4a565b90506112e3565b508473ffffffffffffffffffffffffffffffffffffffff168673ffffffffffffffffffffffffffffffffffffffff168273ffffffffffffffffffffffffffffffffffffffff167f4a39dc06d4c0dbc64b70af90fd698a233a518aa5d07e595d983b8c0526c8f7fb878760405161155492919061296b565b60405180910390a461156a818787878787611969565b505050505050565b8173ffffffffffffffffffffffffffffffffffffffff168373ffffffffffffffffffffffffffffffffffffffff1614156115e1576040517f08c379a00000000000000000000000000000000000000000000000000000000081526004016115d890612ada565b60405180910390fd5b80600160008573ffffffffffffffffffffffffffffffffffffffff1673ffffffffffffffffffffffffffffffffffffffff16815260200190815260200160002060008473ffffffffffffffffffffffffffffffffffffffff1673ffffffffffffffffffffffffffffffffffffffff16815260200190815260200160002060006101000a81548160ff0219169083151502179055508173ffffffffffffffffffffffffffffffffffffffff168373ffffffffffffffffffffffffffffffffffffffff167f17307eab39ab6107e8899845ad3d59bd9653f200f220920489ca2b5937696c31836040516116d291906129a2565b60405180910390a3505050565b600073ffffffffffffffffffffffffffffffffffffffff168473ffffffffffffffffffffffffffffffffffffffff16141561174f576040517f08c379a000000000000000000000000000000000000000000000000000000000815260040161174690612a7a565b60405180910390fd5b600061175961120a565b905061177981878761176a88611b50565b61177388611b50565b87611961565b600080600086815260200190815260200160002060008873ffffffffffffffffffffffffffffffffffffffff1673ffffffffffffffffffffffffffffffffffffffff16815260200190815260200160002054905083811015611810576040517f08c379a000000000000000000000000000000000000000000000000000000000815260040161180790612aba565b60405180910390fd5b83810360008087815260200190815260200160002060008973ffffffffffffffffffffffffffffffffffffffff1673ffffffffffffffffffffffffffffffffffffffff168152602001908152602001600020819055508360008087815260200190815260200160002060008873ffffffffffffffffffffffffffffffffffffffff1673ffffffffffffffffffffffffffffffffffffffff16815260200190815260200160002060008282546118c59190612d52565b925050819055508573ffffffffffffffffffffffffffffffffffffffff168773ffffffffffffffffffffffffffffffffffffffff168373ffffffffffffffffffffffffffffffffffffffff167fc3d58168c5ae7397731d063d5bbf3d657854427343f4c083240f7aacaa2d0f628888604051611942929190612b77565b60405180910390a4611958828888888888611c16565b50505050505050565b505050505050565b6119888473ffffffffffffffffffffffffffffffffffffffff16611dfd565b15611b48578373ffffffffffffffffffffffffffffffffffffffff1663bc197c8187878686866040518663ffffffff1660e01b81526004016119ce959493929190612865565b602060405180830381600087803b1580156119e857600080fd5b505af1925050508015611a1957506040513d601f19601f82011682018060405250810190611a169190612378565b60015b611abf57611a2561308a565b806308c379a01415611a825750611a3a613409565b80611a455750611a84565b806040517f08c379a0000000000000000000000000000000000000000000000000000000008152600401611a7991906129d8565b60405180910390fd5b505b6040517f08c379a0000000000000000000000000000000000000000000000000000000008152600401611ab6906129fa565b60405180910390fd5b63bc197c8160e01b7bffffffffffffffffffffffffffffffffffffffffffffffffffffffff1916817bffffffffffffffffffffffffffffffffffffffffffffffffffffffff191614611b46576040517f08c379a0000000000000000000000000000000000000000000000000000000008152600401611b3d90612a1a565b60405180910390fd5b505b505050505050565b60606000600167ffffffffffffffff811115611b95577f4e487b7100000000000000000000000000000000000000000000000000000000600052604160045260246000fd5b604051908082528060200260200182016040528015611bc35781602001602082028036833780820191505090505b5090508281600081518110611c01577f4e487b7100000000000000000000000000000000000000000000000000000000600052603260045260246000fd5b60200260200101818152505080915050919050565b611c358473ffffffffffffffffffffffffffffffffffffffff16611dfd565b15611df5578373ffffffffffffffffffffffffffffffffffffffff1663f23a6e6187878686866040518663ffffffff1660e01b8152600401611c7b9594939291906128cd565b602060405180830381600087803b158015611c9557600080fd5b505af1925050508015611cc657506040513d601f19601f82011682018060405250810190611cc39190612378565b60015b611d6c57611cd261308a565b806308c379a01415611d2f5750611ce7613409565b80611cf25750611d31565b806040517f08c379a0000000000000000000000000000000000000000000000000000000008152600401611d2691906129d8565b60405180910390fd5b505b6040517f08c379a0000000000000000000000000000000000000000000000000000000008152600401611d63906129fa565b60405180910390fd5b63f23a6e6160e01b7bffffffffffffffffffffffffffffffffffffffffffffffffffffffff1916817bffffffffffffffffffffffffffffffffffffffffffffffffffffffff191614611df3576040517f08c379a0000000000000000000000000000000000000000000000000000000008152600401611dea90612a1a565b60405180910390fd5b505b505050505050565b6000808273ffffffffffffffffffffffffffffffffffffffff163b119050919050565b60405180606001604052806000815260200160008152602001606081525090565b828054611e4d90612ee7565b90600052602060002090601f016020900481019282611e6f5760008555611eb6565b82601f10611e8857805160ff1916838001178555611eb6565b82800160010185558215611eb6579182015b82811115611eb5578251825591602001919060010190611e9a565b5b509050611ec39190611ec7565b5090565b5b80821115611ee0576000816000905550600101611ec8565b5090565b6000611ef7611ef284612c03565b612bde565b90508083825260208201905082856020860282011115611f1657600080fd5b60005b85811015611f465781611f2c8882611ffa565b845260208401935060208301925050600181019050611f19565b5050509392505050565b6000611f63611f5e84612c2f565b612bde565b90508083825260208201905082856020860282011115611f8257600080fd5b60005b85811015611fb25781611f9888826120cc565b845260208401935060208301925050600181019050611f85565b5050509392505050565b6000611fcf611fca84612c5b565b612bde565b905082815260208101848484011115611fe757600080fd5b611ff2848285612ea5565b509392505050565b6000813590506120098161349f565b92915050565b600082601f83011261202057600080fd5b8135612030848260208601611ee4565b91505092915050565b600082601f83011261204a57600080fd5b813561205a848260208601611f50565b91505092915050565b600081359050612072816134b6565b92915050565b600081359050612087816134cd565b92915050565b60008151905061209c816134cd565b92915050565b600082601f8301126120b357600080fd5b81356120c3848260208601611fbc565b91505092915050565b6000813590506120db816134e4565b92915050565b600080604083850312156120f457600080fd5b600061210285828601611ffa565b925050602061211385828601611ffa565b9150509250929050565b600080600080600060a0868803121561213557600080fd5b600061214388828901611ffa565b955050602061215488828901611ffa565b945050604086013567ffffffffffffffff81111561217157600080fd5b61217d88828901612039565b935050606086013567ffffffffffffffff81111561219a57600080fd5b6121a688828901612039565b925050608086013567ffffffffffffffff8111156121c357600080fd5b6121cf888289016120a2565b9150509295509295909350565b600080600080600060a086880312156121f457600080fd5b600061220288828901611ffa565b955050602061221388828901611ffa565b9450506040612224888289016120cc565b9350506060612235888289016120cc565b925050608086013567ffffffffffffffff81111561225257600080fd5b61225e888289016120a2565b9150509295509295909350565b6000806040838503121561227e57600080fd5b600061228c85828601611ffa565b925050602061229d85828601612063565b9150509250929050565b600080604083850312156122ba57600080fd5b60006122c885828601611ffa565b92505060206122d9858286016120cc565b9150509250929050565b600080604083850312156122f657600080fd5b600083013567ffffffffffffffff81111561231057600080fd5b61231c8582860161200f565b925050602083013567ffffffffffffffff81111561233957600080fd5b61234585828601612039565b9150509250929050565b60006020828403121561236157600080fd5b600061236f84828501612078565b91505092915050565b60006020828403121561238a57600080fd5b60006123988482850161208d565b91505092915050565b6000602082840312156123b357600080fd5b60006123c1848285016120cc565b91505092915050565b60006123d68383612753565b905092915050565b60006123ea83836127f3565b60208301905092915050565b6123ff81612e0d565b82525050565b600061241082612cac565b61241a8185612cf2565b93508360208202850161242c85612c8c565b8060005b85811015612468578484038952815161244985826123ca565b945061245483612cd8565b925060208a01995050600181019050612430565b50829750879550505050505092915050565b600061248582612cb7565b61248f8185612d03565b935061249a83612c9c565b8060005b838110156124cb5781516124b288826123de565b97506124bd83612ce5565b92505060018101905061249e565b5085935050505092915050565b6124e181612e1f565b82525050565b60006124f282612cc2565b6124fc8185612d14565b935061250c818560208601612eb4565b612515816130ac565b840191505092915050565b61252981612e81565b82525050565b600061253a82612ccd565b6125448185612d25565b9350612554818560208601612eb4565b61255d816130ac565b840191505092915050565b600061257382612ccd565b61257d8185612d36565b935061258d818560208601612eb4565b612596816130ac565b840191505092915050565b60006125ac82612ccd565b6125b68185612d47565b93506125c6818560208601612eb4565b80840191505092915050565b60006125df603483612d36565b91506125ea826130ca565b604082019050919050565b6000612602602883612d36565b915061260d82613119565b604082019050919050565b6000612625602b83612d36565b915061263082613168565b604082019050919050565b6000612648602983612d36565b9150612653826131b7565b604082019050919050565b600061266b600783612d47565b915061267682613206565b600782019050919050565b600061268e602583612d36565b91506126998261322f565b604082019050919050565b60006126b1603283612d36565b91506126bc8261327e565b604082019050919050565b60006126d4602a83612d36565b91506126df826132cd565b604082019050919050565b60006126f7602983612d36565b91506127028261331c565b604082019050919050565b600061271a602983612d36565b91506127258261336b565b604082019050919050565b600061273d602883612d36565b9150612748826133ba565b604082019050919050565b600060608301600083015161276b60008601826127f3565b50602083015161277e60208601826127f3565b5060408301518482036040860152612796828261252f565b9150508091505092915050565b60006060830160008301516127bb60008601826127f3565b5060208301516127ce60208601826127f3565b50604083015184820360408601526127e6828261252f565b9150508091505092915050565b6127fc81612e77565b82525050565b61280b81612e77565b82525050565b61282261281d82612e77565b612f93565b82525050565b60006128338261265e565b915061283f82846125a1565b915081905092915050565b60006128568284612811565b60208201915081905092915050565b600060a08201905061287a60008301886123f6565b61288760208301876123f6565b8181036040830152612899818661247a565b905081810360608301526128ad818561247a565b905081810360808301526128c181846124e7565b90509695505050505050565b600060a0820190506128e260008301886123f6565b6128ef60208301876123f6565b6128fc6040830186612802565b6129096060830185612802565b818103608083015261291b81846124e7565b90509695505050505050565b600060208201905081810360008301526129418184612405565b905092915050565b60006020820190508181036000830152612963818461247a565b905092915050565b60006040820190508181036000830152612985818561247a565b90508181036020830152612999818461247a565b90509392505050565b60006020820190506129b760008301846124d8565b92915050565b60006020820190506129d26000830184612520565b92915050565b600060208201905081810360008301526129f28184612568565b905092915050565b60006020820190508181036000830152612a13816125d2565b9050919050565b60006020820190508181036000830152612a33816125f5565b9050919050565b60006020820190508181036000830152612a5381612618565b9050919050565b60006020820190508181036000830152612a738161263b565b9050919050565b60006020820190508181036000830152612a9381612681565b9050919050565b60006020820190508181036000830152612ab3816126a4565b9050919050565b60006020820190508181036000830152612ad3816126c7565b9050919050565b60006020820190508181036000830152612af3816126ea565b9050919050565b60006020820190508181036000830152612b138161270d565b9050919050565b60006020820190508181036000830152612b3381612730565b9050919050565b60006020820190508181036000830152612b5481846127a3565b905092915050565b6000602082019050612b716000830184612802565b92915050565b6000604082019050612b8c6000830185612802565b612b996020830184612802565b9392505050565b6000606082019050612bb56000830186612802565b612bc26020830185612802565b8181036040830152612bd48184612568565b9050949350505050565b6000612be8612bf9565b9050612bf48282612f19565b919050565b6000604051905090565b600067ffffffffffffffff821115612c1e57612c1d61305b565b5b602082029050602081019050919050565b600067ffffffffffffffff821115612c4a57612c4961305b565b5b602082029050602081019050919050565b600067ffffffffffffffff821115612c7657612c7561305b565b5b612c7f826130ac565b9050602081019050919050565b6000819050602082019050919050565b6000819050602082019050919050565b600081519050919050565b600081519050919050565b600081519050919050565b600081519050919050565b6000602082019050919050565b6000602082019050919050565b600082825260208201905092915050565b600082825260208201905092915050565b600082825260208201905092915050565b600082825260208201905092915050565b600082825260208201905092915050565b600081905092915050565b6000612d5d82612e77565b9150612d6883612e77565b9250827fffffffffffffffffffffffffffffffffffffffffffffffffffffffffffffffff03821115612d9d57612d9c612fce565b5b828201905092915050565b6000612db382612e77565b9150612dbe83612e77565b925082612dce57612dcd612ffd565b5b828204905092915050565b6000612de482612e77565b9150612def83612e77565b925082821015612e0257612e01612fce565b5b828203905092915050565b6000612e1882612e57565b9050919050565b60008115159050919050565b60007fffffffff0000000000000000000000000000000000000000000000000000000082169050919050565b600073ffffffffffffffffffffffffffffffffffffffff82169050919050565b6000819050919050565b6000612e8c82612e93565b9050919050565b6000612e9e82612e57565b9050919050565b82818337600083830152505050565b60005b83811015612ed2578082015181840152602081019050612eb7565b83811115612ee1576000848401525b50505050565b60006002820490506001821680612eff57607f821691505b60208210811415612f1357612f1261302c565b5b50919050565b612f22826130ac565b810181811067ffffffffffffffff82111715612f4157612f4061305b565b5b80604052505050565b6000612f5582612e77565b91507fffffffffffffffffffffffffffffffffffffffffffffffffffffffffffffffff821415612f8857612f87612fce565b5b600182019050919050565b6000819050919050565b6000612fa882612e77565b9150612fb383612e77565b925082612fc357612fc2612ffd565b5b828206905092915050565b7f4e487b7100000000000000000000000000000000000000000000000000000000600052601160045260246000fd5b7f4e487b7100000000000000000000000000000000000000000000000000000000600052601260045260246000fd5b7f4e487b7100000000000000000000000000000000000000000000000000000000600052602260045260246000fd5b7f4e487b7100000000000000000000000000000000000000000000000000000000600052604160045260246000fd5b600060033d11156130a95760046000803e6130a66000516130bd565b90505b90565b6000601f19601f8301169050919050565b60008160e01c9050919050565b7f455243313135353a207472616e7366657220746f206e6f6e204552433131353560008201527f526563656976657220696d706c656d656e746572000000000000000000000000602082015250565b7f455243313135353a204552433131353552656365697665722072656a6563746560008201527f6420746f6b656e73000000000000000000000000000000000000000000000000602082015250565b7f455243313135353a2062616c616e636520717565727920666f7220746865207a60008201527f65726f2061646472657373000000000000000000000000000000000000000000602082015250565b7f455243313135353a2063616c6c6572206973206e6f74206f776e6572206e6f7260008201527f20617070726f7665640000000000000000000000000000000000000000000000602082015250565b7f6d6f6e7374657200000000000000000000000000000000000000000000000000600082015250565b7f455243313135353a207472616e7366657220746f20746865207a65726f20616460008201527f6472657373000000000000000000000000000000000000000000000000000000602082015250565b7f455243313135353a207472616e736665722063616c6c6572206973206e6f742060008201527f6f776e6572206e6f7220617070726f7665640000000000000000000000000000602082015250565b7f455243313135353a20696e73756666696369656e742062616c616e636520666f60008201527f72207472616e7366657200000000000000000000000000000000000000000000602082015250565b7f455243313135353a2073657474696e6720617070726f76616c2073746174757360008201527f20666f722073656c660000000000000000000000000000000000000000000000602082015250565b7f455243313135353a206163636f756e747320616e6420696473206c656e67746860008201527f206d69736d617463680000000000000000000000000000000000000000000000602082015250565b7f455243313135353a2069647320616e6420616d6f756e7473206c656e6774682060008201527f6d69736d61746368000000000000000000000000000000000000000000000000602082015250565b600060443d10156134195761349c565b613421612bf9565b60043d036004823e80513d602482011167ffffffffffffffff8211171561344957505061349c565b808201805167ffffffffffffffff811115613467575050505061349c565b80602083010160043d03850181111561348457505050505061349c565b61349382602001850186612f19565b82955050505050505b90565b6134a881612e0d565b81146134b357600080fd5b50565b6134bf81612e1f565b81146134ca57600080fd5b50565b6134d681612e2b565b81146134e157600080fd5b50565b6134ed81612e77565b81146134f857600080fd5b5056fea264697066735822122055f152966a76ffcd69357c307ca97d6c91b1c4a2949dc44c5e4584a05b52b77a64736f6c63430008010033",
  "linkReferences": {},
  "deployedLinkReferences": {}
}