{
  "_format": "hh-sol-artifact-1",
  "contractName": "Random",
  "sourceName": "contracts/Random.sol",
  "abi": [
    {
      "inputs": [
        {
          "internalType": "uint256",
          "name": "_initialNumber",
          "type": "uint256"
        }
      ],
      "stateMutability": "nonpayable",
      "type": "constructor"
    },
    {
      "inputs": [
        {
          "internalType": "uint256",
          "name": "upperBoundary",
          "type": "uint256"
        }
      ],
      "name": "get_random",
      "outputs": [
        {
          "internalType": "uint256",
          "name": "",
          "type": "uint256"
        }
      ],
      "stateMutability": "nonpayable",
      "type": "function"
    }
  ],
  "bytecode": "0x608060405234801561001057600080fd5b5060405161033338038061033383398181016040528101906100329190610054565b806000819055505061009e565b60008151905061004e81610087565b92915050565b60006020828403121561006657600080fd5b60006100748482850161003f565b91505092915050565b6000819050919050565b6100908161007d565b811461009b57600080fd5b50565b610286806100ad6000396000f3fe608060405234801561001057600080fd5b506004361061002b5760003560e01c8063cf7d325f14610030575b600080fd5b61004a600480360381019061004591906100c8565b610060565b6040516100579190610132565b60405180910390f35b60008160008081548092919061007590610157565b919050556040516020016100899190610117565b6040516020818303038152906040528051906020012060001c6100ac91906101aa565b9050919050565b6000813590506100c281610239565b92915050565b6000602082840312156100da57600080fd5b60006100e8848285016100b3565b91505092915050565b6100fa8161014d565b82525050565b61011161010c8261014d565b6101a0565b82525050565b60006101238284610100565b60208201915081905092915050565b600060208201905061014760008301846100f1565b92915050565b6000819050919050565b60006101628261014d565b91507fffffffffffffffffffffffffffffffffffffffffffffffffffffffffffffffff821415610195576101946101db565b5b600182019050919050565b6000819050919050565b60006101b58261014d565b91506101c08361014d565b9250826101d0576101cf61020a565b5b828206905092915050565b7f4e487b7100000000000000000000000000000000000000000000000000000000600052601160045260246000fd5b7f4e487b7100000000000000000000000000000000000000000000000000000000600052601260045260246000fd5b6102428161014d565b811461024d57600080fd5b5056fea2646970667358221220b4c6958e83b85211105dfcd25922b9e38560a93b59e17e0b842e8df88dfc8aeb64736f6c63430008010033",
  "linkReferences": {},
  "deployedLinkReferences": {}
}